{
  "contractName": "StonersRock",
  "abi": [
    {
      "inputs": [
        {
          "internalType": "string",
          "name": "_baseUri",
          "type": "string"
        }
      ],
      "stateMutability": "nonpayable",
      "type": "constructor"
    },
    {
      "anonymous": false,
      "inputs": [
        {
          "indexed": true,
          "internalType": "address",
          "name": "owner",
          "type": "address"
        },
        {
          "indexed": true,
          "internalType": "address",
          "name": "approved",
          "type": "address"
        },
        {
          "indexed": true,
          "internalType": "uint256",
          "name": "tokenId",
          "type": "uint256"
        }
      ],
      "name": "Approval",
      "type": "event"
    },
    {
      "anonymous": false,
      "inputs": [
        {
          "indexed": true,
          "internalType": "address",
          "name": "owner",
          "type": "address"
        },
        {
          "indexed": true,
          "internalType": "address",
          "name": "operator",
          "type": "address"
        },
        {
          "indexed": false,
          "internalType": "bool",
          "name": "approved",
          "type": "bool"
        }
      ],
      "name": "ApprovalForAll",
      "type": "event"
    },
    {
      "anonymous": false,
      "inputs": [
        {
          "indexed": true,
          "internalType": "address",
          "name": "previousOwner",
          "type": "address"
        },
        {
          "indexed": true,
          "internalType": "address",
          "name": "newOwner",
          "type": "address"
        }
      ],
      "name": "OwnershipTransferred",
      "type": "event"
    },
    {
      "anonymous": false,
      "inputs": [
        {
          "indexed": false,
          "internalType": "address",
          "name": "minter",
          "type": "address"
        },
        {
          "indexed": false,
          "internalType": "uint256",
          "name": "tokenId",
          "type": "uint256"
        },
        {
          "indexed": false,
          "internalType": "string",
          "name": "tokenUri",
          "type": "string"
        }
      ],
      "name": "RockMinted",
      "type": "event"
    },
    {
      "anonymous": false,
      "inputs": [
        {
          "indexed": true,
          "internalType": "address",
          "name": "from",
          "type": "address"
        },
        {
          "indexed": true,
          "internalType": "address",
          "name": "to",
          "type": "address"
        },
        {
          "indexed": true,
          "internalType": "uint256",
          "name": "tokenId",
          "type": "uint256"
        }
      ],
      "name": "Transfer",
      "type": "event"
    },
    {
      "inputs": [
        {
          "internalType": "address",
          "name": "to",
          "type": "address"
        },
        {
          "internalType": "uint256",
          "name": "tokenId",
          "type": "uint256"
        }
      ],
      "name": "approve",
      "outputs": [],
      "stateMutability": "nonpayable",
      "type": "function"
    },
    {
      "inputs": [
        {
          "internalType": "address",
          "name": "owner",
          "type": "address"
        }
      ],
      "name": "balanceOf",
      "outputs": [
        {
          "internalType": "uint256",
          "name": "",
          "type": "uint256"
        }
      ],
      "stateMutability": "view",
      "type": "function",
      "constant": true
    },
    {
      "inputs": [],
      "name": "baseUri",
      "outputs": [
        {
          "internalType": "string",
          "name": "",
          "type": "string"
        }
      ],
      "stateMutability": "view",
      "type": "function",
      "constant": true
    },
    {
      "inputs": [
        {
          "internalType": "uint256",
          "name": "tokenId",
          "type": "uint256"
        }
      ],
      "name": "burn",
      "outputs": [],
      "stateMutability": "nonpayable",
      "type": "function"
    },
    {
      "inputs": [],
      "name": "community",
      "outputs": [
        {
          "internalType": "address",
          "name": "",
          "type": "address"
        }
      ],
      "stateMutability": "view",
      "type": "function",
      "constant": true
    },
    {
      "inputs": [
        {
          "internalType": "uint256",
          "name": "tokenId",
          "type": "uint256"
        }
      ],
      "name": "getApproved",
      "outputs": [
        {
          "internalType": "address",
          "name": "",
          "type": "address"
        }
      ],
      "stateMutability": "view",
      "type": "function",
      "constant": true
    },
    {
      "inputs": [],
      "name": "imageTx",
      "outputs": [
        {
          "internalType": "string",
          "name": "",
          "type": "string"
        }
      ],
      "stateMutability": "view",
      "type": "function",
      "constant": true
    },
    {
      "inputs": [
        {
          "internalType": "address",
          "name": "owner",
          "type": "address"
        },
        {
          "internalType": "address",
          "name": "operator",
          "type": "address"
        }
      ],
      "name": "isApprovedForAll",
      "outputs": [
        {
          "internalType": "bool",
          "name": "",
          "type": "bool"
        }
      ],
      "stateMutability": "view",
      "type": "function",
      "constant": true
    },
    {
      "inputs": [],
      "name": "mark",
      "outputs": [
        {
          "internalType": "address",
          "name": "",
          "type": "address"
        }
      ],
      "stateMutability": "view",
      "type": "function",
      "constant": true
    },
    {
      "inputs": [],
      "name": "maxReserveSupply",
      "outputs": [
        {
          "internalType": "uint256",
          "name": "",
          "type": "uint256"
        }
      ],
      "stateMutability": "view",
      "type": "function",
      "constant": true
    },
    {
      "inputs": [],
      "name": "maxRockPurchase",
      "outputs": [
        {
          "internalType": "uint256",
          "name": "",
          "type": "uint256"
        }
      ],
      "stateMutability": "view",
      "type": "function",
      "constant": true
    },
    {
      "inputs": [],
      "name": "maxRockSupply",
      "outputs": [
        {
          "internalType": "uint256",
          "name": "",
          "type": "uint256"
        }
      ],
      "stateMutability": "view",
      "type": "function",
      "constant": true
    },
    {
      "inputs": [],
      "name": "metadataTx",
      "outputs": [
        {
          "internalType": "string",
          "name": "",
          "type": "string"
        }
      ],
      "stateMutability": "view",
      "type": "function",
      "constant": true
    },
    {
      "inputs": [],
      "name": "name",
      "outputs": [
        {
          "internalType": "string",
          "name": "",
          "type": "string"
        }
      ],
      "stateMutability": "view",
      "type": "function",
      "constant": true
    },
    {
      "inputs": [],
      "name": "owner",
      "outputs": [
        {
          "internalType": "address",
          "name": "",
          "type": "address"
        }
      ],
      "stateMutability": "view",
      "type": "function",
      "constant": true
    },
    {
      "inputs": [
        {
          "internalType": "uint256",
          "name": "tokenId",
          "type": "uint256"
        }
      ],
      "name": "ownerOf",
      "outputs": [
        {
          "internalType": "address",
          "name": "",
          "type": "address"
        }
      ],
      "stateMutability": "view",
      "type": "function",
      "constant": true
    },
    {
      "inputs": [],
      "name": "renounceOwnership",
      "outputs": [],
      "stateMutability": "nonpayable",
      "type": "function"
    },
    {
      "inputs": [],
      "name": "rockPrice",
      "outputs": [
        {
          "internalType": "uint256",
          "name": "",
          "type": "uint256"
        }
      ],
      "stateMutability": "view",
      "type": "function",
      "constant": true
    },
    {
      "inputs": [
        {
          "internalType": "address",
          "name": "from",
          "type": "address"
        },
        {
          "internalType": "address",
          "name": "to",
          "type": "address"
        },
        {
          "internalType": "uint256",
          "name": "tokenId",
          "type": "uint256"
        }
      ],
      "name": "safeTransferFrom",
      "outputs": [],
      "stateMutability": "nonpayable",
      "type": "function"
    },
    {
      "inputs": [
        {
          "internalType": "address",
          "name": "from",
          "type": "address"
        },
        {
          "internalType": "address",
          "name": "to",
          "type": "address"
        },
        {
          "internalType": "uint256",
          "name": "tokenId",
          "type": "uint256"
        },
        {
          "internalType": "bytes",
          "name": "_data",
          "type": "bytes"
        }
      ],
      "name": "safeTransferFrom",
      "outputs": [],
      "stateMutability": "nonpayable",
      "type": "function"
    },
    {
      "inputs": [],
      "name": "saleStartBlock",
      "outputs": [
        {
          "internalType": "uint256",
          "name": "",
          "type": "uint256"
        }
      ],
      "stateMutability": "view",
      "type": "function",
      "constant": true
    },
    {
      "inputs": [],
      "name": "sara",
      "outputs": [
        {
          "internalType": "address",
          "name": "",
          "type": "address"
        }
      ],
      "stateMutability": "view",
      "type": "function",
      "constant": true
    },
    {
      "inputs": [
        {
          "internalType": "address",
          "name": "operator",
          "type": "address"
        },
        {
          "internalType": "bool",
          "name": "approved",
          "type": "bool"
        }
      ],
      "name": "setApprovalForAll",
      "outputs": [],
      "stateMutability": "nonpayable",
      "type": "function"
    },
    {
      "inputs": [],
      "name": "shaun",
      "outputs": [
        {
          "internalType": "address",
          "name": "",
          "type": "address"
        }
      ],
      "stateMutability": "view",
      "type": "function",
      "constant": true
    },
    {
      "inputs": [],
      "name": "splitContract",
      "outputs": [
        {
          "internalType": "address payable",
          "name": "",
          "type": "address"
        }
      ],
      "stateMutability": "view",
      "type": "function",
      "constant": true
    },
    {
      "inputs": [
        {
          "internalType": "bytes4",
          "name": "interfaceId",
          "type": "bytes4"
        }
      ],
      "name": "supportsInterface",
      "outputs": [
        {
          "internalType": "bool",
          "name": "",
          "type": "bool"
        }
      ],
      "stateMutability": "view",
      "type": "function",
      "constant": true
    },
    {
      "inputs": [],
      "name": "symbol",
      "outputs": [
        {
          "internalType": "string",
          "name": "",
          "type": "string"
        }
      ],
      "stateMutability": "view",
      "type": "function",
      "constant": true
    },
    {
      "inputs": [
        {
          "internalType": "uint256",
          "name": "tokenId",
          "type": "uint256"
        }
      ],
      "name": "tokenURI",
      "outputs": [
        {
          "internalType": "string",
          "name": "",
          "type": "string"
        }
      ],
      "stateMutability": "view",
      "type": "function",
      "constant": true
    },
    {
      "inputs": [
        {
          "internalType": "address",
          "name": "from",
          "type": "address"
        },
        {
          "internalType": "address",
          "name": "to",
          "type": "address"
        },
        {
          "internalType": "uint256",
          "name": "tokenId",
          "type": "uint256"
        }
      ],
      "name": "transferFrom",
      "outputs": [],
      "stateMutability": "nonpayable",
      "type": "function"
    },
    {
      "inputs": [
        {
          "internalType": "address",
          "name": "newOwner",
          "type": "address"
        }
      ],
      "name": "transferOwnership",
      "outputs": [],
      "stateMutability": "nonpayable",
      "type": "function"
    },
    {
      "stateMutability": "payable",
      "type": "receive",
      "payable": true
    },
    {
      "inputs": [],
      "name": "saleStarted",
      "outputs": [
        {
          "internalType": "bool",
          "name": "",
          "type": "bool"
        }
      ],
      "stateMutability": "view",
      "type": "function",
      "constant": true
    },
    {
      "inputs": [
        {
          "internalType": "uint256",
          "name": "numberOfTokens",
          "type": "uint256"
        }
      ],
      "name": "reserveRocks",
      "outputs": [],
      "stateMutability": "nonpayable",
      "type": "function"
    },
    {
      "inputs": [
        {
          "internalType": "address",
          "name": "receiver",
          "type": "address"
        }
      ],
      "name": "giveAwayRock",
      "outputs": [],
      "stateMutability": "nonpayable",
      "type": "function"
    },
    {
      "inputs": [],
      "name": "getCurrentRockId",
      "outputs": [
        {
          "internalType": "uint256",
          "name": "currentRockId",
          "type": "uint256"
        }
      ],
      "stateMutability": "view",
      "type": "function",
      "constant": true
    },
    {
      "inputs": [],
      "name": "getCurrentReserveId",
      "outputs": [
        {
          "internalType": "uint256",
          "name": "currentRockId",
          "type": "uint256"
        }
      ],
      "stateMutability": "view",
      "type": "function",
      "constant": true
    },
    {
      "inputs": [
        {
          "internalType": "uint256",
          "name": "tokenId",
          "type": "uint256"
        }
      ],
      "name": "exists",
      "outputs": [
        {
          "internalType": "bool",
          "name": "",
          "type": "bool"
        }
      ],
      "stateMutability": "view",
      "type": "function",
      "constant": true
    },
    {
      "inputs": [
        {
          "internalType": "uint256",
          "name": "numberOfTokens",
          "type": "uint256"
        }
      ],
      "name": "mintRock",
      "outputs": [],
      "stateMutability": "payable",
      "type": "function",
      "payable": true
    },
    {
      "inputs": [
        {
          "internalType": "address",
          "name": "_owner",
          "type": "address"
        }
      ],
      "name": "getRocksByOwner",
      "outputs": [
        {
          "internalType": "uint256[]",
          "name": "",
          "type": "uint256[]"
        }
      ],
      "stateMutability": "view",
      "type": "function",
      "constant": true
    },
    {
      "inputs": [
        {
          "internalType": "address payable",
          "name": "_splitContract",
          "type": "address"
        }
      ],
      "name": "setRoyaltyContract",
      "outputs": [],
      "stateMutability": "nonpayable",
      "type": "function"
    },
    {
      "inputs": [
        {
          "internalType": "string",
          "name": "_baseUri",
          "type": "string"
        }
      ],
      "name": "setBaseUri",
      "outputs": [],
      "stateMutability": "nonpayable",
      "type": "function"
    },
    {
      "inputs": [
        {
          "internalType": "uint256",
          "name": "_saleStartBlock",
          "type": "uint256"
        }
      ],
      "name": "setSaleStartBlock",
      "outputs": [],
      "stateMutability": "nonpayable",
      "type": "function"
    },
    {
      "inputs": [
        {
          "internalType": "string",
          "name": "_imageTx",
          "type": "string"
        },
        {
          "internalType": "string",
          "name": "_metadataTx",
          "type": "string"
        }
      ],
      "name": "setProvenance",
      "outputs": [],
      "stateMutability": "nonpayable",
      "type": "function"
    },
    {
      "inputs": [
        {
          "internalType": "uint256",
          "name": "amount",
          "type": "uint256"
        }
      ],
      "name": "withdrawCommunity",
      "outputs": [],
      "stateMutability": "nonpayable",
      "type": "function"
    },
    {
      "inputs": [],
      "name": "withdrawTeam",
      "outputs": [],
      "stateMutability": "payable",
      "type": "function",
      "payable": true
    },
    {
      "inputs": [],
      "name": "withdrawRoyalties",
      "outputs": [],
      "stateMutability": "nonpayable",
      "type": "function"
    },
    {
      "inputs": [
        {
          "internalType": "contract IERC20",
          "name": "_token",
          "type": "address"
        },
        {
          "internalType": "uint256",
          "name": "_amount",
          "type": "uint256"
        }
      ],
      "name": "forwardERC20s",
      "outputs": [],
      "stateMutability": "nonpayable",
      "type": "function"
    },
    {
      "inputs": [
        {
          "internalType": "bytes",
          "name": "s",
          "type": "bytes"
        }
      ],
      "name": "uploadRockImages",
      "outputs": [],
      "stateMutability": "nonpayable",
      "type": "function"
    },
    {
      "inputs": [
        {
          "internalType": "bytes",
          "name": "s",
          "type": "bytes"
        }
      ],
      "name": "uploadRockAttributes",
      "outputs": [],
      "stateMutability": "nonpayable",
      "type": "function"
    }
  ],
  "bytecode": "0x608060405260405180602001604052806000815250600990805190602001906200002b92919062000214565b5060405180602001604052806000815250600a90805190602001906200005392919062000214565b5063072ae059600c553480156200006957600080fd5b50604051620052be380380620052be83398181016040528101906200008f919062000336565b6040518060400160405280600781526020017f53746f6e657273000000000000000000000000000000000000000000000000008152506040518060400160405280600481526020017f524f434b0000000000000000000000000000000000000000000000000000000081525081600090805190602001906200011392919062000214565b5080600190805190602001906200012c92919062000214565b5050506000620001416200020c60201b60201c565b905080600660006101000a81548173ffffffffffffffffffffffffffffffffffffffff021916908373ffffffffffffffffffffffffffffffffffffffff1602179055508073ffffffffffffffffffffffffffffffffffffffff16600073ffffffffffffffffffffffffffffffffffffffff167f8be0079c531659141344cd1fd0a4f28419497f9722a3daafe3b4186f6b6457e060405160405180910390a35080600b9080519060200190620001f892919062000214565b506101a460076000018190555050620004eb565b600033905090565b828054620002229062000410565b90600052602060002090601f01602090048101928262000246576000855562000292565b82601f106200026157805160ff191683800117855562000292565b8280016001018555821562000292579182015b828111156200029157825182559160200191906001019062000274565b5b509050620002a19190620002a5565b5090565b5b80821115620002c0576000816000905550600101620002a6565b5090565b6000620002db620002d584620003a4565b6200037b565b905082815260208101848484011115620002f457600080fd5b62000301848285620003da565b509392505050565b600082601f8301126200031b57600080fd5b81516200032d848260208601620002c4565b91505092915050565b6000602082840312156200034957600080fd5b600082015167ffffffffffffffff8111156200036457600080fd5b620003728482850162000309565b91505092915050565b6000620003876200039a565b905062000395828262000446565b919050565b6000604051905090565b600067ffffffffffffffff821115620003c257620003c1620004ab565b5b620003cd82620004da565b9050602081019050919050565b60005b83811015620003fa578082015181840152602081019050620003dd565b838111156200040a576000848401525b50505050565b600060028204905060018216806200042957607f821691505b6020821081141562000440576200043f6200047c565b5b50919050565b6200045182620004da565b810181811067ffffffffffffffff82111715620004735762000472620004ab565b5b80604052505050565b7f4e487b7100000000000000000000000000000000000000000000000000000000600052602260045260246000fd5b7f4e487b7100000000000000000000000000000000000000000000000000000000600052604160045260246000fd5b6000601f19601f8301169050919050565b614dc380620004fb6000396000f3fe6080604052600436106102975760003560e01c80639064a7eb1161015a578063bb51f32d116100c1578063dee8dc3e1161007a578063dee8dc3e146109c8578063e4226123146109e4578063e985e9c514610a0f578063f2fde38b14610a4c578063f7c1902914610a75578063fa7c31af14610aa05761029e565b8063bb51f32d146108d7578063c87b56dd146108e1578063cffb47cf1461091e578063d9aa187c14610949578063da7e336514610972578063dc1fb5a51461099d5761029e565b8063a1ab609b11610113578063a1ab609b146107db578063a22cb46514610806578063a71ffed91461082f578063a7fcf2501461085a578063ab17ef6114610885578063b88d4fde146108ae5761029e565b80639064a7eb146106e157806395d89b411461070a5780639727151a146107355780639abc83201461075e5780639ceeb71c14610789578063a0bcfc7f146107b25761029e565b806342842e0e116101fe57806370a08231116101b757806370a08231146105cf578063715018a61461060c57806389ae3139146106235780638c0d0c291461064e5780638da5cb5b146106795780638dd7ca46146106a45761029e565b806342842e0e146104af57806342966c68146104d85780634f558e791461050157806351599ccb1461053e5780635c474f9e146105675780636352211e146105925761029e565b8063200272751161025057806320027275146103c757806321c34fcb146103f257806323b872dd14610409578063384c8eed1461043257806338c410b51461045b5780633a51cd80146104845761029e565b806301ffc9a7146102a357806306fdde03146102e0578063081812fc1461030b578063095ea7b314610348578063160928d314610371578063167fe9be1461039c5761029e565b3661029e57005b600080fd5b3480156102af57600080fd5b506102ca60048036038101906102c591906138b5565b610ac9565b6040516102d79190613fb5565b60405180910390f35b3480156102ec57600080fd5b506102f5610bab565b6040516103029190613fd0565b60405180910390f35b34801561031757600080fd5b50610332600480360381019061032d9190613a35565b610c3d565b60405161033f9190613ee8565b60405180910390f35b34801561035457600080fd5b5061036f600480360381019061036a9190613850565b610cc2565b005b34801561037d57600080fd5b50610386610dda565b60405161039391906142b2565b60405180910390f35b3480156103a857600080fd5b506103b1610deb565b6040516103be91906142b2565b60405180910390f35b3480156103d357600080fd5b506103dc610df1565b6040516103e991906142b2565b60405180910390f35b3480156103fe57600080fd5b50610407610df7565b005b34801561041557600080fd5b50610430600480360381019061042b919061374a565b610ef7565b005b34801561043e57600080fd5b5061045960048036038101906104549190613907565b610f57565b005b34801561046757600080fd5b50610482600480360381019061047d91906139c9565b610fd7565b005b34801561049057600080fd5b50610499611085565b6040516104a69190613ee8565b60405180910390f35b3480156104bb57600080fd5b506104d660048036038101906104d1919061374a565b61109c565b005b3480156104e457600080fd5b506104ff60048036038101906104fa9190613a35565b6110bc565b005b34801561050d57600080fd5b5061052860048036038101906105239190613a35565b611118565b6040516105359190613fb5565b60405180910390f35b34801561054a57600080fd5b50610565600480360381019061056091906136bc565b61112a565b005b34801561057357600080fd5b5061057c611233565b6040516105899190613fb5565b60405180910390f35b34801561059e57600080fd5b506105b960048036038101906105b49190613a35565b611240565b6040516105c69190613ee8565b60405180910390f35b3480156105db57600080fd5b506105f660048036038101906105f191906136bc565b6112f2565b60405161060391906142b2565b60405180910390f35b34801561061857600080fd5b506106216113aa565b005b34801561062f57600080fd5b506106386114e7565b6040516106459190613ee8565b60405180910390f35b34801561065a57600080fd5b506106636114ff565b6040516106709190613ee8565b60405180910390f35b34801561068557600080fd5b5061068e611517565b60405161069b9190613ee8565b60405180910390f35b3480156106b057600080fd5b506106cb60048036038101906106c691906136bc565b611541565b6040516106d89190613f93565b60405180910390f35b3480156106ed57600080fd5b5061070860048036038101906107039190613907565b611724565b005b34801561071657600080fd5b5061071f6117a4565b60405161072c9190613fd0565b60405180910390f35b34801561074157600080fd5b5061075c6004803603810190610757919061394c565b611836565b005b34801561076a57600080fd5b50610773611944565b6040516107809190613fd0565b60405180910390f35b34801561079557600080fd5b506107b060048036038101906107ab9190613a35565b6119d2565b005b3480156107be57600080fd5b506107d960048036038101906107d49190613988565b611aa0565b005b3480156107e757600080fd5b506107f0611b36565b6040516107fd9190613f03565b60405180910390f35b34801561081257600080fd5b5061082d60048036038101906108289190613814565b611b5c565b005b34801561083b57600080fd5b50610844611cdd565b6040516108519190613fd0565b60405180910390f35b34801561086657600080fd5b5061086f611d6b565b60405161087c91906142b2565b60405180910390f35b34801561089157600080fd5b506108ac60048036038101906108a79190613a35565b611d7c565b005b3480156108ba57600080fd5b506108d560048036038101906108d09190613799565b611ee7565b005b6108df611f49565b005b3480156108ed57600080fd5b5061090860048036038101906109039190613a35565b6120ce565b6040516109159190613fd0565b60405180910390f35b34801561092a57600080fd5b50610933612175565b60405161094091906142b2565b60405180910390f35b34801561095557600080fd5b50610970600480360381019061096b91906136e5565b61217b565b005b34801561097e57600080fd5b5061098761223b565b60405161099491906142b2565b60405180910390f35b3480156109a957600080fd5b506109b2612240565b6040516109bf9190613ee8565b60405180910390f35b6109e260048036038101906109dd9190613a35565b612258565b005b3480156109f057600080fd5b506109f96123ea565b604051610a0691906142b2565b60405180910390f35b348015610a1b57600080fd5b50610a366004803603810190610a31919061370e565b6123f5565b604051610a439190613fb5565b60405180910390f35b348015610a5857600080fd5b50610a736004803603810190610a6e91906136bc565b612489565b005b348015610a8157600080fd5b50610a8a612635565b604051610a979190613fd0565b60405180910390f35b348015610aac57600080fd5b50610ac76004803603810190610ac29190613a35565b6126c3565b005b60007f80ac58cd000000000000000000000000000000000000000000000000000000007bffffffffffffffffffffffffffffffffffffffffffffffffffffffff1916827bffffffffffffffffffffffffffffffffffffffffffffffffffffffff19161480610b9457507f5b5e139f000000000000000000000000000000000000000000000000000000007bffffffffffffffffffffffffffffffffffffffffffffffffffffffff1916827bffffffffffffffffffffffffffffffffffffffffffffffffffffffff1916145b80610ba45750610ba382612794565b5b9050919050565b606060008054610bba906145bf565b80601f0160208091040260200160405190810160405280929190818152602001828054610be6906145bf565b8015610c335780601f10610c0857610100808354040283529160200191610c33565b820191906000526020600020905b815481529060010190602001808311610c1657829003601f168201915b5050505050905090565b6000610c48826127fe565b610c87576040517f08c379a0000000000000000000000000000000000000000000000000000000008152600401610c7e90614172565b60405180910390fd5b6004600083815260200190815260200160002060009054906101000a900473ffffffffffffffffffffffffffffffffffffffff169050919050565b6000610ccd82611240565b90508073ffffffffffffffffffffffffffffffffffffffff168373ffffffffffffffffffffffffffffffffffffffff161415610d3e576040517f08c379a0000000000000000000000000000000000000000000000000000000008152600401610d3590614212565b60405180910390fd5b8073ffffffffffffffffffffffffffffffffffffffff16610d5d61286a565b73ffffffffffffffffffffffffffffffffffffffff161480610d8c5750610d8b81610d8661286a565b6123f5565b5b610dcb576040517f08c379a0000000000000000000000000000000000000000000000000000000008152600401610dc2906140d2565b60405180910390fd5b610dd58383612872565b505050565b6000610de6600761292b565b905090565b6128b481565b600c5481565b610dff61286a565b73ffffffffffffffffffffffffffffffffffffffff16610e1d611517565b73ffffffffffffffffffffffffffffffffffffffff1614610e73576040517f08c379a0000000000000000000000000000000000000000000000000000000008152600401610e6a90614192565b60405180910390fd5b600d60009054906101000a900473ffffffffffffffffffffffffffffffffffffffff1673ffffffffffffffffffffffffffffffffffffffff166386d1a69f6040518163ffffffff1660e01b8152600401600060405180830381600087803b158015610edd57600080fd5b505af1158015610ef1573d6000803e3d6000fd5b50505050565b610f08610f0261286a565b82612939565b610f47576040517f08c379a0000000000000000000000000000000000000000000000000000000008152600401610f3e90614232565b60405180910390fd5b610f52838383612a17565b505050565b610f5f61286a565b73ffffffffffffffffffffffffffffffffffffffff16610f7d611517565b73ffffffffffffffffffffffffffffffffffffffff1614610fd3576040517f08c379a0000000000000000000000000000000000000000000000000000000008152600401610fca90614192565b60405180910390fd5b5050565b610fdf61286a565b73ffffffffffffffffffffffffffffffffffffffff16610ffd611517565b73ffffffffffffffffffffffffffffffffffffffff1614611053576040517f08c379a000000000000000000000000000000000000000000000000000000000815260040161104a90614192565b60405180910390fd5b8160099080519060200190611069929190613457565b5080600a9080519060200190611080929190613457565b505050565b72796e910bd0228ddf4cd79e3f353871a61c351c81565b6110b783838360405180602001604052806000815250611ee7565b505050565b6110cd6110c761286a565b82612939565b61110c576040517f08c379a000000000000000000000000000000000000000000000000000000000815260040161110390614272565b60405180910390fd5b61111581612c73565b50565b6000611123826127fe565b9050919050565b61113261286a565b73ffffffffffffffffffffffffffffffffffffffff16611150611517565b73ffffffffffffffffffffffffffffffffffffffff16146111a6576040517f08c379a000000000000000000000000000000000000000000000000000000000815260040161119d90614192565b60405180910390fd5b60006111b2600861292b565b90506101a46111cb600183612d8490919063ffffffff16565b111561120c576040517f08c379a000000000000000000000000000000000000000000000000000000000815260040161120390614292565b60405180910390fd5b6112166008612d9a565b6000611222600861292b565b905061122e8382612db0565b505050565b6000600c54431015905090565b6000806002600084815260200190815260200160002060009054906101000a900473ffffffffffffffffffffffffffffffffffffffff169050600073ffffffffffffffffffffffffffffffffffffffff168173ffffffffffffffffffffffffffffffffffffffff1614156112e9576040517f08c379a00000000000000000000000000000000000000000000000000000000081526004016112e090614112565b60405180910390fd5b80915050919050565b60008073ffffffffffffffffffffffffffffffffffffffff168273ffffffffffffffffffffffffffffffffffffffff161415611363576040517f08c379a000000000000000000000000000000000000000000000000000000000815260040161135a906140f2565b60405180910390fd5b600360008373ffffffffffffffffffffffffffffffffffffffff1673ffffffffffffffffffffffffffffffffffffffff168152602001908152602001600020549050919050565b6113b261286a565b73ffffffffffffffffffffffffffffffffffffffff166113d0611517565b73ffffffffffffffffffffffffffffffffffffffff1614611426576040517f08c379a000000000000000000000000000000000000000000000000000000000815260040161141d90614192565b60405180910390fd5b600073ffffffffffffffffffffffffffffffffffffffff16600660009054906101000a900473ffffffffffffffffffffffffffffffffffffffff1673ffffffffffffffffffffffffffffffffffffffff167f8be0079c531659141344cd1fd0a4f28419497f9722a3daafe3b4186f6b6457e060405160405180910390a36000600660006101000a81548173ffffffffffffffffffffffffffffffffffffffff021916908373ffffffffffffffffffffffffffffffffffffffff160217905550565b737fc55376d5a29e0ee86c18c81bb2fc8f9f490e5081565b73b58fb5372e9aa0c86c3b281179c05af3bb7a181b81565b6000600660009054906101000a900473ffffffffffffffffffffffffffffffffffffffff16905090565b6060600061154e836112f2565b905060008114156115d157600067ffffffffffffffff81111561159a577f4e487b7100000000000000000000000000000000000000000000000000000000600052604160045260246000fd5b6040519080825280602002602001820160405280156115c85781602001602082028036833780820191505090505b5091505061171f565b60008167ffffffffffffffff811115611613577f4e487b7100000000000000000000000000000000000000000000000000000000600052604160045260246000fd5b6040519080825280602002602001820160405280156116415781602001602082028036833780820191505090505b5090506000611650600761292b565b9050600080600190505b8281116117165761166a816127fe565b80156116a957508673ffffffffffffffffffffffffffffffffffffffff1661169182611240565b73ffffffffffffffffffffffffffffffffffffffff16145b1561170357808483815181106116e8577f4e487b7100000000000000000000000000000000000000000000000000000000600052603260045260246000fd5b60200260200101818152505081806116ff90614622565b9250505b808061170e90614622565b91505061165a565b50829450505050505b919050565b61172c61286a565b73ffffffffffffffffffffffffffffffffffffffff1661174a611517565b73ffffffffffffffffffffffffffffffffffffffff16146117a0576040517f08c379a000000000000000000000000000000000000000000000000000000000815260040161179790614192565b60405180910390fd5b5050565b6060600180546117b3906145bf565b80601f01602080910402602001604051908101604052809291908181526020018280546117df906145bf565b801561182c5780601f106118015761010080835404028352916020019161182c565b820191906000526020600020905b81548152906001019060200180831161180f57829003601f168201915b5050505050905090565b61183e61286a565b73ffffffffffffffffffffffffffffffffffffffff1661185c611517565b73ffffffffffffffffffffffffffffffffffffffff16146118b2576040517f08c379a00000000000000000000000000000000000000000000000000000000081526004016118a990614192565b60405180910390fd5b8173ffffffffffffffffffffffffffffffffffffffff1663a9059cbb33836040518363ffffffff1660e01b81526004016118ed929190613f6a565b602060405180830381600087803b15801561190757600080fd5b505af115801561191b573d6000803e3d6000fd5b505050506040513d601f19601f8201168201806040525081019061193f919061388c565b505050565b600b8054611951906145bf565b80601f016020809104026020016040519081016040528092919081815260200182805461197d906145bf565b80156119ca5780601f1061199f576101008083540402835291602001916119ca565b820191906000526020600020905b8154815290600101906020018083116119ad57829003601f168201915b505050505081565b6119da61286a565b73ffffffffffffffffffffffffffffffffffffffff166119f8611517565b73ffffffffffffffffffffffffffffffffffffffff1614611a4e576040517f08c379a0000000000000000000000000000000000000000000000000000000008152600401611a4590614192565b60405180910390fd5b611a56611233565b15611a96576040517f08c379a0000000000000000000000000000000000000000000000000000000008152600401611a8d906141d2565b60405180910390fd5b80600c8190555050565b611aa861286a565b73ffffffffffffffffffffffffffffffffffffffff16611ac6611517565b73ffffffffffffffffffffffffffffffffffffffff1614611b1c576040517f08c379a0000000000000000000000000000000000000000000000000000000008152600401611b1390614192565b60405180910390fd5b80600b9080519060200190611b32929190613457565b5050565b600d60009054906101000a900473ffffffffffffffffffffffffffffffffffffffff1681565b611b6461286a565b73ffffffffffffffffffffffffffffffffffffffff168273ffffffffffffffffffffffffffffffffffffffff161415611bd2576040517f08c379a0000000000000000000000000000000000000000000000000000000008152600401611bc990614092565b60405180910390fd5b8060056000611bdf61286a565b73ffffffffffffffffffffffffffffffffffffffff1673ffffffffffffffffffffffffffffffffffffffff16815260200190815260200160002060008473ffffffffffffffffffffffffffffffffffffffff1673ffffffffffffffffffffffffffffffffffffffff16815260200190815260200160002060006101000a81548160ff0219169083151502179055508173ffffffffffffffffffffffffffffffffffffffff16611c8c61286a565b73ffffffffffffffffffffffffffffffffffffffff167f17307eab39ab6107e8899845ad3d59bd9653f200f220920489ca2b5937696c3183604051611cd19190613fb5565b60405180910390a35050565b60098054611cea906145bf565b80601f0160208091040260200160405190810160405280929190818152602001828054611d16906145bf565b8015611d635780601f10611d3857610100808354040283529160200191611d63565b820191906000526020600020905b815481529060010190602001808311611d4657829003601f168201915b505050505081565b6000611d77600861292b565b905090565b611d8461286a565b73ffffffffffffffffffffffffffffffffffffffff16611da2611517565b73ffffffffffffffffffffffffffffffffffffffff1614611df8576040517f08c379a0000000000000000000000000000000000000000000000000000000008152600401611def90614192565b60405180910390fd5b6000611e04600861292b565b90506014821115611e4a576040517f08c379a0000000000000000000000000000000000000000000000000000000008152600401611e4190613ff2565b60405180910390fd5b6101a4611e608383612d8490919063ffffffff16565b1115611ea1576040517f08c379a0000000000000000000000000000000000000000000000000000000008152600401611e9890614292565b60405180910390fd5b60005b82811015611ee257611eb66008612d9a565b6000611ec2600861292b565b9050611ece3382612db0565b508080611eda90614622565b915050611ea4565b505050565b611ef8611ef261286a565b83612939565b611f37576040517f08c379a0000000000000000000000000000000000000000000000000000000008152600401611f2e90614232565b60405180910390fd5b611f4384848484612dce565b50505050565b611f5161286a565b73ffffffffffffffffffffffffffffffffffffffff16611f6f611517565b73ffffffffffffffffffffffffffffffffffffffff1614611fc5576040517f08c379a0000000000000000000000000000000000000000000000000000000008152600401611fbc90614192565b60405180910390fd5b6000600447611fd49190614426565b905072796e910bd0228ddf4cd79e3f353871a61c351c73ffffffffffffffffffffffffffffffffffffffff166108fc829081150290604051600060405180830381858888f1935050505061202757600080fd5b737fc55376d5a29e0ee86c18c81bb2fc8f9f490e5073ffffffffffffffffffffffffffffffffffffffff166108fc829081150290604051600060405180830381858888f1935050505061207957600080fd5b73b58fb5372e9aa0c86c3b281179c05af3bb7a181b73ffffffffffffffffffffffffffffffffffffffff166108fc829081150290604051600060405180830381858888f193505050506120cb57600080fd5b50565b60606120d9826127fe565b612118576040517f08c379a000000000000000000000000000000000000000000000000000000000815260040161210f906141f2565b60405180910390fd5b6000612122612e2a565b90506000815111612142576040518060200160405280600081525061216d565b8061214c84612ebc565b60405160200161215d929190613ec4565b6040516020818303038152906040525b915050919050565b6101a481565b61218361286a565b73ffffffffffffffffffffffffffffffffffffffff166121a1611517565b73ffffffffffffffffffffffffffffffffffffffff16146121f7576040517f08c379a00000000000000000000000000000000000000000000000000000000081526004016121ee90614192565b60405180910390fd5b80600d60006101000a81548173ffffffffffffffffffffffffffffffffffffffff021916908373ffffffffffffffffffffffffffffffffffffffff16021790555050565b601481565b73b58fb5372e9aa0c86c3b281179c05af3bb7a181b81565b6000612264600761292b565b905061226e611233565b6122ad576040517f08c379a00000000000000000000000000000000000000000000000000000000081526004016122a490614252565b60405180910390fd5b60148211156122f1576040517f08c379a00000000000000000000000000000000000000000000000000000000081526004016122e890613ff2565b60405180910390fd5b6128b46123078383612d8490919063ffffffff16565b1115612348576040517f08c379a000000000000000000000000000000000000000000000000000000000815260040161233f90614292565b60405180910390fd5b346123638366957588590e500061306990919063ffffffff16565b11156123a4576040517f08c379a000000000000000000000000000000000000000000000000000000000815260040161239b90614132565b60405180910390fd5b60005b828110156123e5576123b96007612d9a565b60006123c5600761292b565b90506123d13382612db0565b5080806123dd90614622565b9150506123a7565b505050565b66957588590e500081565b6000600560008473ffffffffffffffffffffffffffffffffffffffff1673ffffffffffffffffffffffffffffffffffffffff16815260200190815260200160002060008373ffffffffffffffffffffffffffffffffffffffff1673ffffffffffffffffffffffffffffffffffffffff16815260200190815260200160002060009054906101000a900460ff16905092915050565b61249161286a565b73ffffffffffffffffffffffffffffffffffffffff166124af611517565b73ffffffffffffffffffffffffffffffffffffffff1614612505576040517f08c379a00000000000000000000000000000000000000000000000000000000081526004016124fc90614192565b60405180910390fd5b600073ffffffffffffffffffffffffffffffffffffffff168173ffffffffffffffffffffffffffffffffffffffff161415612575576040517f08c379a000000000000000000000000000000000000000000000000000000000815260040161256c90614032565b60405180910390fd5b8073ffffffffffffffffffffffffffffffffffffffff16600660009054906101000a900473ffffffffffffffffffffffffffffffffffffffff1673ffffffffffffffffffffffffffffffffffffffff167f8be0079c531659141344cd1fd0a4f28419497f9722a3daafe3b4186f6b6457e060405160405180910390a380600660006101000a81548173ffffffffffffffffffffffffffffffffffffffff021916908373ffffffffffffffffffffffffffffffffffffffff16021790555050565b600a8054612642906145bf565b80601f016020809104026020016040519081016040528092919081815260200182805461266e906145bf565b80156126bb5780601f10612690576101008083540402835291602001916126bb565b820191906000526020600020905b81548152906001019060200180831161269e57829003601f168201915b505050505081565b6126cb61286a565b73ffffffffffffffffffffffffffffffffffffffff166126e9611517565b73ffffffffffffffffffffffffffffffffffffffff161461273f576040517f08c379a000000000000000000000000000000000000000000000000000000000815260040161273690614192565b60405180910390fd5b73b58fb5372e9aa0c86c3b281179c05af3bb7a181b73ffffffffffffffffffffffffffffffffffffffff166108fc829081150290604051600060405180830381858888f1935050505061279157600080fd5b50565b60007f01ffc9a7000000000000000000000000000000000000000000000000000000007bffffffffffffffffffffffffffffffffffffffffffffffffffffffff1916827bffffffffffffffffffffffffffffffffffffffffffffffffffffffff1916149050919050565b60008073ffffffffffffffffffffffffffffffffffffffff166002600084815260200190815260200160002060009054906101000a900473ffffffffffffffffffffffffffffffffffffffff1673ffffffffffffffffffffffffffffffffffffffff1614159050919050565b600033905090565b816004600083815260200190815260200160002060006101000a81548173ffffffffffffffffffffffffffffffffffffffff021916908373ffffffffffffffffffffffffffffffffffffffff160217905550808273ffffffffffffffffffffffffffffffffffffffff166128e583611240565b73ffffffffffffffffffffffffffffffffffffffff167f8c5be1e5ebec7d5bd14f71427d1e84f3dd0314c0f7b2291e5b200ac8c7c3b92560405160405180910390a45050565b600081600001549050919050565b6000612944826127fe565b612983576040517f08c379a000000000000000000000000000000000000000000000000000000000815260040161297a906140b2565b60405180910390fd5b600061298e83611240565b90508073ffffffffffffffffffffffffffffffffffffffff168473ffffffffffffffffffffffffffffffffffffffff1614806129fd57508373ffffffffffffffffffffffffffffffffffffffff166129e584610c3d565b73ffffffffffffffffffffffffffffffffffffffff16145b80612a0e5750612a0d81856123f5565b5b91505092915050565b8273ffffffffffffffffffffffffffffffffffffffff16612a3782611240565b73ffffffffffffffffffffffffffffffffffffffff1614612a8d576040517f08c379a0000000000000000000000000000000000000000000000000000000008152600401612a84906141b2565b60405180910390fd5b600073ffffffffffffffffffffffffffffffffffffffff168273ffffffffffffffffffffffffffffffffffffffff161415612afd576040517f08c379a0000000000000000000000000000000000000000000000000000000008152600401612af490614072565b60405180910390fd5b612b0883838361307f565b612b13600082612872565b6001600360008573ffffffffffffffffffffffffffffffffffffffff1673ffffffffffffffffffffffffffffffffffffffff1681526020019081526020016000206000828254612b6391906144b1565b925050819055506001600360008473ffffffffffffffffffffffffffffffffffffffff1673ffffffffffffffffffffffffffffffffffffffff1681526020019081526020016000206000828254612bba91906143d0565b92505081905550816002600083815260200190815260200160002060006101000a81548173ffffffffffffffffffffffffffffffffffffffff021916908373ffffffffffffffffffffffffffffffffffffffff160217905550808273ffffffffffffffffffffffffffffffffffffffff168473ffffffffffffffffffffffffffffffffffffffff167fddf252ad1be2c89b69c2b068fc378daa952ba7f163c4a11628f55a4df523b3ef60405160405180910390a4505050565b6000612c7e82611240565b9050612c8c8160008461307f565b612c97600083612872565b6001600360008373ffffffffffffffffffffffffffffffffffffffff1673ffffffffffffffffffffffffffffffffffffffff1681526020019081526020016000206000828254612ce791906144b1565b925050819055506002600083815260200190815260200160002060006101000a81549073ffffffffffffffffffffffffffffffffffffffff021916905581600073ffffffffffffffffffffffffffffffffffffffff168273ffffffffffffffffffffffffffffffffffffffff167fddf252ad1be2c89b69c2b068fc378daa952ba7f163c4a11628f55a4df523b3ef60405160405180910390a45050565b60008183612d9291906143d0565b905092915050565b6001816000016000828254019250508190555050565b612dca828260405180602001604052806000815250613084565b5050565b612dd9848484612a17565b612de5848484846130df565b612e24576040517f08c379a0000000000000000000000000000000000000000000000000000000008152600401612e1b90614012565b60405180910390fd5b50505050565b6060600b8054612e39906145bf565b80601f0160208091040260200160405190810160405280929190818152602001828054612e65906145bf565b8015612eb25780601f10612e8757610100808354040283529160200191612eb2565b820191906000526020600020905b815481529060010190602001808311612e9557829003601f168201915b5050505050905090565b60606000821415612f04576040518060400160405280600181526020017f30000000000000000000000000000000000000000000000000000000000000008152509050613064565b600082905060005b60008214612f36578080612f1f90614622565b915050600a82612f2f9190614426565b9150612f0c565b60008167ffffffffffffffff811115612f78577f4e487b7100000000000000000000000000000000000000000000000000000000600052604160045260246000fd5b6040519080825280601f01601f191660200182016040528015612faa5781602001600182028036833780820191505090505b5090505b6000851461305d57600182612fc391906144b1565b9150600a85612fd2919061466b565b6030612fde91906143d0565b60f81b81838151811061301a577f4e487b7100000000000000000000000000000000000000000000000000000000600052603260045260246000fd5b60200101907effffffffffffffffffffffffffffffffffffffffffffffffffffffffffffff1916908160001a905350600a856130569190614426565b9450612fae565b8093505050505b919050565b600081836130779190614457565b905092915050565b505050565b61308e8383613276565b61309b60008484846130df565b6130da576040517f08c379a00000000000000000000000000000000000000000000000000000000081526004016130d190614012565b60405180910390fd5b505050565b60006131008473ffffffffffffffffffffffffffffffffffffffff16613444565b15613269578373ffffffffffffffffffffffffffffffffffffffff1663150b7a0261312961286a565b8786866040518563ffffffff1660e01b815260040161314b9493929190613f1e565b602060405180830381600087803b15801561316557600080fd5b505af192505050801561319657506040513d601f19601f8201168201806040525081019061319391906138de565b60015b613219573d80600081146131c6576040519150601f19603f3d011682016040523d82523d6000602084013e6131cb565b606091505b50600081511415613211576040517f08c379a000000000000000000000000000000000000000000000000000000000815260040161320890614012565b60405180910390fd5b805181602001fd5b63150b7a0260e01b7bffffffffffffffffffffffffffffffffffffffffffffffffffffffff1916817bffffffffffffffffffffffffffffffffffffffffffffffffffffffff19161491505061326e565b600190505b949350505050565b600073ffffffffffffffffffffffffffffffffffffffff168273ffffffffffffffffffffffffffffffffffffffff1614156132e6576040517f08c379a00000000000000000000000000000000000000000000000000000000081526004016132dd90614152565b60405180910390fd5b6132ef816127fe565b1561332f576040517f08c379a000000000000000000000000000000000000000000000000000000000815260040161332690614052565b60405180910390fd5b61333b6000838361307f565b6001600360008473ffffffffffffffffffffffffffffffffffffffff1673ffffffffffffffffffffffffffffffffffffffff168152602001908152602001600020600082825461338b91906143d0565b92505081905550816002600083815260200190815260200160002060006101000a81548173ffffffffffffffffffffffffffffffffffffffff021916908373ffffffffffffffffffffffffffffffffffffffff160217905550808273ffffffffffffffffffffffffffffffffffffffff16600073ffffffffffffffffffffffffffffffffffffffff167fddf252ad1be2c89b69c2b068fc378daa952ba7f163c4a11628f55a4df523b3ef60405160405180910390a45050565b600080823b905060008111915050919050565b828054613463906145bf565b90600052602060002090601f01602090048101928261348557600085556134cc565b82601f1061349e57805160ff19168380011785556134cc565b828001600101855582156134cc579182015b828111156134cb5782518255916020019190600101906134b0565b5b5090506134d991906134dd565b5090565b5b808211156134f65760008160009055506001016134de565b5090565b600061350d613508846142f2565b6142cd565b90508281526020810184848401111561352557600080fd5b61353084828561457d565b509392505050565b600061354b61354684614323565b6142cd565b90508281526020810184848401111561356357600080fd5b61356e84828561457d565b509392505050565b60008135905061358581614d03565b92915050565b60008135905061359a81614d1a565b92915050565b6000813590506135af81614d31565b92915050565b6000815190506135c481614d31565b92915050565b6000813590506135d981614d48565b92915050565b6000815190506135ee81614d48565b92915050565b60008083601f84011261360657600080fd5b8235905067ffffffffffffffff81111561361f57600080fd5b60208301915083600182028301111561363757600080fd5b9250929050565b600082601f83011261364f57600080fd5b813561365f8482602086016134fa565b91505092915050565b60008135905061367781614d5f565b92915050565b600082601f83011261368e57600080fd5b813561369e848260208601613538565b91505092915050565b6000813590506136b681614d76565b92915050565b6000602082840312156136ce57600080fd5b60006136dc84828501613576565b91505092915050565b6000602082840312156136f757600080fd5b60006137058482850161358b565b91505092915050565b6000806040838503121561372157600080fd5b600061372f85828601613576565b925050602061374085828601613576565b9150509250929050565b60008060006060848603121561375f57600080fd5b600061376d86828701613576565b935050602061377e86828701613576565b925050604061378f868287016136a7565b9150509250925092565b600080600080608085870312156137af57600080fd5b60006137bd87828801613576565b94505060206137ce87828801613576565b93505060406137df878288016136a7565b925050606085013567ffffffffffffffff8111156137fc57600080fd5b6138088782880161363e565b91505092959194509250565b6000806040838503121561382757600080fd5b600061383585828601613576565b9250506020613846858286016135a0565b9150509250929050565b6000806040838503121561386357600080fd5b600061387185828601613576565b9250506020613882858286016136a7565b9150509250929050565b60006020828403121561389e57600080fd5b60006138ac848285016135b5565b91505092915050565b6000602082840312156138c757600080fd5b60006138d5848285016135ca565b91505092915050565b6000602082840312156138f057600080fd5b60006138fe848285016135df565b91505092915050565b6000806020838503121561391a57600080fd5b600083013567ffffffffffffffff81111561393457600080fd5b613940858286016135f4565b92509250509250929050565b6000806040838503121561395f57600080fd5b600061396d85828601613668565b925050602061397e858286016136a7565b9150509250929050565b60006020828403121561399a57600080fd5b600082013567ffffffffffffffff8111156139b457600080fd5b6139c08482850161367d565b91505092915050565b600080604083850312156139dc57600080fd5b600083013567ffffffffffffffff8111156139f657600080fd5b613a028582860161367d565b925050602083013567ffffffffffffffff811115613a1f57600080fd5b613a2b8582860161367d565b9150509250929050565b600060208284031215613a4757600080fd5b6000613a55848285016136a7565b91505092915050565b6000613a6a8383613ea6565b60208301905092915050565b613a7f816144f7565b82525050565b613a8e816144e5565b82525050565b6000613a9f82614364565b613aa98185614392565b9350613ab483614354565b8060005b83811015613ae5578151613acc8882613a5e565b9750613ad783614385565b925050600181019050613ab8565b5085935050505092915050565b613afb81614509565b82525050565b6000613b0c8261436f565b613b1681856143a3565b9350613b2681856020860161458c565b613b2f81614758565b840191505092915050565b6000613b458261437a565b613b4f81856143b4565b9350613b5f81856020860161458c565b613b6881614758565b840191505092915050565b6000613b7e8261437a565b613b8881856143c5565b9350613b9881856020860161458c565b80840191505092915050565b6000613bb1600b836143b4565b9150613bbc82614769565b602082019050919050565b6000613bd46032836143b4565b9150613bdf82614792565b604082019050919050565b6000613bf76026836143b4565b9150613c02826147e1565b604082019050919050565b6000613c1a601c836143b4565b9150613c2582614830565b602082019050919050565b6000613c3d6024836143b4565b9150613c4882614859565b604082019050919050565b6000613c606019836143b4565b9150613c6b826148a8565b602082019050919050565b6000613c83602c836143b4565b9150613c8e826148d1565b604082019050919050565b6000613ca66038836143b4565b9150613cb182614920565b604082019050919050565b6000613cc9602a836143b4565b9150613cd48261496f565b604082019050919050565b6000613cec6029836143b4565b9150613cf7826149be565b604082019050919050565b6000613d0f6011836143b4565b9150613d1a82614a0d565b602082019050919050565b6000613d326020836143b4565b9150613d3d82614a36565b602082019050919050565b6000613d55602c836143b4565b9150613d6082614a5f565b604082019050919050565b6000613d786020836143b4565b9150613d8382614aae565b602082019050919050565b6000613d9b6029836143b4565b9150613da682614ad7565b604082019050919050565b6000613dbe6034836143b4565b9150613dc982614b26565b604082019050919050565b6000613de1602f836143b4565b9150613dec82614b75565b604082019050919050565b6000613e046021836143b4565b9150613e0f82614bc4565b604082019050919050565b6000613e276031836143b4565b9150613e3282614c13565b604082019050919050565b6000613e4a601b836143b4565b9150613e5582614c62565b602082019050919050565b6000613e6d6030836143b4565b9150613e7882614c8b565b604082019050919050565b6000613e906015836143b4565b9150613e9b82614cda565b602082019050919050565b613eaf81614573565b82525050565b613ebe81614573565b82525050565b6000613ed08285613b73565b9150613edc8284613b73565b91508190509392505050565b6000602082019050613efd6000830184613a85565b92915050565b6000602082019050613f186000830184613a76565b92915050565b6000608082019050613f336000830187613a85565b613f406020830186613a85565b613f4d6040830185613eb5565b8181036060830152613f5f8184613b01565b905095945050505050565b6000604082019050613f7f6000830185613a85565b613f8c6020830184613eb5565b9392505050565b60006020820190508181036000830152613fad8184613a94565b905092915050565b6000602082019050613fca6000830184613af2565b92915050565b60006020820190508181036000830152613fea8184613b3a565b905092915050565b6000602082019050818103600083015261400b81613ba4565b9050919050565b6000602082019050818103600083015261402b81613bc7565b9050919050565b6000602082019050818103600083015261404b81613bea565b9050919050565b6000602082019050818103600083015261406b81613c0d565b9050919050565b6000602082019050818103600083015261408b81613c30565b9050919050565b600060208201905081810360008301526140ab81613c53565b9050919050565b600060208201905081810360008301526140cb81613c76565b9050919050565b600060208201905081810360008301526140eb81613c99565b9050919050565b6000602082019050818103600083015261410b81613cbc565b9050919050565b6000602082019050818103600083015261412b81613cdf565b9050919050565b6000602082019050818103600083015261414b81613d02565b9050919050565b6000602082019050818103600083015261416b81613d25565b9050919050565b6000602082019050818103600083015261418b81613d48565b9050919050565b600060208201905081810360008301526141ab81613d6b565b9050919050565b600060208201905081810360008301526141cb81613d8e565b9050919050565b600060208201905081810360008301526141eb81613db1565b9050919050565b6000602082019050818103600083015261420b81613dd4565b9050919050565b6000602082019050818103600083015261422b81613df7565b9050919050565b6000602082019050818103600083015261424b81613e1a565b9050919050565b6000602082019050818103600083015261426b81613e3d565b9050919050565b6000602082019050818103600083015261428b81613e60565b9050919050565b600060208201905081810360008301526142ab81613e83565b9050919050565b60006020820190506142c76000830184613eb5565b92915050565b60006142d76142e8565b90506142e382826145f1565b919050565b6000604051905090565b600067ffffffffffffffff82111561430d5761430c614729565b5b61431682614758565b9050602081019050919050565b600067ffffffffffffffff82111561433e5761433d614729565b5b61434782614758565b9050602081019050919050565b6000819050602082019050919050565b600081519050919050565b600081519050919050565b600081519050919050565b6000602082019050919050565b600082825260208201905092915050565b600082825260208201905092915050565b600082825260208201905092915050565b600081905092915050565b60006143db82614573565b91506143e683614573565b9250827fffffffffffffffffffffffffffffffffffffffffffffffffffffffffffffffff0382111561441b5761441a61469c565b5b828201905092915050565b600061443182614573565b915061443c83614573565b92508261444c5761444b6146cb565b5b828204905092915050565b600061446282614573565b915061446d83614573565b9250817fffffffffffffffffffffffffffffffffffffffffffffffffffffffffffffffff04831182151516156144a6576144a561469c565b5b828202905092915050565b60006144bc82614573565b91506144c783614573565b9250828210156144da576144d961469c565b5b828203905092915050565b60006144f082614553565b9050919050565b600061450282614553565b9050919050565b60008115159050919050565b60007fffffffff0000000000000000000000000000000000000000000000000000000082169050919050565b600061454c826144e5565b9050919050565b600073ffffffffffffffffffffffffffffffffffffffff82169050919050565b6000819050919050565b82818337600083830152505050565b60005b838110156145aa57808201518184015260208101905061458f565b838111156145b9576000848401525b50505050565b600060028204905060018216806145d757607f821691505b602082108114156145eb576145ea6146fa565b5b50919050565b6145fa82614758565b810181811067ffffffffffffffff8211171561461957614618614729565b5b80604052505050565b600061462d82614573565b91507fffffffffffffffffffffffffffffffffffffffffffffffffffffffffffffffff8214156146605761465f61469c565b5b600182019050919050565b600061467682614573565b915061468183614573565b925082614691576146906146cb565b5b828206905092915050565b7f4e487b7100000000000000000000000000000000000000000000000000000000600052601160045260246000fd5b7f4e487b7100000000000000000000000000000000000000000000000000000000600052601260045260246000fd5b7f4e487b7100000000000000000000000000000000000000000000000000000000600052602260045260246000fd5b7f4e487b7100000000000000000000000000000000000000000000000000000000600052604160045260246000fd5b6000601f19601f8301169050919050565b7f4d6178696d756d20323021000000000000000000000000000000000000000000600082015250565b7f4552433732313a207472616e7366657220746f206e6f6e20455243373231526560008201527f63656976657220696d706c656d656e7465720000000000000000000000000000602082015250565b7f4f776e61626c653a206e6577206f776e657220697320746865207a65726f206160008201527f6464726573730000000000000000000000000000000000000000000000000000602082015250565b7f4552433732313a20746f6b656e20616c7265616479206d696e74656400000000600082015250565b7f4552433732313a207472616e7366657220746f20746865207a65726f2061646460008201527f7265737300000000000000000000000000000000000000000000000000000000602082015250565b7f4552433732313a20617070726f766520746f2063616c6c657200000000000000600082015250565b7f4552433732313a206f70657261746f7220717565727920666f72206e6f6e657860008201527f697374656e7420746f6b656e0000000000000000000000000000000000000000602082015250565b7f4552433732313a20617070726f76652063616c6c6572206973206e6f74206f7760008201527f6e6572206e6f7220617070726f76656420666f7220616c6c0000000000000000602082015250565b7f4552433732313a2062616c616e636520717565727920666f7220746865207a6560008201527f726f206164647265737300000000000000000000000000000000000000000000602082015250565b7f4552433732313a206f776e657220717565727920666f72206e6f6e657869737460008201527f656e7420746f6b656e0000000000000000000000000000000000000000000000602082015250565b7f446f6e74206675636b2061726f756e642e000000000000000000000000000000600082015250565b7f4552433732313a206d696e7420746f20746865207a65726f2061646472657373600082015250565b7f4552433732313a20617070726f76656420717565727920666f72206e6f6e657860008201527f697374656e7420746f6b656e0000000000000000000000000000000000000000602082015250565b7f4f776e61626c653a2063616c6c6572206973206e6f7420746865206f776e6572600082015250565b7f4552433732313a207472616e73666572206f6620746f6b656e2074686174206960008201527f73206e6f74206f776e0000000000000000000000000000000000000000000000602082015250565b7f537461727420626c6f636b2063616e6e6f74206265206368616e676564206f6e60008201527f63652073616c652068617320737461727465642e000000000000000000000000602082015250565b7f4552433732314d657461646174613a2055524920717565727920666f72206e6f60008201527f6e6578697374656e7420746f6b656e0000000000000000000000000000000000602082015250565b7f4552433732313a20617070726f76616c20746f2063757272656e74206f776e6560008201527f7200000000000000000000000000000000000000000000000000000000000000602082015250565b7f4552433732313a207472616e736665722063616c6c6572206973206e6f74206f60008201527f776e6572206e6f7220617070726f766564000000000000000000000000000000602082015250565b7f5761697420666f72207468652073616c6520746f207374617274210000000000600082015250565b7f4552433732314275726e61626c653a2063616c6c6572206973206e6f74206f7760008201527f6e6572206e6f7220617070726f76656400000000000000000000000000000000602082015250565b7f457863656564696e67206d617820737570706c79210000000000000000000000600082015250565b614d0c816144e5565b8114614d1757600080fd5b50565b614d23816144f7565b8114614d2e57600080fd5b50565b614d3a81614509565b8114614d4557600080fd5b50565b614d5181614515565b8114614d5c57600080fd5b50565b614d6881614541565b8114614d7357600080fd5b50565b614d7f81614573565b8114614d8a57600080fd5b5056fea2646970667358221220289095ae4614b5031386fa4388e3ff0cc93760d440ffd07c868740732edcf76064736f6c63430008040033",
  "immutableReferences": {},
  "source": "// @@@@@@@@@@@@@@@@@@@@@@@@@@@@@@@@@@@@@@@@@@@@@@@@@@@@@@@@@@@@@@@@@@@@@@@@@@@@@@@@\n// @@@@@@@@@@@@@@@@@@@@@@@@@@@@@@@@@@@@@@@@@@@@@@@@@@@@@@@@@@@@@@@@@@@@@@@@@@@@@@@@\n// @@@@@@@@@@@@@@@@@@@@@@@@@@@@@@@@@@@@@@@@@@@@@@@@@@@@@@@@@@@@@@@@@@@@@@@@@@@@@@@@\n// @@@@@@@@@@@@@@@@@@@@@@@@@@@@@@@@@@@@@@@@@@@@@@@@@@@@@@@@@@@@@@@@@@@@@@@@@@@@@@@@\n// @@@@@@@@@@@@@@@@@@@@@@@@@@@@@@@@@@@@@@@@@@@@@@@@@@@@@@@@@@@@@@@@@@@@@@@@@@@@@@@@\n// @@@@@@@@@@@@@@@@@@@@@@@@@@@@@@@@@@@@@@@/\\@@@@@@@@@@@@@@@@@@@@@@@@@@@@@@@@@@@@@@@\n// @@@@@@@@@@@@@@@@@@@@@@@@@@@@@@@@@@@@@@@..@@@@@@@@@@@@@@@@@@@@@@@@@@@@@@@@@@@@@@@\n// @@@@@@@@@@@@@@@@@@@@@@@@@@@@@@@@@@@@@@....(@@@@@@@@@@@@@@@@@@@@@@@@@@@@@@@@@@@@@\n// @@@@@@@@@@@@@@@@@@@@@@@@@@@@@@@@@@@@@......(@@@@@@@@@@@@@@@@@@@@@@@@@@@@@@@@@@@@\n// @@@@@@@@@@@@@@@@@@@@@@@@@@@@@@@@@@@@,.......@@@@@@@@@@@@@@@@@@@@@@@@@@@@@@@@@@@@\n// @@@@@@@@@@@@@@@@@@@@@@@@@@@@@@@@@@@&.........@@@@@@@@@@@@@@@@@@@@@@@@@@@@@@@@@@@\n// @@@@@@@@@@@@@@@@@@@@@@@@@@@@@@@@@@@........../@@@@@@@@@@@@@@@@@@@@@@@@@@@@@@@@@@\n// @@@@@@@@@@@@@\\....(@@@@@@@@@@@@@@@@...........@@@@@@@@@@@@@@@@)..../@@@@@@@@@@@@\n// @@@@@@@@@@@@@@@..........@@@@@@@@@%...........@@@@@@@@@@,........,@@@@@@@@@@@@@@\n// @@@@@@@@@@@@@@@@.............@@@@@&...........@@@@@@.............@@@@@@@@@@@@@@@\n// @@@@@@@@@@@@@@@@@...............@@@...........@@@..............#@@@@@@@@@@@@@@@@\n// @@@@@@@@@@@@@@@@@@&...............@...........@...............@@@@@@@@@@@@@@@@@@\n// @@@@@@@@@@@@@@@@@@@@#.......................................@@@@@@@@@@@@@@@@@@@@\n// @@@@@@@@@@@@@@@@@@@@@@@...................................@@@@@@@@@@@@@@@@@@@@@@\n// @@@@@@@@@@@@@@@@@@@@@@@@@@.............................@@@@@@@@@@@@@@@@@@@@@@@@@\n// @@@@@@@@@@@@@@@@@@@@@@@@@@&%%%.....................&%&&@@@@@@@@@@@@@@@@@@@@@@@@@\n// @@@@@@@@@@@@@@@@@@(...........................................%@@@@@@@@@@@@@@@@@\n// @@@@@@@@@@@@@@@\\................................................./@@@@@@@@@@@@@@\n// @@@@@@@@@@@@@@@@@@@@#,.......&#,...............&#,........,#@@@@@@@@@@@@@@@@@@@@\n// @@@@@@@@@@@@@@@@@@@@@@@@@@@@@@@@.....&@/.@@......@@@@@@@@@@@@@@@@@@@@@@@@@@@@@@@\n// @@@@@@@@@@@@@@@@@@@@@@@@@@@@@@@..,@@@@@/.@@@@@%..,@@@@@@@@@@@@@@@@@@@@@@@@@@@@@@\n// @@@@@@@@@@@@@@@@@@@@@@@@@@@@@@@@@@@@@@@/.@@@@@@@@@@@@@@@@@@@@@@@@@@@@@@@@@@@@@@@\n// @@@@@@@@@@@@@@@@@@@@@@@@@@@@@@@@@@@@@@@@@@@@@@@@@@@@@@@@@@@@@@@@@@@@@@@@@@@@@@@@\n// @@@@@@@@@@@@@@@@@@@@@@@@@@@@@@@@@@@@@@@@@@@@@@@@@@@@@@@@@@@@@@@@@@@@@@@@@@@@@@@@\n// @@@@@@@@@@@@@@@@@@@@@@@@@@@@@@@@@@@@@@@@@@@@@@@@@@@@@@@@@@@@@@@@@@@@@@@@@@@@@@@@\n// @@@@@@@@@@@@@@@@@@@@@@@@@@@@@@@@@@@@@@@@@@@@@@@@@@@@@@@@@@@@@@@@@@@@@@@@@@@@@@@@\n// @@@@@@@@@@@@@@@@@@@@@@@@@@@@@@@@@@@@@@@@@@@@@@@@@@@@@@@@@@@@@@@@@@@@@@@@@@@@@@@@\n// @@@@@@@@@@@@@@@@@@@@@@@@@@@@@@@@@@@@@@@@@@@@@@@@@@@@@@@@@@@@@@@@@@@@@@@@@@@@@@@@\n//\n// Stoners Rock\n// Smoke weed every day.\n//\n// 10,420 on-chain Rock NFTs\n// https://stonersrock.com\n//\n// Twitter: https://twitter.com/mystoners\n//\n// Produced by:     @sircryptos\n// Art by:          @linedetail\n// Code by:         @altcryp\n//\n// SPDX-License-Identifier: MIT\n\npragma solidity ^0.8.4;\n\nimport '@openzeppelin/contracts/token/ERC721/extensions/ERC721Burnable.sol';\nimport '@openzeppelin/contracts/access/Ownable.sol';\nimport \"@openzeppelin/contracts/utils/Counters.sol\";\nimport '@openzeppelin/contracts/token/ERC20/IERC20.sol';\nimport \"./StonersSplit.sol\";\n\ncontract StonersRock is ERC721Burnable, Ownable {\n    using SafeMath for uint256;\n    using Counters for Counters.Counter;\n    Counters.Counter private _tokenIds;\n    Counters.Counter private _reserveIds;\n\n    // Team\n    address public constant sara = 0x00796e910Bd0228ddF4cd79e3f353871a61C351C;          // @sarasioux\n    address public constant shaun = 0x7fc55376D5A29e0Ee86C18C81bb2fC8F9f490E50;         // @sircryptos\n    address public constant mark = 0xB58Fb5372e9Aa0C86c3B281179c05Af3bB7a181b;          // @linedetail\n    address public constant community = 0xB58Fb5372e9Aa0C86c3B281179c05Af3bB7a181b;     // stonersrock.eth\n\n    // Rocks\n    string public imageTx = '';\n    string public metadataTx = '';\n    string public baseUri;\n\n    // Sales\n    uint256 public saleStartBlock = 120250457;\n    uint256 public constant rockPrice = 42069000000000000; //0.042069 ETH\n    uint public constant maxRockPurchase = 20;\n    uint public constant maxRockSupply = 10420;\n    uint public constant maxReserveSupply = 420;\n\n    // Internals\n    address payable public splitContract;\n    mapping (bytes32=> uint256) private requestByToken;\n    event RockMinted(address minter, uint256 tokenId, string tokenUri);\n\n    // Constructor\n    constructor(string memory _baseUri) ERC721(\"Stoners\", \"ROCK\") {\n        baseUri = _baseUri;\n        _tokenIds._value = maxReserveSupply;\n    }\n\n    /*\n    *   Check if the sale has started yet.\n    */\n    function saleStarted() public view returns (bool) {\n        return block.number >= saleStartBlock;\n    }\n\n    /*\n    *   Mint reserved rocks for giveaways and the teams.\n    */\n    function reserveRocks(uint256 numberOfTokens) public onlyOwner {\n        uint256 reserved = _reserveIds.current();\n        require(numberOfTokens <= maxRockPurchase, \"Maximum 20!\");\n        require(reserved.add(numberOfTokens) <= maxReserveSupply, \"Exceeding max supply!\");\n        for (uint i = 0; i < numberOfTokens; i++) {\n            _reserveIds.increment();\n            uint256 tokenId = _reserveIds.current();\n            _safeMint(msg.sender, tokenId);\n        }\n    }\n\n    /*\n    *   Mint reserved rock and transfer to another address.\n    */\n    function giveAwayRock(address receiver) public onlyOwner {\n        uint256 reserved = _reserveIds.current();\n        require(reserved.add(1) <= maxReserveSupply, \"Exceeding max supply!\");\n        _reserveIds.increment();\n        uint256 tokenId = _reserveIds.current();\n        _safeMint(receiver, tokenId);\n    }\n\n    /*\n    *   Getters.\n    */\n    function getCurrentRockId() public view returns(uint256 currentRockId) {\n        currentRockId = _tokenIds.current();\n        return currentRockId;\n    }\n\n    function getCurrentReserveId() public view returns(uint256 currentRockId) {\n        currentRockId = _reserveIds.current();\n        return currentRockId;\n    }\n\n    function exists(uint256 tokenId) public view returns(bool) {\n        return _exists(tokenId);\n    }\n\n    /**\n    *   Public function for minting a rock and enforcing requirements.\n    */\n    function mintRock(uint numberOfTokens) public payable {\n        uint256 totalIssued = _tokenIds.current();\n        require(saleStarted(), \"Wait for the sale to start!\");\n        require(numberOfTokens <= maxRockPurchase, \"Maximum 20!\");\n        require(totalIssued.add(numberOfTokens) <= maxRockSupply, \"Exceeding max supply!\");\n        require(rockPrice.mul(numberOfTokens) <= msg.value, \"Dont fuck around.\");\n\n        for(uint i = 0; i < numberOfTokens; i++) {\n            _tokenIds.increment();\n            uint256 tokenId = _tokenIds.current();\n            _safeMint(msg.sender, tokenId);\n        }\n    }\n\n    /**\n    *   External function for getting all rocks by a specific owner.\n    */\n    function getRocksByOwner(address _owner) view public returns(uint256[] memory) {\n        uint256 tokenCount = balanceOf(_owner);\n        if (tokenCount == 0) {\n            return new uint256[](0);\n        } else {\n            uint256[] memory result = new uint256[](tokenCount);\n            uint256 totalTokens = _tokenIds.current();\n            uint256 resultIndex = 0;\n            for (uint256 t = 1; t <= totalTokens; t++) {\n                if (_exists(t) && ownerOf(t) == _owner) {\n                    result[resultIndex] = t;\n                    resultIndex++;\n                }\n            }\n            return result;\n        }\n    }\n\n    /*\n    *   Owner setters.\n    */\n    function setRoyaltyContract(address payable _splitContract) public onlyOwner {\n        splitContract = _splitContract;\n    }\n\n    function setBaseUri(string memory _baseUri) public onlyOwner {\n        baseUri = _baseUri;\n    }\n\n    function setSaleStartBlock(uint256 _saleStartBlock) public onlyOwner {\n        require(\n            !saleStarted(),\n            'Start block cannot be changed once sale has started.'\n        );\n        saleStartBlock = _saleStartBlock;\n    }\n\n    function setProvenance(string memory _imageTx, string memory _metadataTx) public onlyOwner {\n        imageTx = _imageTx;\n        metadataTx = _metadataTx;\n    }\n\n    /*\n    *   Money management.\n    */\n    function withdrawCommunity(uint256 amount) public onlyOwner {\n        require(payable(community).send(amount));\n    }\n\n    function withdrawTeam() public payable onlyOwner {\n        uint256 _each = address(this).balance / 4;\n        require(payable(sara).send(_each));\n        require(payable(shaun).send(_each));\n        require(payable(mark).send(_each));\n    }\n\n    function withdrawRoyalties() public onlyOwner {\n        StonersSplit(splitContract).release();\n    }\n\n    function forwardERC20s(IERC20 _token, uint256 _amount) public onlyOwner {\n        _token.transfer(msg.sender, _amount);\n    }\n\n    /*\n    *   On chain storage.\n    */\n    function uploadRockImages(bytes calldata s) external onlyOwner {}\n    function uploadRockAttributes(bytes calldata s) external onlyOwner {}\n\n    /*\n    *   Overrides\n    */\n    function _baseURI() internal view override returns (string memory) {\n        return baseUri;\n    }\n\n    receive () external payable virtual {}\n}\n",
  "sourcePath": "/Users/Shared/Code/experimental/stoners-stack/stoners-contracts/contracts/StonersRock.sol",
  "compiler": {
    "name": "solc",
    "version": "0.8.4+commit.c7e474f2.Emscripten.clang"
  },
  "schemaVersion": "3.4.1",
  "updatedAt": "2021-07-08T16:37:40.662Z",
  "networkType": "ethereum",
  "devdoc": {
    "kind": "dev",
    "methods": {
      "approve(address,uint256)": {
        "details": "See {IERC721-approve}."
      },
      "balanceOf(address)": {
        "details": "See {IERC721-balanceOf}."
      },
      "burn(uint256)": {
        "details": "Burns `tokenId`. See {ERC721-_burn}. Requirements: - The caller must own `tokenId` or be an approved operator."
      },
      "getApproved(uint256)": {
        "details": "See {IERC721-getApproved}."
      },
      "isApprovedForAll(address,address)": {
        "details": "See {IERC721-isApprovedForAll}."
      },
      "name()": {
        "details": "See {IERC721Metadata-name}."
      },
      "owner()": {
        "details": "Returns the address of the current owner."
      },
      "ownerOf(uint256)": {
        "details": "See {IERC721-ownerOf}."
      },
      "renounceOwnership()": {
        "details": "Leaves the contract without owner. It will not be possible to call `onlyOwner` functions anymore. Can only be called by the current owner. NOTE: Renouncing ownership will leave the contract without an owner, thereby removing any functionality that is only available to the owner."
      },
      "safeTransferFrom(address,address,uint256)": {
        "details": "See {IERC721-safeTransferFrom}."
      },
      "safeTransferFrom(address,address,uint256,bytes)": {
        "details": "See {IERC721-safeTransferFrom}."
      },
      "setApprovalForAll(address,bool)": {
        "details": "See {IERC721-setApprovalForAll}."
      },
      "supportsInterface(bytes4)": {
        "details": "See {IERC165-supportsInterface}."
      },
      "symbol()": {
        "details": "See {IERC721Metadata-symbol}."
      },
      "tokenURI(uint256)": {
        "details": "See {IERC721Metadata-tokenURI}."
      },
      "transferFrom(address,address,uint256)": {
        "details": "See {IERC721-transferFrom}."
      },
      "transferOwnership(address)": {
        "details": "Transfers ownership of the contract to a new account (`newOwner`). Can only be called by the current owner."
      }
    },
    "version": 1
  },
  "userdoc": {
    "kind": "user",
    "methods": {
      "getRocksByOwner(address)": {
        "notice": "External function for getting all rocks by a specific owner."
      },
      "mintRock(uint256)": {
        "notice": "Public function for minting a rock and enforcing requirements."
      }
    },
    "version": 1
  }
}