{
  "contractName": "StonersRock",
  "abi": [
    {
      "inputs": [],
      "stateMutability": "nonpayable",
      "type": "constructor"
    },
    {
      "anonymous": false,
      "inputs": [
        {
          "indexed": true,
          "internalType": "address",
          "name": "owner",
          "type": "address"
        },
        {
          "indexed": true,
          "internalType": "address",
          "name": "approved",
          "type": "address"
        },
        {
          "indexed": true,
          "internalType": "uint256",
          "name": "tokenId",
          "type": "uint256"
        }
      ],
      "name": "Approval",
      "type": "event"
    },
    {
      "anonymous": false,
      "inputs": [
        {
          "indexed": true,
          "internalType": "address",
          "name": "owner",
          "type": "address"
        },
        {
          "indexed": true,
          "internalType": "address",
          "name": "operator",
          "type": "address"
        },
        {
          "indexed": false,
          "internalType": "bool",
          "name": "approved",
          "type": "bool"
        }
      ],
      "name": "ApprovalForAll",
      "type": "event"
    },
    {
      "anonymous": false,
      "inputs": [
        {
          "indexed": true,
          "internalType": "address",
          "name": "previousOwner",
          "type": "address"
        },
        {
          "indexed": true,
          "internalType": "address",
          "name": "newOwner",
          "type": "address"
        }
      ],
      "name": "OwnershipTransferred",
      "type": "event"
    },
    {
      "anonymous": false,
      "inputs": [
        {
          "indexed": false,
          "internalType": "address",
          "name": "minter",
          "type": "address"
        },
        {
          "indexed": false,
          "internalType": "address",
          "name": "receiver",
          "type": "address"
        },
        {
          "indexed": false,
          "internalType": "uint256",
          "name": "tokenId",
          "type": "uint256"
        }
      ],
      "name": "RockMinted",
      "type": "event"
    },
    {
      "anonymous": false,
      "inputs": [
        {
          "indexed": true,
          "internalType": "address",
          "name": "from",
          "type": "address"
        },
        {
          "indexed": true,
          "internalType": "address",
          "name": "to",
          "type": "address"
        },
        {
          "indexed": true,
          "internalType": "uint256",
          "name": "tokenId",
          "type": "uint256"
        }
      ],
      "name": "Transfer",
      "type": "event"
    },
    {
      "inputs": [
        {
          "internalType": "address",
          "name": "to",
          "type": "address"
        },
        {
          "internalType": "uint256",
          "name": "tokenId",
          "type": "uint256"
        }
      ],
      "name": "approve",
      "outputs": [],
      "stateMutability": "nonpayable",
      "type": "function"
    },
    {
      "inputs": [
        {
          "internalType": "address",
          "name": "owner",
          "type": "address"
        }
      ],
      "name": "balanceOf",
      "outputs": [
        {
          "internalType": "uint256",
          "name": "",
          "type": "uint256"
        }
      ],
      "stateMutability": "view",
      "type": "function",
      "constant": true
    },
    {
      "inputs": [],
      "name": "baseUri",
      "outputs": [
        {
          "internalType": "string",
          "name": "",
          "type": "string"
        }
      ],
      "stateMutability": "view",
      "type": "function",
      "constant": true
    },
    {
      "inputs": [
        {
          "internalType": "uint256",
          "name": "tokenId",
          "type": "uint256"
        }
      ],
      "name": "burn",
      "outputs": [],
      "stateMutability": "nonpayable",
      "type": "function"
    },
    {
      "inputs": [],
      "name": "community",
      "outputs": [
        {
          "internalType": "address",
          "name": "",
          "type": "address"
        }
      ],
      "stateMutability": "view",
      "type": "function",
      "constant": true
    },
    {
      "inputs": [
        {
          "internalType": "uint256",
          "name": "tokenId",
          "type": "uint256"
        }
      ],
      "name": "getApproved",
      "outputs": [
        {
          "internalType": "address",
          "name": "",
          "type": "address"
        }
      ],
      "stateMutability": "view",
      "type": "function",
      "constant": true
    },
    {
      "inputs": [],
      "name": "imageTx",
      "outputs": [
        {
          "internalType": "string",
          "name": "",
          "type": "string"
        }
      ],
      "stateMutability": "view",
      "type": "function",
      "constant": true
    },
    {
      "inputs": [
        {
          "internalType": "address",
          "name": "owner",
          "type": "address"
        },
        {
          "internalType": "address",
          "name": "operator",
          "type": "address"
        }
      ],
      "name": "isApprovedForAll",
      "outputs": [
        {
          "internalType": "bool",
          "name": "",
          "type": "bool"
        }
      ],
      "stateMutability": "view",
      "type": "function",
      "constant": true
    },
    {
      "inputs": [],
      "name": "mark",
      "outputs": [
        {
          "internalType": "address",
          "name": "",
          "type": "address"
        }
      ],
      "stateMutability": "view",
      "type": "function",
      "constant": true
    },
    {
      "inputs": [],
      "name": "maxReserveSupply",
      "outputs": [
        {
          "internalType": "uint256",
          "name": "",
          "type": "uint256"
        }
      ],
      "stateMutability": "view",
      "type": "function",
      "constant": true
    },
    {
      "inputs": [],
      "name": "maxRockPurchase",
      "outputs": [
        {
          "internalType": "uint256",
          "name": "",
          "type": "uint256"
        }
      ],
      "stateMutability": "view",
      "type": "function",
      "constant": true
    },
    {
      "inputs": [],
      "name": "maxRockSupply",
      "outputs": [
        {
          "internalType": "uint256",
          "name": "",
          "type": "uint256"
        }
      ],
      "stateMutability": "view",
      "type": "function",
      "constant": true
    },
    {
      "inputs": [],
      "name": "metadataTx",
      "outputs": [
        {
          "internalType": "string",
          "name": "",
          "type": "string"
        }
      ],
      "stateMutability": "view",
      "type": "function",
      "constant": true
    },
    {
      "inputs": [],
      "name": "name",
      "outputs": [
        {
          "internalType": "string",
          "name": "",
          "type": "string"
        }
      ],
      "stateMutability": "view",
      "type": "function",
      "constant": true
    },
    {
      "inputs": [],
      "name": "owner",
      "outputs": [
        {
          "internalType": "address",
          "name": "",
          "type": "address"
        }
      ],
      "stateMutability": "view",
      "type": "function",
      "constant": true
    },
    {
      "inputs": [
        {
          "internalType": "uint256",
          "name": "tokenId",
          "type": "uint256"
        }
      ],
      "name": "ownerOf",
      "outputs": [
        {
          "internalType": "address",
          "name": "",
          "type": "address"
        }
      ],
      "stateMutability": "view",
      "type": "function",
      "constant": true
    },
    {
      "inputs": [],
      "name": "renounceOwnership",
      "outputs": [],
      "stateMutability": "nonpayable",
      "type": "function"
    },
    {
      "inputs": [],
      "name": "rockPrice",
      "outputs": [
        {
          "internalType": "uint256",
          "name": "",
          "type": "uint256"
        }
      ],
      "stateMutability": "view",
      "type": "function",
      "constant": true
    },
    {
      "inputs": [
        {
          "internalType": "address",
          "name": "from",
          "type": "address"
        },
        {
          "internalType": "address",
          "name": "to",
          "type": "address"
        },
        {
          "internalType": "uint256",
          "name": "tokenId",
          "type": "uint256"
        }
      ],
      "name": "safeTransferFrom",
      "outputs": [],
      "stateMutability": "nonpayable",
      "type": "function"
    },
    {
      "inputs": [
        {
          "internalType": "address",
          "name": "from",
          "type": "address"
        },
        {
          "internalType": "address",
          "name": "to",
          "type": "address"
        },
        {
          "internalType": "uint256",
          "name": "tokenId",
          "type": "uint256"
        },
        {
          "internalType": "bytes",
          "name": "_data",
          "type": "bytes"
        }
      ],
      "name": "safeTransferFrom",
      "outputs": [],
      "stateMutability": "nonpayable",
      "type": "function"
    },
    {
      "inputs": [],
      "name": "saleStartBlock",
      "outputs": [
        {
          "internalType": "uint256",
          "name": "",
          "type": "uint256"
        }
      ],
      "stateMutability": "view",
      "type": "function",
      "constant": true
    },
    {
      "inputs": [],
      "name": "sara",
      "outputs": [
        {
          "internalType": "address",
          "name": "",
          "type": "address"
        }
      ],
      "stateMutability": "view",
      "type": "function",
      "constant": true
    },
    {
      "inputs": [
        {
          "internalType": "address",
          "name": "operator",
          "type": "address"
        },
        {
          "internalType": "bool",
          "name": "approved",
          "type": "bool"
        }
      ],
      "name": "setApprovalForAll",
      "outputs": [],
      "stateMutability": "nonpayable",
      "type": "function"
    },
    {
      "inputs": [],
      "name": "shaun",
      "outputs": [
        {
          "internalType": "address",
          "name": "",
          "type": "address"
        }
      ],
      "stateMutability": "view",
      "type": "function",
      "constant": true
    },
    {
      "inputs": [
        {
          "internalType": "bytes4",
          "name": "interfaceId",
          "type": "bytes4"
        }
      ],
      "name": "supportsInterface",
      "outputs": [
        {
          "internalType": "bool",
          "name": "",
          "type": "bool"
        }
      ],
      "stateMutability": "view",
      "type": "function",
      "constant": true
    },
    {
      "inputs": [],
      "name": "symbol",
      "outputs": [
        {
          "internalType": "string",
          "name": "",
          "type": "string"
        }
      ],
      "stateMutability": "view",
      "type": "function",
      "constant": true
    },
    {
      "inputs": [
        {
          "internalType": "uint256",
          "name": "tokenId",
          "type": "uint256"
        }
      ],
      "name": "tokenURI",
      "outputs": [
        {
          "internalType": "string",
          "name": "",
          "type": "string"
        }
      ],
      "stateMutability": "view",
      "type": "function",
      "constant": true
    },
    {
      "inputs": [
        {
          "internalType": "address",
          "name": "from",
          "type": "address"
        },
        {
          "internalType": "address",
          "name": "to",
          "type": "address"
        },
        {
          "internalType": "uint256",
          "name": "tokenId",
          "type": "uint256"
        }
      ],
      "name": "transferFrom",
      "outputs": [],
      "stateMutability": "nonpayable",
      "type": "function"
    },
    {
      "inputs": [
        {
          "internalType": "address",
          "name": "newOwner",
          "type": "address"
        }
      ],
      "name": "transferOwnership",
      "outputs": [],
      "stateMutability": "nonpayable",
      "type": "function"
    },
    {
      "stateMutability": "payable",
      "type": "receive",
      "payable": true
    },
    {
      "inputs": [],
      "name": "getCurrentRockId",
      "outputs": [
        {
          "internalType": "uint256",
          "name": "currentRockId",
          "type": "uint256"
        }
      ],
      "stateMutability": "view",
      "type": "function",
      "constant": true
    },
    {
      "inputs": [],
      "name": "getCurrentReserveId",
      "outputs": [
        {
          "internalType": "uint256",
          "name": "currentRockId",
          "type": "uint256"
        }
      ],
      "stateMutability": "view",
      "type": "function",
      "constant": true
    },
    {
      "inputs": [
        {
          "internalType": "uint256",
          "name": "tokenId",
          "type": "uint256"
        }
      ],
      "name": "exists",
      "outputs": [
        {
          "internalType": "bool",
          "name": "",
          "type": "bool"
        }
      ],
      "stateMutability": "view",
      "type": "function",
      "constant": true
    },
    {
      "inputs": [],
      "name": "saleStarted",
      "outputs": [
        {
          "internalType": "bool",
          "name": "",
          "type": "bool"
        }
      ],
      "stateMutability": "view",
      "type": "function",
      "constant": true
    },
    {
      "inputs": [
        {
          "internalType": "uint256",
          "name": "numberOfTokens",
          "type": "uint256"
        }
      ],
      "name": "reserveRocks",
      "outputs": [],
      "stateMutability": "nonpayable",
      "type": "function"
    },
    {
      "inputs": [
        {
          "internalType": "uint256",
          "name": "numberOfTokens",
          "type": "uint256"
        },
        {
          "internalType": "address",
          "name": "receiver",
          "type": "address"
        }
      ],
      "name": "reserveRocks",
      "outputs": [],
      "stateMutability": "nonpayable",
      "type": "function"
    },
    {
      "inputs": [
        {
          "internalType": "uint256",
          "name": "numberOfTokens",
          "type": "uint256"
        },
        {
          "internalType": "address",
          "name": "receiver",
          "type": "address"
        }
      ],
      "name": "mintRock",
      "outputs": [],
      "stateMutability": "payable",
      "type": "function",
      "payable": true
    },
    {
      "inputs": [
        {
          "internalType": "uint256",
          "name": "numberOfTokens",
          "type": "uint256"
        }
      ],
      "name": "mintRock",
      "outputs": [],
      "stateMutability": "payable",
      "type": "function",
      "payable": true
    },
    {
      "inputs": [
        {
          "internalType": "address",
          "name": "_owner",
          "type": "address"
        }
      ],
      "name": "getRocksByOwner",
      "outputs": [
        {
          "internalType": "uint256[]",
          "name": "",
          "type": "uint256[]"
        }
      ],
      "stateMutability": "view",
      "type": "function",
      "constant": true
    },
    {
      "inputs": [
        {
          "internalType": "string",
          "name": "_baseUri",
          "type": "string"
        }
      ],
      "name": "setBaseUri",
      "outputs": [],
      "stateMutability": "nonpayable",
      "type": "function"
    },
    {
      "inputs": [
        {
          "internalType": "uint256",
          "name": "_saleStartBlock",
          "type": "uint256"
        }
      ],
      "name": "setSaleStartBlock",
      "outputs": [],
      "stateMutability": "nonpayable",
      "type": "function"
    },
    {
      "inputs": [
        {
          "internalType": "string",
          "name": "_imageTx",
          "type": "string"
        },
        {
          "internalType": "string",
          "name": "_metadataTx",
          "type": "string"
        }
      ],
      "name": "setProvenance",
      "outputs": [],
      "stateMutability": "nonpayable",
      "type": "function"
    },
    {
      "inputs": [],
      "name": "withdraw",
      "outputs": [],
      "stateMutability": "payable",
      "type": "function",
      "payable": true
    },
    {
      "inputs": [
        {
          "internalType": "contract IERC20",
          "name": "_token",
          "type": "address"
        },
        {
          "internalType": "uint256",
          "name": "_amount",
          "type": "uint256"
        }
      ],
      "name": "forwardERC20s",
      "outputs": [],
      "stateMutability": "nonpayable",
      "type": "function"
    },
    {
      "inputs": [
        {
          "internalType": "bytes",
          "name": "s",
          "type": "bytes"
        }
      ],
      "name": "uploadRockImages",
      "outputs": [],
      "stateMutability": "nonpayable",
      "type": "function"
    },
    {
      "inputs": [
        {
          "internalType": "bytes",
          "name": "s",
          "type": "bytes"
        }
      ],
      "name": "uploadRockAttributes",
      "outputs": [],
      "stateMutability": "nonpayable",
      "type": "function"
    }
  ],
  "bytecode": "0x608060405260405180602001604052806000815250600990805190602001906200002b929190620001d5565b5060405180602001604052806000815250600a908051906020019062000053929190620001d5565b5063072ae059600c553480156200006957600080fd5b506040518060400160405280600c81526020017f53746f6e65727320526f636b00000000000000000000000000000000000000008152506040518060400160405280600481526020017f524f434b000000000000000000000000000000000000000000000000000000008152508160009080519060200190620000ee929190620001d5565b50806001908051906020019062000107929190620001d5565b50505060006200011c620001cd60201b60201c565b905080600660006101000a81548173ffffffffffffffffffffffffffffffffffffffff021916908373ffffffffffffffffffffffffffffffffffffffff1602179055508073ffffffffffffffffffffffffffffffffffffffff16600073ffffffffffffffffffffffffffffffffffffffff167f8be0079c531659141344cd1fd0a4f28419497f9722a3daafe3b4186f6b6457e060405160405180910390a3506101a4600760000181905550620002ea565b600033905090565b828054620001e39062000285565b90600052602060002090601f01602090048101928262000207576000855562000253565b82601f106200022257805160ff191683800117855562000253565b8280016001018555821562000253579182015b828111156200025257825182559160200191906001019062000235565b5b50905062000262919062000266565b5090565b5b808211156200028157600081600090555060010162000267565b5090565b600060028204905060018216806200029e57607f821691505b60208210811415620002b557620002b4620002bb565b5b50919050565b7f4e487b7100000000000000000000000000000000000000000000000000000000600052602260045260246000fd5b614aac80620002fa6000396000f3fe6080604052600436106102765760003560e01c80638dd7ca461161014f578063ab17ef61116100c1578063dc1fb5a51161007a578063dc1fb5a51461092d578063dee8dc3e14610958578063e422612314610974578063e985e9c51461099f578063f2fde38b146109dc578063f7c1902914610a055761027d565b8063ab17ef611461081f578063b88d4fde14610848578063c87b56dd14610871578063cffb47cf146108ae578063da7e3365146108d9578063db45c75e146109045761027d565b80639abc8320116101135780639abc8320146107235780639ceeb71c1461074e578063a0bcfc7f14610777578063a22cb465146107a0578063a71ffed9146107c9578063a7fcf250146107f45761027d565b80638dd7ca461461064d5780638de7119a1461068a5780639064a7eb146106a657806395d89b41146106cf5780639727151a146106fa5761027d565b80633ccfd60b116101e85780636352211e116101ac5780636352211e1461053b57806370a0823114610578578063715018a6146105b557806389ae3139146105cc5780638c0d0c29146105f75780638da5cb5b146106225761027d565b80633ccfd60b1461047757806342842e0e1461048157806342966c68146104aa5780634f558e79146104d35780635c474f9e146105105761027d565b8063167fe9be1161023a578063167fe9be1461037b57806320027275146103a657806323b872dd146103d1578063384c8eed146103fa57806338c410b5146104235780633a51cd801461044c5761027d565b806301ffc9a71461028257806306fdde03146102bf578063081812fc146102ea578063095ea7b314610327578063160928d3146103505761027d565b3661027d57005b600080fd5b34801561028e57600080fd5b506102a960048036038101906102a4919061357e565b610a30565b6040516102b69190613cc7565b60405180910390f35b3480156102cb57600080fd5b506102d4610b12565b6040516102e19190613ce2565b60405180910390f35b3480156102f657600080fd5b50610311600480360381019061030c91906136fe565b610ba4565b60405161031e9190613bde565b60405180910390f35b34801561033357600080fd5b5061034e60048036038101906103499190613519565b610c29565b005b34801561035c57600080fd5b50610365610d41565b6040516103729190613fc4565b60405180910390f35b34801561038757600080fd5b50610390610d52565b60405161039d9190613fc4565b60405180910390f35b3480156103b257600080fd5b506103bb610d58565b6040516103c89190613fc4565b60405180910390f35b3480156103dd57600080fd5b506103f860048036038101906103f39190613413565b610d5e565b005b34801561040657600080fd5b50610421600480360381019061041c91906135d0565b610dbe565b005b34801561042f57600080fd5b5061044a60048036038101906104459190613692565b610e3e565b005b34801561045857600080fd5b50610461610eec565b60405161046e9190613bde565b60405180910390f35b61047f610f03565b005b34801561048d57600080fd5b506104a860048036038101906104a39190613413565b6110da565b005b3480156104b657600080fd5b506104d160048036038101906104cc91906136fe565b6110fa565b005b3480156104df57600080fd5b506104fa60048036038101906104f591906136fe565b611156565b6040516105079190613cc7565b60405180910390f35b34801561051c57600080fd5b50610525611168565b6040516105329190613cc7565b60405180910390f35b34801561054757600080fd5b50610562600480360381019061055d91906136fe565b611175565b60405161056f9190613bde565b60405180910390f35b34801561058457600080fd5b5061059f600480360381019061059a91906133ae565b611227565b6040516105ac9190613fc4565b60405180910390f35b3480156105c157600080fd5b506105ca6112df565b005b3480156105d857600080fd5b506105e161141c565b6040516105ee9190613bde565b60405180910390f35b34801561060357600080fd5b5061060c611434565b6040516106199190613bde565b60405180910390f35b34801561062e57600080fd5b5061063761144c565b6040516106449190613bde565b60405180910390f35b34801561065957600080fd5b50610674600480360381019061066f91906133ae565b611476565b6040516106819190613ca5565b60405180910390f35b6106a4600480360381019061069f9190613727565b611659565b005b3480156106b257600080fd5b506106cd60048036038101906106c891906135d0565b611827565b005b3480156106db57600080fd5b506106e46118a7565b6040516106f19190613ce2565b60405180910390f35b34801561070657600080fd5b50610721600480360381019061071c9190613615565b611939565b005b34801561072f57600080fd5b50610738611a47565b6040516107459190613ce2565b60405180910390f35b34801561075a57600080fd5b50610775600480360381019061077091906136fe565b611ad5565b005b34801561078357600080fd5b5061079e60048036038101906107999190613651565b611ba3565b005b3480156107ac57600080fd5b506107c760048036038101906107c291906134dd565b611c39565b005b3480156107d557600080fd5b506107de611dba565b6040516107eb9190613ce2565b60405180910390f35b34801561080057600080fd5b50610809611e48565b6040516108169190613fc4565b60405180910390f35b34801561082b57600080fd5b50610846600480360381019061084191906136fe565b611e59565b005b34801561085457600080fd5b5061086f600480360381019061086a9190613462565b611ee2565b005b34801561087d57600080fd5b50610898600480360381019061089391906136fe565b611f44565b6040516108a59190613ce2565b60405180910390f35b3480156108ba57600080fd5b506108c3611feb565b6040516108d09190613fc4565b60405180910390f35b3480156108e557600080fd5b506108ee611ff1565b6040516108fb9190613fc4565b60405180910390f35b34801561091057600080fd5b5061092b60048036038101906109269190613727565b611ff6565b005b34801561093957600080fd5b5061094261219d565b60405161094f9190613bde565b60405180910390f35b610972600480360381019061096d91906136fe565b6121b5565b005b34801561098057600080fd5b506109896121c2565b6040516109969190613fc4565b60405180910390f35b3480156109ab57600080fd5b506109c660048036038101906109c191906133d7565b6121cd565b6040516109d39190613cc7565b60405180910390f35b3480156109e857600080fd5b50610a0360048036038101906109fe91906133ae565b612261565b005b348015610a1157600080fd5b50610a1a61240d565b604051610a279190613ce2565b60405180910390f35b60007f80ac58cd000000000000000000000000000000000000000000000000000000007bffffffffffffffffffffffffffffffffffffffffffffffffffffffff1916827bffffffffffffffffffffffffffffffffffffffffffffffffffffffff19161480610afb57507f5b5e139f000000000000000000000000000000000000000000000000000000007bffffffffffffffffffffffffffffffffffffffffffffffffffffffff1916827bffffffffffffffffffffffffffffffffffffffffffffffffffffffff1916145b80610b0b5750610b0a8261249b565b5b9050919050565b606060008054610b21906142bf565b80601f0160208091040260200160405190810160405280929190818152602001828054610b4d906142bf565b8015610b9a5780601f10610b6f57610100808354040283529160200191610b9a565b820191906000526020600020905b815481529060010190602001808311610b7d57829003601f168201915b5050505050905090565b6000610baf82612505565b610bee576040517f08c379a0000000000000000000000000000000000000000000000000000000008152600401610be590613e84565b60405180910390fd5b6004600083815260200190815260200160002060009054906101000a900473ffffffffffffffffffffffffffffffffffffffff169050919050565b6000610c3482611175565b90508073ffffffffffffffffffffffffffffffffffffffff168373ffffffffffffffffffffffffffffffffffffffff161415610ca5576040517f08c379a0000000000000000000000000000000000000000000000000000000008152600401610c9c90613f24565b60405180910390fd5b8073ffffffffffffffffffffffffffffffffffffffff16610cc4612571565b73ffffffffffffffffffffffffffffffffffffffff161480610cf35750610cf281610ced612571565b6121cd565b5b610d32576040517f08c379a0000000000000000000000000000000000000000000000000000000008152600401610d2990613de4565b60405180910390fd5b610d3c8383612579565b505050565b6000610d4d6007612632565b905090565b6128b481565b600c5481565b610d6f610d69612571565b82612640565b610dae576040517f08c379a0000000000000000000000000000000000000000000000000000000008152600401610da590613f44565b60405180910390fd5b610db983838361271e565b505050565b610dc6612571565b73ffffffffffffffffffffffffffffffffffffffff16610de461144c565b73ffffffffffffffffffffffffffffffffffffffff1614610e3a576040517f08c379a0000000000000000000000000000000000000000000000000000000008152600401610e3190613ea4565b60405180910390fd5b5050565b610e46612571565b73ffffffffffffffffffffffffffffffffffffffff16610e6461144c565b73ffffffffffffffffffffffffffffffffffffffff1614610eba576040517f08c379a0000000000000000000000000000000000000000000000000000000008152600401610eb190613ea4565b60405180910390fd5b8160099080519060200190610ed092919061315e565b5080600a9080519060200190610ee792919061315e565b505050565b72796e910bd0228ddf4cd79e3f353871a61c351c81565b610f0b612571565b73ffffffffffffffffffffffffffffffffffffffff16610f2961144c565b73ffffffffffffffffffffffffffffffffffffffff1614610f7f576040517f08c379a0000000000000000000000000000000000000000000000000000000008152600401610f7690613ea4565b60405180910390fd5b6000600447610f8e9190614138565b905072796e910bd0228ddf4cd79e3f353871a61c351c73ffffffffffffffffffffffffffffffffffffffff166108fc829081150290604051600060405180830381858888f19350505050610fe157600080fd5b737fc55376d5a29e0ee86c18c81bb2fc8f9f490e5073ffffffffffffffffffffffffffffffffffffffff166108fc829081150290604051600060405180830381858888f1935050505061103357600080fd5b73b58fb5372e9aa0c86c3b281179c05af3bb7a181b73ffffffffffffffffffffffffffffffffffffffff166108fc829081150290604051600060405180830381858888f1935050505061108557600080fd5b73d83dd8a288270512b8a46f581a8254cd971dcb0973ffffffffffffffffffffffffffffffffffffffff166108fc829081150290604051600060405180830381858888f193505050506110d757600080fd5b50565b6110f583838360405180602001604052806000815250611ee2565b505050565b61110b611105612571565b82612640565b61114a576040517f08c379a000000000000000000000000000000000000000000000000000000000815260040161114190613f84565b60405180910390fd5b6111538161297a565b50565b600061116182612505565b9050919050565b6000600c54431015905090565b6000806002600084815260200190815260200160002060009054906101000a900473ffffffffffffffffffffffffffffffffffffffff169050600073ffffffffffffffffffffffffffffffffffffffff168173ffffffffffffffffffffffffffffffffffffffff16141561121e576040517f08c379a000000000000000000000000000000000000000000000000000000000815260040161121590613e24565b60405180910390fd5b80915050919050565b60008073ffffffffffffffffffffffffffffffffffffffff168273ffffffffffffffffffffffffffffffffffffffff161415611298576040517f08c379a000000000000000000000000000000000000000000000000000000000815260040161128f90613e04565b60405180910390fd5b600360008373ffffffffffffffffffffffffffffffffffffffff1673ffffffffffffffffffffffffffffffffffffffff168152602001908152602001600020549050919050565b6112e7612571565b73ffffffffffffffffffffffffffffffffffffffff1661130561144c565b73ffffffffffffffffffffffffffffffffffffffff161461135b576040517f08c379a000000000000000000000000000000000000000000000000000000000815260040161135290613ea4565b60405180910390fd5b600073ffffffffffffffffffffffffffffffffffffffff16600660009054906101000a900473ffffffffffffffffffffffffffffffffffffffff1673ffffffffffffffffffffffffffffffffffffffff167f8be0079c531659141344cd1fd0a4f28419497f9722a3daafe3b4186f6b6457e060405160405180910390a36000600660006101000a81548173ffffffffffffffffffffffffffffffffffffffff021916908373ffffffffffffffffffffffffffffffffffffffff160217905550565b737fc55376d5a29e0ee86c18c81bb2fc8f9f490e5081565b73b58fb5372e9aa0c86c3b281179c05af3bb7a181b81565b6000600660009054906101000a900473ffffffffffffffffffffffffffffffffffffffff16905090565b6060600061148383611227565b9050600081141561150657600067ffffffffffffffff8111156114cf577f4e487b7100000000000000000000000000000000000000000000000000000000600052604160045260246000fd5b6040519080825280602002602001820160405280156114fd5781602001602082028036833780820191505090505b50915050611654565b60008167ffffffffffffffff811115611548577f4e487b7100000000000000000000000000000000000000000000000000000000600052604160045260246000fd5b6040519080825280602002602001820160405280156115765781602001602082028036833780820191505090505b50905060006115856007612632565b9050600080600190505b82811161164b5761159f81612505565b80156115de57508673ffffffffffffffffffffffffffffffffffffffff166115c682611175565b73ffffffffffffffffffffffffffffffffffffffff16145b15611638578084838151811061161d577f4e487b7100000000000000000000000000000000000000000000000000000000600052603260045260246000fd5b602002602001018181525050818061163490614322565b9250505b808061164390614322565b91505061158f565b50829450505050505b919050565b60006116656007612632565b905061166f611168565b6116ae576040517f08c379a00000000000000000000000000000000000000000000000000000000081526004016116a590613f64565b60405180910390fd5b60148311156116f2576040517f08c379a00000000000000000000000000000000000000000000000000000000081526004016116e990613d04565b60405180910390fd5b6128b46117088483612a8b90919063ffffffff16565b1115611749576040517f08c379a000000000000000000000000000000000000000000000000000000000815260040161174090613fa4565b60405180910390fd5b346117648466957588590e5000612aa190919063ffffffff16565b11156117a5576040517f08c379a000000000000000000000000000000000000000000000000000000000815260040161179c90613e44565b60405180910390fd5b60005b83811015611821576117ba6007612ab7565b60006117c66007612632565b90506117d28482612acd565b7f490dbe04a3316d94c80a0439027060269742c4052eafcd09524b009ebd8fd6b733858360405161180593929190613bf9565b60405180910390a150808061181990614322565b9150506117a8565b50505050565b61182f612571565b73ffffffffffffffffffffffffffffffffffffffff1661184d61144c565b73ffffffffffffffffffffffffffffffffffffffff16146118a3576040517f08c379a000000000000000000000000000000000000000000000000000000000815260040161189a90613ea4565b60405180910390fd5b5050565b6060600180546118b6906142bf565b80601f01602080910402602001604051908101604052809291908181526020018280546118e2906142bf565b801561192f5780601f106119045761010080835404028352916020019161192f565b820191906000526020600020905b81548152906001019060200180831161191257829003601f168201915b5050505050905090565b611941612571565b73ffffffffffffffffffffffffffffffffffffffff1661195f61144c565b73ffffffffffffffffffffffffffffffffffffffff16146119b5576040517f08c379a00000000000000000000000000000000000000000000000000000000081526004016119ac90613ea4565b60405180910390fd5b8173ffffffffffffffffffffffffffffffffffffffff1663a9059cbb33836040518363ffffffff1660e01b81526004016119f0929190613c7c565b602060405180830381600087803b158015611a0a57600080fd5b505af1158015611a1e573d6000803e3d6000fd5b505050506040513d601f19601f82011682018060405250810190611a429190613555565b505050565b600b8054611a54906142bf565b80601f0160208091040260200160405190810160405280929190818152602001828054611a80906142bf565b8015611acd5780601f10611aa257610100808354040283529160200191611acd565b820191906000526020600020905b815481529060010190602001808311611ab057829003601f168201915b505050505081565b611add612571565b73ffffffffffffffffffffffffffffffffffffffff16611afb61144c565b73ffffffffffffffffffffffffffffffffffffffff1614611b51576040517f08c379a0000000000000000000000000000000000000000000000000000000008152600401611b4890613ea4565b60405180910390fd5b611b59611168565b15611b99576040517f08c379a0000000000000000000000000000000000000000000000000000000008152600401611b9090613ee4565b60405180910390fd5b80600c8190555050565b611bab612571565b73ffffffffffffffffffffffffffffffffffffffff16611bc961144c565b73ffffffffffffffffffffffffffffffffffffffff1614611c1f576040517f08c379a0000000000000000000000000000000000000000000000000000000008152600401611c1690613ea4565b60405180910390fd5b80600b9080519060200190611c3592919061315e565b5050565b611c41612571565b73ffffffffffffffffffffffffffffffffffffffff168273ffffffffffffffffffffffffffffffffffffffff161415611caf576040517f08c379a0000000000000000000000000000000000000000000000000000000008152600401611ca690613da4565b60405180910390fd5b8060056000611cbc612571565b73ffffffffffffffffffffffffffffffffffffffff1673ffffffffffffffffffffffffffffffffffffffff16815260200190815260200160002060008473ffffffffffffffffffffffffffffffffffffffff1673ffffffffffffffffffffffffffffffffffffffff16815260200190815260200160002060006101000a81548160ff0219169083151502179055508173ffffffffffffffffffffffffffffffffffffffff16611d69612571565b73ffffffffffffffffffffffffffffffffffffffff167f17307eab39ab6107e8899845ad3d59bd9653f200f220920489ca2b5937696c3183604051611dae9190613cc7565b60405180910390a35050565b60098054611dc7906142bf565b80601f0160208091040260200160405190810160405280929190818152602001828054611df3906142bf565b8015611e405780601f10611e1557610100808354040283529160200191611e40565b820191906000526020600020905b815481529060010190602001808311611e2357829003601f168201915b505050505081565b6000611e546008612632565b905090565b611e61612571565b73ffffffffffffffffffffffffffffffffffffffff16611e7f61144c565b73ffffffffffffffffffffffffffffffffffffffff1614611ed5576040517f08c379a0000000000000000000000000000000000000000000000000000000008152600401611ecc90613ea4565b60405180910390fd5b611edf8133611ff6565b50565b611ef3611eed612571565b83612640565b611f32576040517f08c379a0000000000000000000000000000000000000000000000000000000008152600401611f2990613f44565b60405180910390fd5b611f3e84848484612aeb565b50505050565b6060611f4f82612505565b611f8e576040517f08c379a0000000000000000000000000000000000000000000000000000000008152600401611f8590613f04565b60405180910390fd5b6000611f98612b47565b90506000815111611fb85760405180602001604052806000815250611fe3565b80611fc284612bd9565b604051602001611fd3929190613bba565b6040516020818303038152906040525b915050919050565b6101a481565b601481565b611ffe612571565b73ffffffffffffffffffffffffffffffffffffffff1661201c61144c565b73ffffffffffffffffffffffffffffffffffffffff1614612072576040517f08c379a000000000000000000000000000000000000000000000000000000000815260040161206990613ea4565b60405180910390fd5b600061207e6008612632565b905060148311156120c4576040517f08c379a00000000000000000000000000000000000000000000000000000000081526004016120bb90613d04565b60405180910390fd5b6101a46120da8483612a8b90919063ffffffff16565b111561211b576040517f08c379a000000000000000000000000000000000000000000000000000000000815260040161211290613fa4565b60405180910390fd5b60005b83811015612197576121306008612ab7565b600061213c6008612632565b90506121488482612acd565b7f490dbe04a3316d94c80a0439027060269742c4052eafcd09524b009ebd8fd6b733858360405161217b93929190613bf9565b60405180910390a150808061218f90614322565b91505061211e565b50505050565b73d83dd8a288270512b8a46f581a8254cd971dcb0981565b6121bf8133611659565b50565b66957588590e500081565b6000600560008473ffffffffffffffffffffffffffffffffffffffff1673ffffffffffffffffffffffffffffffffffffffff16815260200190815260200160002060008373ffffffffffffffffffffffffffffffffffffffff1673ffffffffffffffffffffffffffffffffffffffff16815260200190815260200160002060009054906101000a900460ff16905092915050565b612269612571565b73ffffffffffffffffffffffffffffffffffffffff1661228761144c565b73ffffffffffffffffffffffffffffffffffffffff16146122dd576040517f08c379a00000000000000000000000000000000000000000000000000000000081526004016122d490613ea4565b60405180910390fd5b600073ffffffffffffffffffffffffffffffffffffffff168173ffffffffffffffffffffffffffffffffffffffff16141561234d576040517f08c379a000000000000000000000000000000000000000000000000000000000815260040161234490613d44565b60405180910390fd5b8073ffffffffffffffffffffffffffffffffffffffff16600660009054906101000a900473ffffffffffffffffffffffffffffffffffffffff1673ffffffffffffffffffffffffffffffffffffffff167f8be0079c531659141344cd1fd0a4f28419497f9722a3daafe3b4186f6b6457e060405160405180910390a380600660006101000a81548173ffffffffffffffffffffffffffffffffffffffff021916908373ffffffffffffffffffffffffffffffffffffffff16021790555050565b600a805461241a906142bf565b80601f0160208091040260200160405190810160405280929190818152602001828054612446906142bf565b80156124935780601f1061246857610100808354040283529160200191612493565b820191906000526020600020905b81548152906001019060200180831161247657829003601f168201915b505050505081565b60007f01ffc9a7000000000000000000000000000000000000000000000000000000007bffffffffffffffffffffffffffffffffffffffffffffffffffffffff1916827bffffffffffffffffffffffffffffffffffffffffffffffffffffffff1916149050919050565b60008073ffffffffffffffffffffffffffffffffffffffff166002600084815260200190815260200160002060009054906101000a900473ffffffffffffffffffffffffffffffffffffffff1673ffffffffffffffffffffffffffffffffffffffff1614159050919050565b600033905090565b816004600083815260200190815260200160002060006101000a81548173ffffffffffffffffffffffffffffffffffffffff021916908373ffffffffffffffffffffffffffffffffffffffff160217905550808273ffffffffffffffffffffffffffffffffffffffff166125ec83611175565b73ffffffffffffffffffffffffffffffffffffffff167f8c5be1e5ebec7d5bd14f71427d1e84f3dd0314c0f7b2291e5b200ac8c7c3b92560405160405180910390a45050565b600081600001549050919050565b600061264b82612505565b61268a576040517f08c379a000000000000000000000000000000000000000000000000000000000815260040161268190613dc4565b60405180910390fd5b600061269583611175565b90508073ffffffffffffffffffffffffffffffffffffffff168473ffffffffffffffffffffffffffffffffffffffff16148061270457508373ffffffffffffffffffffffffffffffffffffffff166126ec84610ba4565b73ffffffffffffffffffffffffffffffffffffffff16145b80612715575061271481856121cd565b5b91505092915050565b8273ffffffffffffffffffffffffffffffffffffffff1661273e82611175565b73ffffffffffffffffffffffffffffffffffffffff1614612794576040517f08c379a000000000000000000000000000000000000000000000000000000000815260040161278b90613ec4565b60405180910390fd5b600073ffffffffffffffffffffffffffffffffffffffff168273ffffffffffffffffffffffffffffffffffffffff161415612804576040517f08c379a00000000000000000000000000000000000000000000000000000000081526004016127fb90613d84565b60405180910390fd5b61280f838383612d86565b61281a600082612579565b6001600360008573ffffffffffffffffffffffffffffffffffffffff1673ffffffffffffffffffffffffffffffffffffffff168152602001908152602001600020600082825461286a91906141c3565b925050819055506001600360008473ffffffffffffffffffffffffffffffffffffffff1673ffffffffffffffffffffffffffffffffffffffff16815260200190815260200160002060008282546128c191906140e2565b92505081905550816002600083815260200190815260200160002060006101000a81548173ffffffffffffffffffffffffffffffffffffffff021916908373ffffffffffffffffffffffffffffffffffffffff160217905550808273ffffffffffffffffffffffffffffffffffffffff168473ffffffffffffffffffffffffffffffffffffffff167fddf252ad1be2c89b69c2b068fc378daa952ba7f163c4a11628f55a4df523b3ef60405160405180910390a4505050565b600061298582611175565b905061299381600084612d86565b61299e600083612579565b6001600360008373ffffffffffffffffffffffffffffffffffffffff1673ffffffffffffffffffffffffffffffffffffffff16815260200190815260200160002060008282546129ee91906141c3565b925050819055506002600083815260200190815260200160002060006101000a81549073ffffffffffffffffffffffffffffffffffffffff021916905581600073ffffffffffffffffffffffffffffffffffffffff168273ffffffffffffffffffffffffffffffffffffffff167fddf252ad1be2c89b69c2b068fc378daa952ba7f163c4a11628f55a4df523b3ef60405160405180910390a45050565b60008183612a9991906140e2565b905092915050565b60008183612aaf9190614169565b905092915050565b6001816000016000828254019250508190555050565b612ae7828260405180602001604052806000815250612d8b565b5050565b612af684848461271e565b612b0284848484612de6565b612b41576040517f08c379a0000000000000000000000000000000000000000000000000000000008152600401612b3890613d24565b60405180910390fd5b50505050565b6060600b8054612b56906142bf565b80601f0160208091040260200160405190810160405280929190818152602001828054612b82906142bf565b8015612bcf5780601f10612ba457610100808354040283529160200191612bcf565b820191906000526020600020905b815481529060010190602001808311612bb257829003601f168201915b5050505050905090565b60606000821415612c21576040518060400160405280600181526020017f30000000000000000000000000000000000000000000000000000000000000008152509050612d81565b600082905060005b60008214612c53578080612c3c90614322565b915050600a82612c4c9190614138565b9150612c29565b60008167ffffffffffffffff811115612c95577f4e487b7100000000000000000000000000000000000000000000000000000000600052604160045260246000fd5b6040519080825280601f01601f191660200182016040528015612cc75781602001600182028036833780820191505090505b5090505b60008514612d7a57600182612ce091906141c3565b9150600a85612cef919061436b565b6030612cfb91906140e2565b60f81b818381518110612d37577f4e487b7100000000000000000000000000000000000000000000000000000000600052603260045260246000fd5b60200101907effffffffffffffffffffffffffffffffffffffffffffffffffffffffffffff1916908160001a905350600a85612d739190614138565b9450612ccb565b8093505050505b919050565b505050565b612d958383612f7d565b612da26000848484612de6565b612de1576040517f08c379a0000000000000000000000000000000000000000000000000000000008152600401612dd890613d24565b60405180910390fd5b505050565b6000612e078473ffffffffffffffffffffffffffffffffffffffff1661314b565b15612f70578373ffffffffffffffffffffffffffffffffffffffff1663150b7a02612e30612571565b8786866040518563ffffffff1660e01b8152600401612e529493929190613c30565b602060405180830381600087803b158015612e6c57600080fd5b505af1925050508015612e9d57506040513d601f19601f82011682018060405250810190612e9a91906135a7565b60015b612f20573d8060008114612ecd576040519150601f19603f3d011682016040523d82523d6000602084013e612ed2565b606091505b50600081511415612f18576040517f08c379a0000000000000000000000000000000000000000000000000000000008152600401612f0f90613d24565b60405180910390fd5b805181602001fd5b63150b7a0260e01b7bffffffffffffffffffffffffffffffffffffffffffffffffffffffff1916817bffffffffffffffffffffffffffffffffffffffffffffffffffffffff191614915050612f75565b600190505b949350505050565b600073ffffffffffffffffffffffffffffffffffffffff168273ffffffffffffffffffffffffffffffffffffffff161415612fed576040517f08c379a0000000000000000000000000000000000000000000000000000000008152600401612fe490613e64565b60405180910390fd5b612ff681612505565b15613036576040517f08c379a000000000000000000000000000000000000000000000000000000000815260040161302d90613d64565b60405180910390fd5b61304260008383612d86565b6001600360008473ffffffffffffffffffffffffffffffffffffffff1673ffffffffffffffffffffffffffffffffffffffff168152602001908152602001600020600082825461309291906140e2565b92505081905550816002600083815260200190815260200160002060006101000a81548173ffffffffffffffffffffffffffffffffffffffff021916908373ffffffffffffffffffffffffffffffffffffffff160217905550808273ffffffffffffffffffffffffffffffffffffffff16600073ffffffffffffffffffffffffffffffffffffffff167fddf252ad1be2c89b69c2b068fc378daa952ba7f163c4a11628f55a4df523b3ef60405160405180910390a45050565b600080823b905060008111915050919050565b82805461316a906142bf565b90600052602060002090601f01602090048101928261318c57600085556131d3565b82601f106131a557805160ff19168380011785556131d3565b828001600101855582156131d3579182015b828111156131d25782518255916020019190600101906131b7565b5b5090506131e091906131e4565b5090565b5b808211156131fd5760008160009055506001016131e5565b5090565b600061321461320f84614004565b613fdf565b90508281526020810184848401111561322c57600080fd5b61323784828561427d565b509392505050565b600061325261324d84614035565b613fdf565b90508281526020810184848401111561326a57600080fd5b61327584828561427d565b509392505050565b60008135905061328c81614a03565b92915050565b6000813590506132a181614a1a565b92915050565b6000815190506132b681614a1a565b92915050565b6000813590506132cb81614a31565b92915050565b6000815190506132e081614a31565b92915050565b60008083601f8401126132f857600080fd5b8235905067ffffffffffffffff81111561331157600080fd5b60208301915083600182028301111561332957600080fd5b9250929050565b600082601f83011261334157600080fd5b8135613351848260208601613201565b91505092915050565b60008135905061336981614a48565b92915050565b600082601f83011261338057600080fd5b813561339084826020860161323f565b91505092915050565b6000813590506133a881614a5f565b92915050565b6000602082840312156133c057600080fd5b60006133ce8482850161327d565b91505092915050565b600080604083850312156133ea57600080fd5b60006133f88582860161327d565b92505060206134098582860161327d565b9150509250929050565b60008060006060848603121561342857600080fd5b60006134368682870161327d565b93505060206134478682870161327d565b925050604061345886828701613399565b9150509250925092565b6000806000806080858703121561347857600080fd5b60006134868782880161327d565b94505060206134978782880161327d565b93505060406134a887828801613399565b925050606085013567ffffffffffffffff8111156134c557600080fd5b6134d187828801613330565b91505092959194509250565b600080604083850312156134f057600080fd5b60006134fe8582860161327d565b925050602061350f85828601613292565b9150509250929050565b6000806040838503121561352c57600080fd5b600061353a8582860161327d565b925050602061354b85828601613399565b9150509250929050565b60006020828403121561356757600080fd5b6000613575848285016132a7565b91505092915050565b60006020828403121561359057600080fd5b600061359e848285016132bc565b91505092915050565b6000602082840312156135b957600080fd5b60006135c7848285016132d1565b91505092915050565b600080602083850312156135e357600080fd5b600083013567ffffffffffffffff8111156135fd57600080fd5b613609858286016132e6565b92509250509250929050565b6000806040838503121561362857600080fd5b60006136368582860161335a565b925050602061364785828601613399565b9150509250929050565b60006020828403121561366357600080fd5b600082013567ffffffffffffffff81111561367d57600080fd5b6136898482850161336f565b91505092915050565b600080604083850312156136a557600080fd5b600083013567ffffffffffffffff8111156136bf57600080fd5b6136cb8582860161336f565b925050602083013567ffffffffffffffff8111156136e857600080fd5b6136f48582860161336f565b9150509250929050565b60006020828403121561371057600080fd5b600061371e84828501613399565b91505092915050565b6000806040838503121561373a57600080fd5b600061374885828601613399565b92505060206137598582860161327d565b9150509250929050565b600061376f8383613b9c565b60208301905092915050565b613784816141f7565b82525050565b600061379582614076565b61379f81856140a4565b93506137aa83614066565b8060005b838110156137db5781516137c28882613763565b97506137cd83614097565b9250506001810190506137ae565b5085935050505092915050565b6137f181614209565b82525050565b600061380282614081565b61380c81856140b5565b935061381c81856020860161428c565b61382581614458565b840191505092915050565b600061383b8261408c565b61384581856140c6565b935061385581856020860161428c565b61385e81614458565b840191505092915050565b60006138748261408c565b61387e81856140d7565b935061388e81856020860161428c565b80840191505092915050565b60006138a7600b836140c6565b91506138b282614469565b602082019050919050565b60006138ca6032836140c6565b91506138d582614492565b604082019050919050565b60006138ed6026836140c6565b91506138f8826144e1565b604082019050919050565b6000613910601c836140c6565b915061391b82614530565b602082019050919050565b60006139336024836140c6565b915061393e82614559565b604082019050919050565b60006139566019836140c6565b9150613961826145a8565b602082019050919050565b6000613979602c836140c6565b9150613984826145d1565b604082019050919050565b600061399c6038836140c6565b91506139a782614620565b604082019050919050565b60006139bf602a836140c6565b91506139ca8261466f565b604082019050919050565b60006139e26029836140c6565b91506139ed826146be565b604082019050919050565b6000613a056011836140c6565b9150613a108261470d565b602082019050919050565b6000613a286020836140c6565b9150613a3382614736565b602082019050919050565b6000613a4b602c836140c6565b9150613a568261475f565b604082019050919050565b6000613a6e6020836140c6565b9150613a79826147ae565b602082019050919050565b6000613a916029836140c6565b9150613a9c826147d7565b604082019050919050565b6000613ab46034836140c6565b9150613abf82614826565b604082019050919050565b6000613ad7602f836140c6565b9150613ae282614875565b604082019050919050565b6000613afa6021836140c6565b9150613b05826148c4565b604082019050919050565b6000613b1d6031836140c6565b9150613b2882614913565b604082019050919050565b6000613b40601b836140c6565b9150613b4b82614962565b602082019050919050565b6000613b636030836140c6565b9150613b6e8261498b565b604082019050919050565b6000613b866015836140c6565b9150613b91826149da565b602082019050919050565b613ba581614273565b82525050565b613bb481614273565b82525050565b6000613bc68285613869565b9150613bd28284613869565b91508190509392505050565b6000602082019050613bf3600083018461377b565b92915050565b6000606082019050613c0e600083018661377b565b613c1b602083018561377b565b613c286040830184613bab565b949350505050565b6000608082019050613c45600083018761377b565b613c52602083018661377b565b613c5f6040830185613bab565b8181036060830152613c7181846137f7565b905095945050505050565b6000604082019050613c91600083018561377b565b613c9e6020830184613bab565b9392505050565b60006020820190508181036000830152613cbf818461378a565b905092915050565b6000602082019050613cdc60008301846137e8565b92915050565b60006020820190508181036000830152613cfc8184613830565b905092915050565b60006020820190508181036000830152613d1d8161389a565b9050919050565b60006020820190508181036000830152613d3d816138bd565b9050919050565b60006020820190508181036000830152613d5d816138e0565b9050919050565b60006020820190508181036000830152613d7d81613903565b9050919050565b60006020820190508181036000830152613d9d81613926565b9050919050565b60006020820190508181036000830152613dbd81613949565b9050919050565b60006020820190508181036000830152613ddd8161396c565b9050919050565b60006020820190508181036000830152613dfd8161398f565b9050919050565b60006020820190508181036000830152613e1d816139b2565b9050919050565b60006020820190508181036000830152613e3d816139d5565b9050919050565b60006020820190508181036000830152613e5d816139f8565b9050919050565b60006020820190508181036000830152613e7d81613a1b565b9050919050565b60006020820190508181036000830152613e9d81613a3e565b9050919050565b60006020820190508181036000830152613ebd81613a61565b9050919050565b60006020820190508181036000830152613edd81613a84565b9050919050565b60006020820190508181036000830152613efd81613aa7565b9050919050565b60006020820190508181036000830152613f1d81613aca565b9050919050565b60006020820190508181036000830152613f3d81613aed565b9050919050565b60006020820190508181036000830152613f5d81613b10565b9050919050565b60006020820190508181036000830152613f7d81613b33565b9050919050565b60006020820190508181036000830152613f9d81613b56565b9050919050565b60006020820190508181036000830152613fbd81613b79565b9050919050565b6000602082019050613fd96000830184613bab565b92915050565b6000613fe9613ffa565b9050613ff582826142f1565b919050565b6000604051905090565b600067ffffffffffffffff82111561401f5761401e614429565b5b61402882614458565b9050602081019050919050565b600067ffffffffffffffff8211156140505761404f614429565b5b61405982614458565b9050602081019050919050565b6000819050602082019050919050565b600081519050919050565b600081519050919050565b600081519050919050565b6000602082019050919050565b600082825260208201905092915050565b600082825260208201905092915050565b600082825260208201905092915050565b600081905092915050565b60006140ed82614273565b91506140f883614273565b9250827fffffffffffffffffffffffffffffffffffffffffffffffffffffffffffffffff0382111561412d5761412c61439c565b5b828201905092915050565b600061414382614273565b915061414e83614273565b92508261415e5761415d6143cb565b5b828204905092915050565b600061417482614273565b915061417f83614273565b9250817fffffffffffffffffffffffffffffffffffffffffffffffffffffffffffffffff04831182151516156141b8576141b761439c565b5b828202905092915050565b60006141ce82614273565b91506141d983614273565b9250828210156141ec576141eb61439c565b5b828203905092915050565b600061420282614253565b9050919050565b60008115159050919050565b60007fffffffff0000000000000000000000000000000000000000000000000000000082169050919050565b600061424c826141f7565b9050919050565b600073ffffffffffffffffffffffffffffffffffffffff82169050919050565b6000819050919050565b82818337600083830152505050565b60005b838110156142aa57808201518184015260208101905061428f565b838111156142b9576000848401525b50505050565b600060028204905060018216806142d757607f821691505b602082108114156142eb576142ea6143fa565b5b50919050565b6142fa82614458565b810181811067ffffffffffffffff8211171561431957614318614429565b5b80604052505050565b600061432d82614273565b91507fffffffffffffffffffffffffffffffffffffffffffffffffffffffffffffffff8214156143605761435f61439c565b5b600182019050919050565b600061437682614273565b915061438183614273565b925082614391576143906143cb565b5b828206905092915050565b7f4e487b7100000000000000000000000000000000000000000000000000000000600052601160045260246000fd5b7f4e487b7100000000000000000000000000000000000000000000000000000000600052601260045260246000fd5b7f4e487b7100000000000000000000000000000000000000000000000000000000600052602260045260246000fd5b7f4e487b7100000000000000000000000000000000000000000000000000000000600052604160045260246000fd5b6000601f19601f8301169050919050565b7f4d6178696d756d20323021000000000000000000000000000000000000000000600082015250565b7f4552433732313a207472616e7366657220746f206e6f6e20455243373231526560008201527f63656976657220696d706c656d656e7465720000000000000000000000000000602082015250565b7f4f776e61626c653a206e6577206f776e657220697320746865207a65726f206160008201527f6464726573730000000000000000000000000000000000000000000000000000602082015250565b7f4552433732313a20746f6b656e20616c7265616479206d696e74656400000000600082015250565b7f4552433732313a207472616e7366657220746f20746865207a65726f2061646460008201527f7265737300000000000000000000000000000000000000000000000000000000602082015250565b7f4552433732313a20617070726f766520746f2063616c6c657200000000000000600082015250565b7f4552433732313a206f70657261746f7220717565727920666f72206e6f6e657860008201527f697374656e7420746f6b656e0000000000000000000000000000000000000000602082015250565b7f4552433732313a20617070726f76652063616c6c6572206973206e6f74206f7760008201527f6e6572206e6f7220617070726f76656420666f7220616c6c0000000000000000602082015250565b7f4552433732313a2062616c616e636520717565727920666f7220746865207a6560008201527f726f206164647265737300000000000000000000000000000000000000000000602082015250565b7f4552433732313a206f776e657220717565727920666f72206e6f6e657869737460008201527f656e7420746f6b656e0000000000000000000000000000000000000000000000602082015250565b7f446f6e74206675636b2061726f756e642e000000000000000000000000000000600082015250565b7f4552433732313a206d696e7420746f20746865207a65726f2061646472657373600082015250565b7f4552433732313a20617070726f76656420717565727920666f72206e6f6e657860008201527f697374656e7420746f6b656e0000000000000000000000000000000000000000602082015250565b7f4f776e61626c653a2063616c6c6572206973206e6f7420746865206f776e6572600082015250565b7f4552433732313a207472616e73666572206f6620746f6b656e2074686174206960008201527f73206e6f74206f776e0000000000000000000000000000000000000000000000602082015250565b7f537461727420626c6f636b2063616e6e6f74206265206368616e676564206f6e60008201527f63652073616c652068617320737461727465642e000000000000000000000000602082015250565b7f4552433732314d657461646174613a2055524920717565727920666f72206e6f60008201527f6e6578697374656e7420746f6b656e0000000000000000000000000000000000602082015250565b7f4552433732313a20617070726f76616c20746f2063757272656e74206f776e6560008201527f7200000000000000000000000000000000000000000000000000000000000000602082015250565b7f4552433732313a207472616e736665722063616c6c6572206973206e6f74206f60008201527f776e6572206e6f7220617070726f766564000000000000000000000000000000602082015250565b7f5761697420666f72207468652073616c6520746f207374617274210000000000600082015250565b7f4552433732314275726e61626c653a2063616c6c6572206973206e6f74206f7760008201527f6e6572206e6f7220617070726f76656400000000000000000000000000000000602082015250565b7f457863656564696e67206d617820737570706c79210000000000000000000000600082015250565b614a0c816141f7565b8114614a1757600080fd5b50565b614a2381614209565b8114614a2e57600080fd5b50565b614a3a81614215565b8114614a4557600080fd5b50565b614a5181614241565b8114614a5c57600080fd5b50565b614a6881614273565b8114614a7357600080fd5b5056fea264697066735822122079692b305a7d430f3bb1462eaaca448887404564704d87de8972a69acb9370db64736f6c63430008040033",
  "immutableReferences": {},
  "source": "// @@@@@@@@@@@@@@@@@@@@@@@@@@@@@@@@@@@@@@@@@@@@@@@@@@@@@@@@@@@@@@@@@@@@@@@@@@@@@@@@\n// @@@@@@@@@@@@@@@@@@@@@@@@@@@@@@@@@@@@@@@@@@@@@@@@@@@@@@@@@@@@@@@@@@@@@@@@@@@@@@@@\n// @@@@@@@@@@@@@@@@@@@@@@@@@@@@@@@@@@@@@@@@@@@@@@@@@@@@@@@@@@@@@@@@@@@@@@@@@@@@@@@@\n// @@@@@@@@@@@@@@@@@@@@@@@@@@@@@@@@@@@@@@@@@@@@@@@@@@@@@@@@@@@@@@@@@@@@@@@@@@@@@@@@\n// @@@@@@@@@@@@@@@@@@@@@@@@@@@@@@@@@@@@@@@@@@@@@@@@@@@@@@@@@@@@@@@@@@@@@@@@@@@@@@@@\n// @@@@@@@@@@@@@@@@@@@@@@@@@@@@@@@@@@@@@@@/\\@@@@@@@@@@@@@@@@@@@@@@@@@@@@@@@@@@@@@@@\n// @@@@@@@@@@@@@@@@@@@@@@@@@@@@@@@@@@@@@@@..@@@@@@@@@@@@@@@@@@@@@@@@@@@@@@@@@@@@@@@\n// @@@@@@@@@@@@@@@@@@@@@@@@@@@@@@@@@@@@@@....(@@@@@@@@@@@@@@@@@@@@@@@@@@@@@@@@@@@@@\n// @@@@@@@@@@@@@@@@@@@@@@@@@@@@@@@@@@@@@......(@@@@@@@@@@@@@@@@@@@@@@@@@@@@@@@@@@@@\n// @@@@@@@@@@@@@@@@@@@@@@@@@@@@@@@@@@@@,.......@@@@@@@@@@@@@@@@@@@@@@@@@@@@@@@@@@@@\n// @@@@@@@@@@@@@@@@@@@@@@@@@@@@@@@@@@@&.........@@@@@@@@@@@@@@@@@@@@@@@@@@@@@@@@@@@\n// @@@@@@@@@@@@@@@@@@@@@@@@@@@@@@@@@@@........../@@@@@@@@@@@@@@@@@@@@@@@@@@@@@@@@@@\n// @@@@@@@@@@@@@\\....(@@@@@@@@@@@@@@@@...........@@@@@@@@@@@@@@@@)..../@@@@@@@@@@@@\n// @@@@@@@@@@@@@@@..........@@@@@@@@@%...........@@@@@@@@@@,........,@@@@@@@@@@@@@@\n// @@@@@@@@@@@@@@@@.............@@@@@&...........@@@@@@.............@@@@@@@@@@@@@@@\n// @@@@@@@@@@@@@@@@@...............@@@...........@@@..............#@@@@@@@@@@@@@@@@\n// @@@@@@@@@@@@@@@@@@&...............@...........@...............@@@@@@@@@@@@@@@@@@\n// @@@@@@@@@@@@@@@@@@@@#.......................................@@@@@@@@@@@@@@@@@@@@\n// @@@@@@@@@@@@@@@@@@@@@@@...................................@@@@@@@@@@@@@@@@@@@@@@\n// @@@@@@@@@@@@@@@@@@@@@@@@@@.............................@@@@@@@@@@@@@@@@@@@@@@@@@\n// @@@@@@@@@@@@@@@@@@@@@@@@@@&%%%.....................&%&&@@@@@@@@@@@@@@@@@@@@@@@@@\n// @@@@@@@@@@@@@@@@@@(...........................................%@@@@@@@@@@@@@@@@@\n// @@@@@@@@@@@@@@@\\................................................./@@@@@@@@@@@@@@\n// @@@@@@@@@@@@@@@@@@@@#,.......&#,...............&#,........,#@@@@@@@@@@@@@@@@@@@@\n// @@@@@@@@@@@@@@@@@@@@@@@@@@@@@@@@.....&@/.@@......@@@@@@@@@@@@@@@@@@@@@@@@@@@@@@@\n// @@@@@@@@@@@@@@@@@@@@@@@@@@@@@@@..,@@@@@/.@@@@@%..,@@@@@@@@@@@@@@@@@@@@@@@@@@@@@@\n// @@@@@@@@@@@@@@@@@@@@@@@@@@@@@@@@@@@@@@@/.@@@@@@@@@@@@@@@@@@@@@@@@@@@@@@@@@@@@@@@\n// @@@@@@@@@@@@@@@@@@@@@@@@@@@@@@@@@@@@@@@@@@@@@@@@@@@@@@@@@@@@@@@@@@@@@@@@@@@@@@@@\n// @@@@@@@@@@@@@@@@@@@@@@@@@@@@@@@@@@@@@@@@@@@@@@@@@@@@@@@@@@@@@@@@@@@@@@@@@@@@@@@@\n// @@@@@@@@@@@@@@@@@@@@@@@@@@@@@@@@@@@@@@@@@@@@@@@@@@@@@@@@@@@@@@@@@@@@@@@@@@@@@@@@\n// @@@@@@@@@@@@@@@@@@@@@@@@@@@@@@@@@@@@@@@@@@@@@@@@@@@@@@@@@@@@@@@@@@@@@@@@@@@@@@@@\n// @@@@@@@@@@@@@@@@@@@@@@@@@@@@@@@@@@@@@@@@@@@@@@@@@@@@@@@@@@@@@@@@@@@@@@@@@@@@@@@@\n// @@@@@@@@@@@@@@@@@@@@@@@@@@@@@@@@@@@@@@@@@@@@@@@@@@@@@@@@@@@@@@@@@@@@@@@@@@@@@@@@\n//\n// Stoners Rock\n// Smoke weed every day.\n//\n// 10,420 on-chain Rock NFTs\n// https://stonersrock.com\n//\n// Twitter: https://twitter.com/mystoners\n//\n// Produced by:     @sircryptos\n// Art by:          @linedetail\n// Code by:         @altcryp\n//\n// SPDX-License-Identifier: MIT\n\npragma solidity ^0.8.4;\n\nimport '@openzeppelin/contracts/token/ERC721/extensions/ERC721Burnable.sol';\nimport '@openzeppelin/contracts/access/Ownable.sol';\nimport \"@openzeppelin/contracts/utils/Counters.sol\";\nimport '@openzeppelin/contracts/token/ERC20/IERC20.sol';\nimport '@openzeppelin/contracts/utils/math/SafeMath.sol';\n\ncontract StonersRock is ERC721Burnable, Ownable {\n    using SafeMath for uint256;\n    using Counters for Counters.Counter;\n    Counters.Counter private _tokenIds;\n    Counters.Counter private _reserveIds;\n\n    // Team\n    address public constant sara        = 0x00796e910Bd0228ddF4cd79e3f353871a61C351C;     // @sarasioux\n    address public constant shaun       = 0x7fc55376D5A29e0Ee86C18C81bb2fC8F9f490E50;     // @sircryptos\n    address public constant mark        = 0xB58Fb5372e9Aa0C86c3B281179c05Af3bB7a181b;     // @linedetail\n    address public constant community   = 0xd83Dd8A288270512b8A46F581A8254CD971dCb09;     // stonersrock.eth\n\n    // Rocks\n    string public imageTx = '';\n    string public metadataTx = '';\n    string public baseUri;\n\n    // Sales\n    uint256 public saleStartBlock = 120250457;\n    uint256 public constant rockPrice = 42069000000000000; //0.042069 ETH\n    uint public constant maxRockPurchase = 20;\n    uint public constant maxRockSupply = 10420;\n    uint public constant maxReserveSupply = 420;\n\n    // Internals\n    event RockMinted(address minter, address receiver, uint256 tokenId);\n\n    // Constructor\n    constructor() ERC721(\"Stoners Rock\", \"ROCK\") {\n        _tokenIds._value = maxReserveSupply;\n    }\n\n    /*\n    *   Getters.\n    */\n    function getCurrentRockId() public view returns(uint256 currentRockId) {\n        currentRockId = _tokenIds.current();\n        return currentRockId;\n    }\n\n    function getCurrentReserveId() public view returns(uint256 currentRockId) {\n        currentRockId = _reserveIds.current();\n        return currentRockId;\n    }\n\n    function exists(uint256 tokenId) public view returns(bool) {\n        return _exists(tokenId);\n    }\n\n    function saleStarted() public view returns (bool) {\n        return block.number >= saleStartBlock;\n    }\n\n    /*\n    *   Mint reserved rocks for giveaways and the teams.\n    */\n    function reserveRocks(uint256 numberOfTokens) public onlyOwner {\n        reserveRocks(numberOfTokens, msg.sender);\n    }\n\n    function reserveRocks(uint256 numberOfTokens, address receiver) public onlyOwner {\n        uint256 reserved = _reserveIds.current();\n        require(numberOfTokens <= maxRockPurchase, \"Maximum 20!\");\n        require(reserved.add(numberOfTokens) <= maxReserveSupply, \"Exceeding max supply!\");\n        for (uint i = 0; i < numberOfTokens; i++) {\n            _reserveIds.increment();\n            uint256 tokenId = _reserveIds.current();\n            _safeMint(receiver, tokenId);\n            emit RockMinted(msg.sender, receiver, tokenId);\n        }\n    }\n\n    /**\n    *   Public function for minting a rock and enforcing requirements.\n    */\n    function mintRock(uint numberOfTokens) public payable {\n        mintRock(numberOfTokens, msg.sender);\n    }\n\n    function mintRock(uint numberOfTokens, address receiver) public payable {\n        uint256 totalIssued = _tokenIds.current();\n        require(saleStarted(), \"Wait for the sale to start!\");\n        require(numberOfTokens <= maxRockPurchase, \"Maximum 20!\");\n        require(totalIssued.add(numberOfTokens) <= maxRockSupply, \"Exceeding max supply!\");\n        require(rockPrice.mul(numberOfTokens) <= msg.value, \"Dont fuck around.\");\n\n        for(uint i = 0; i < numberOfTokens; i++) {\n            _tokenIds.increment();\n            uint256 tokenId = _tokenIds.current();\n            _safeMint(receiver, tokenId);\n            emit RockMinted(msg.sender, receiver, tokenId);\n        }\n    }\n\n    /**\n    *   External function for getting all rocks by a specific owner.\n    */\n    function getRocksByOwner(address _owner) view public returns(uint256[] memory) {\n        uint256 tokenCount = balanceOf(_owner);\n        if (tokenCount == 0) {\n            return new uint256[](0);\n        } else {\n            uint256[] memory result = new uint256[](tokenCount);\n            uint256 totalTokens = _tokenIds.current();\n            uint256 resultIndex = 0;\n            for (uint256 t = 1; t <= totalTokens; t++) {\n                if (_exists(t) && ownerOf(t) == _owner) {\n                    result[resultIndex] = t;\n                    resultIndex++;\n                }\n            }\n            return result;\n        }\n    }\n\n    /*\n    *   Owner setters.\n    */\n    function setBaseUri(string memory _baseUri) public onlyOwner {\n        baseUri = _baseUri;\n    }\n\n    function setSaleStartBlock(uint256 _saleStartBlock) public onlyOwner {\n        require(!saleStarted(), 'Start block cannot be changed once sale has started.');\n        saleStartBlock = _saleStartBlock;\n    }\n\n    function setProvenance(string memory _imageTx, string memory _metadataTx) public onlyOwner {\n        imageTx = _imageTx;\n        metadataTx = _metadataTx;\n    }\n\n    /*\n    *   Money management.\n    */\n    function withdraw() public payable onlyOwner {\n        uint256 _each = address(this).balance / 4;\n        require(payable(sara).send(_each));\n        require(payable(shaun).send(_each));\n        require(payable(mark).send(_each));\n        require(payable(community).send(_each));\n    }\n\n    function forwardERC20s(IERC20 _token, uint256 _amount) public onlyOwner {\n        _token.transfer(msg.sender, _amount);\n    }\n\n    /*\n    *   On chain storage.\n    */\n    function uploadRockImages(bytes calldata s) external onlyOwner {}\n    function uploadRockAttributes(bytes calldata s) external onlyOwner {}\n\n    /*\n    *   Overrides\n    */\n    function _baseURI() internal view override returns (string memory) {\n        return baseUri;\n    }\n\n    receive () external payable virtual {}\n}\n",
  "sourcePath": "/Users/Shared/Code/experimental/stoners-stack/stoners-contracts/contracts/StonersRock.sol",
  "compiler": {
    "name": "solc",
    "version": "0.8.4+commit.c7e474f2.Emscripten.clang"
  },
  "schemaVersion": "3.4.1",
  "updatedAt": "2021-07-11T21:06:37.040Z",
  "networkType": "ethereum",
  "devdoc": {
    "kind": "dev",
    "methods": {
      "approve(address,uint256)": {
        "details": "See {IERC721-approve}."
      },
      "balanceOf(address)": {
        "details": "See {IERC721-balanceOf}."
      },
      "burn(uint256)": {
        "details": "Burns `tokenId`. See {ERC721-_burn}. Requirements: - The caller must own `tokenId` or be an approved operator."
      },
      "getApproved(uint256)": {
        "details": "See {IERC721-getApproved}."
      },
      "isApprovedForAll(address,address)": {
        "details": "See {IERC721-isApprovedForAll}."
      },
      "name()": {
        "details": "See {IERC721Metadata-name}."
      },
      "owner()": {
        "details": "Returns the address of the current owner."
      },
      "ownerOf(uint256)": {
        "details": "See {IERC721-ownerOf}."
      },
      "renounceOwnership()": {
        "details": "Leaves the contract without owner. It will not be possible to call `onlyOwner` functions anymore. Can only be called by the current owner. NOTE: Renouncing ownership will leave the contract without an owner, thereby removing any functionality that is only available to the owner."
      },
      "safeTransferFrom(address,address,uint256)": {
        "details": "See {IERC721-safeTransferFrom}."
      },
      "safeTransferFrom(address,address,uint256,bytes)": {
        "details": "See {IERC721-safeTransferFrom}."
      },
      "setApprovalForAll(address,bool)": {
        "details": "See {IERC721-setApprovalForAll}."
      },
      "supportsInterface(bytes4)": {
        "details": "See {IERC165-supportsInterface}."
      },
      "symbol()": {
        "details": "See {IERC721Metadata-symbol}."
      },
      "tokenURI(uint256)": {
        "details": "See {IERC721Metadata-tokenURI}."
      },
      "transferFrom(address,address,uint256)": {
        "details": "See {IERC721-transferFrom}."
      },
      "transferOwnership(address)": {
        "details": "Transfers ownership of the contract to a new account (`newOwner`). Can only be called by the current owner."
      }
    },
    "version": 1
  },
  "userdoc": {
    "kind": "user",
    "methods": {
      "getRocksByOwner(address)": {
        "notice": "External function for getting all rocks by a specific owner."
      },
      "mintRock(uint256)": {
        "notice": "Public function for minting a rock and enforcing requirements."
      }
    },
    "version": 1
  }
}