{
  "contractName": "StonersRock",
  "abi": [
    {
      "inputs": [
        {
          "internalType": "string",
          "name": "_baseUri",
          "type": "string"
        }
      ],
      "stateMutability": "nonpayable",
      "type": "constructor"
    },
    {
      "anonymous": false,
      "inputs": [
        {
          "indexed": true,
          "internalType": "address",
          "name": "owner",
          "type": "address"
        },
        {
          "indexed": true,
          "internalType": "address",
          "name": "approved",
          "type": "address"
        },
        {
          "indexed": true,
          "internalType": "uint256",
          "name": "tokenId",
          "type": "uint256"
        }
      ],
      "name": "Approval",
      "type": "event"
    },
    {
      "anonymous": false,
      "inputs": [
        {
          "indexed": true,
          "internalType": "address",
          "name": "owner",
          "type": "address"
        },
        {
          "indexed": true,
          "internalType": "address",
          "name": "operator",
          "type": "address"
        },
        {
          "indexed": false,
          "internalType": "bool",
          "name": "approved",
          "type": "bool"
        }
      ],
      "name": "ApprovalForAll",
      "type": "event"
    },
    {
      "anonymous": false,
      "inputs": [
        {
          "indexed": true,
          "internalType": "address",
          "name": "previousOwner",
          "type": "address"
        },
        {
          "indexed": true,
          "internalType": "address",
          "name": "newOwner",
          "type": "address"
        }
      ],
      "name": "OwnershipTransferred",
      "type": "event"
    },
    {
      "anonymous": false,
      "inputs": [
        {
          "indexed": false,
          "internalType": "address",
          "name": "minter",
          "type": "address"
        },
        {
          "indexed": false,
          "internalType": "uint256",
          "name": "tokenId",
          "type": "uint256"
        },
        {
          "indexed": false,
          "internalType": "string",
          "name": "tokenUri",
          "type": "string"
        }
      ],
      "name": "RockMinted",
      "type": "event"
    },
    {
      "anonymous": false,
      "inputs": [
        {
          "indexed": true,
          "internalType": "address",
          "name": "from",
          "type": "address"
        },
        {
          "indexed": true,
          "internalType": "address",
          "name": "to",
          "type": "address"
        },
        {
          "indexed": true,
          "internalType": "uint256",
          "name": "tokenId",
          "type": "uint256"
        }
      ],
      "name": "Transfer",
      "type": "event"
    },
    {
      "inputs": [],
      "name": "PROVENANCE",
      "outputs": [
        {
          "internalType": "string",
          "name": "",
          "type": "string"
        }
      ],
      "stateMutability": "view",
      "type": "function",
      "constant": true
    },
    {
      "inputs": [
        {
          "internalType": "address",
          "name": "to",
          "type": "address"
        },
        {
          "internalType": "uint256",
          "name": "tokenId",
          "type": "uint256"
        }
      ],
      "name": "approve",
      "outputs": [],
      "stateMutability": "nonpayable",
      "type": "function"
    },
    {
      "inputs": [
        {
          "internalType": "address",
          "name": "owner",
          "type": "address"
        }
      ],
      "name": "balanceOf",
      "outputs": [
        {
          "internalType": "uint256",
          "name": "",
          "type": "uint256"
        }
      ],
      "stateMutability": "view",
      "type": "function",
      "constant": true
    },
    {
      "inputs": [],
      "name": "baseUri",
      "outputs": [
        {
          "internalType": "string",
          "name": "",
          "type": "string"
        }
      ],
      "stateMutability": "view",
      "type": "function",
      "constant": true
    },
    {
      "inputs": [
        {
          "internalType": "uint256",
          "name": "tokenId",
          "type": "uint256"
        }
      ],
      "name": "burn",
      "outputs": [],
      "stateMutability": "nonpayable",
      "type": "function"
    },
    {
      "inputs": [
        {
          "internalType": "uint256",
          "name": "tokenId",
          "type": "uint256"
        }
      ],
      "name": "getApproved",
      "outputs": [
        {
          "internalType": "address",
          "name": "",
          "type": "address"
        }
      ],
      "stateMutability": "view",
      "type": "function",
      "constant": true
    },
    {
      "inputs": [
        {
          "internalType": "address",
          "name": "owner",
          "type": "address"
        },
        {
          "internalType": "address",
          "name": "operator",
          "type": "address"
        }
      ],
      "name": "isApprovedForAll",
      "outputs": [
        {
          "internalType": "bool",
          "name": "",
          "type": "bool"
        }
      ],
      "stateMutability": "view",
      "type": "function",
      "constant": true
    },
    {
      "inputs": [],
      "name": "maxReserveSupply",
      "outputs": [
        {
          "internalType": "uint256",
          "name": "",
          "type": "uint256"
        }
      ],
      "stateMutability": "view",
      "type": "function",
      "constant": true
    },
    {
      "inputs": [],
      "name": "maxRockPurchase",
      "outputs": [
        {
          "internalType": "uint256",
          "name": "",
          "type": "uint256"
        }
      ],
      "stateMutability": "view",
      "type": "function",
      "constant": true
    },
    {
      "inputs": [],
      "name": "maxRockSupply",
      "outputs": [
        {
          "internalType": "uint256",
          "name": "",
          "type": "uint256"
        }
      ],
      "stateMutability": "view",
      "type": "function",
      "constant": true
    },
    {
      "inputs": [],
      "name": "name",
      "outputs": [
        {
          "internalType": "string",
          "name": "",
          "type": "string"
        }
      ],
      "stateMutability": "view",
      "type": "function",
      "constant": true
    },
    {
      "inputs": [],
      "name": "owner",
      "outputs": [
        {
          "internalType": "address",
          "name": "",
          "type": "address"
        }
      ],
      "stateMutability": "view",
      "type": "function",
      "constant": true
    },
    {
      "inputs": [
        {
          "internalType": "uint256",
          "name": "tokenId",
          "type": "uint256"
        }
      ],
      "name": "ownerOf",
      "outputs": [
        {
          "internalType": "address",
          "name": "",
          "type": "address"
        }
      ],
      "stateMutability": "view",
      "type": "function",
      "constant": true
    },
    {
      "inputs": [],
      "name": "renounceOwnership",
      "outputs": [],
      "stateMutability": "nonpayable",
      "type": "function"
    },
    {
      "inputs": [],
      "name": "rockPrice",
      "outputs": [
        {
          "internalType": "uint256",
          "name": "",
          "type": "uint256"
        }
      ],
      "stateMutability": "view",
      "type": "function",
      "constant": true
    },
    {
      "inputs": [
        {
          "internalType": "address",
          "name": "from",
          "type": "address"
        },
        {
          "internalType": "address",
          "name": "to",
          "type": "address"
        },
        {
          "internalType": "uint256",
          "name": "tokenId",
          "type": "uint256"
        }
      ],
      "name": "safeTransferFrom",
      "outputs": [],
      "stateMutability": "nonpayable",
      "type": "function"
    },
    {
      "inputs": [
        {
          "internalType": "address",
          "name": "from",
          "type": "address"
        },
        {
          "internalType": "address",
          "name": "to",
          "type": "address"
        },
        {
          "internalType": "uint256",
          "name": "tokenId",
          "type": "uint256"
        },
        {
          "internalType": "bytes",
          "name": "_data",
          "type": "bytes"
        }
      ],
      "name": "safeTransferFrom",
      "outputs": [],
      "stateMutability": "nonpayable",
      "type": "function"
    },
    {
      "inputs": [],
      "name": "saleStartBlock",
      "outputs": [
        {
          "internalType": "uint256",
          "name": "",
          "type": "uint256"
        }
      ],
      "stateMutability": "view",
      "type": "function",
      "constant": true
    },
    {
      "inputs": [
        {
          "internalType": "address",
          "name": "operator",
          "type": "address"
        },
        {
          "internalType": "bool",
          "name": "approved",
          "type": "bool"
        }
      ],
      "name": "setApprovalForAll",
      "outputs": [],
      "stateMutability": "nonpayable",
      "type": "function"
    },
    {
      "inputs": [],
      "name": "splitContract",
      "outputs": [
        {
          "internalType": "address payable",
          "name": "",
          "type": "address"
        }
      ],
      "stateMutability": "view",
      "type": "function",
      "constant": true
    },
    {
      "inputs": [
        {
          "internalType": "bytes4",
          "name": "interfaceId",
          "type": "bytes4"
        }
      ],
      "name": "supportsInterface",
      "outputs": [
        {
          "internalType": "bool",
          "name": "",
          "type": "bool"
        }
      ],
      "stateMutability": "view",
      "type": "function",
      "constant": true
    },
    {
      "inputs": [],
      "name": "symbol",
      "outputs": [
        {
          "internalType": "string",
          "name": "",
          "type": "string"
        }
      ],
      "stateMutability": "view",
      "type": "function",
      "constant": true
    },
    {
      "inputs": [
        {
          "internalType": "uint256",
          "name": "tokenId",
          "type": "uint256"
        }
      ],
      "name": "tokenURI",
      "outputs": [
        {
          "internalType": "string",
          "name": "",
          "type": "string"
        }
      ],
      "stateMutability": "view",
      "type": "function",
      "constant": true
    },
    {
      "inputs": [
        {
          "internalType": "address",
          "name": "from",
          "type": "address"
        },
        {
          "internalType": "address",
          "name": "to",
          "type": "address"
        },
        {
          "internalType": "uint256",
          "name": "tokenId",
          "type": "uint256"
        }
      ],
      "name": "transferFrom",
      "outputs": [],
      "stateMutability": "nonpayable",
      "type": "function"
    },
    {
      "inputs": [
        {
          "internalType": "address",
          "name": "newOwner",
          "type": "address"
        }
      ],
      "name": "transferOwnership",
      "outputs": [],
      "stateMutability": "nonpayable",
      "type": "function"
    },
    {
      "inputs": [],
      "name": "saleStarted",
      "outputs": [
        {
          "internalType": "bool",
          "name": "",
          "type": "bool"
        }
      ],
      "stateMutability": "view",
      "type": "function",
      "constant": true
    },
    {
      "inputs": [
        {
          "internalType": "uint256",
          "name": "numberOfTokens",
          "type": "uint256"
        }
      ],
      "name": "reserveRocks",
      "outputs": [],
      "stateMutability": "nonpayable",
      "type": "function"
    },
    {
      "inputs": [],
      "name": "getCurrentRockId",
      "outputs": [
        {
          "internalType": "uint256",
          "name": "currentRockId",
          "type": "uint256"
        }
      ],
      "stateMutability": "view",
      "type": "function",
      "constant": true
    },
    {
      "inputs": [],
      "name": "getCurrentReserveId",
      "outputs": [
        {
          "internalType": "uint256",
          "name": "currentRockId",
          "type": "uint256"
        }
      ],
      "stateMutability": "view",
      "type": "function",
      "constant": true
    },
    {
      "inputs": [
        {
          "internalType": "uint256",
          "name": "numberOfTokens",
          "type": "uint256"
        }
      ],
      "name": "mintRock",
      "outputs": [],
      "stateMutability": "payable",
      "type": "function",
      "payable": true
    },
    {
      "inputs": [
        {
          "internalType": "address",
          "name": "_owner",
          "type": "address"
        }
      ],
      "name": "getRocksByOwner",
      "outputs": [
        {
          "internalType": "uint256[]",
          "name": "",
          "type": "uint256[]"
        }
      ],
      "stateMutability": "view",
      "type": "function",
      "constant": true
    },
    {
      "inputs": [
        {
          "internalType": "address payable",
          "name": "_splitContract",
          "type": "address"
        }
      ],
      "name": "setRoyaltyContract",
      "outputs": [],
      "stateMutability": "nonpayable",
      "type": "function"
    },
    {
      "inputs": [
        {
          "internalType": "string",
          "name": "_baseUri",
          "type": "string"
        }
      ],
      "name": "setBaseUri",
      "outputs": [],
      "stateMutability": "nonpayable",
      "type": "function"
    },
    {
      "inputs": [
        {
          "internalType": "string",
          "name": "_hash",
          "type": "string"
        }
      ],
      "name": "setProvenanceHash",
      "outputs": [],
      "stateMutability": "nonpayable",
      "type": "function"
    },
    {
      "inputs": [
        {
          "internalType": "uint256",
          "name": "_saleStartBlock",
          "type": "uint256"
        }
      ],
      "name": "setSaleStartBlock",
      "outputs": [],
      "stateMutability": "nonpayable",
      "type": "function"
    },
    {
      "inputs": [
        {
          "internalType": "uint256",
          "name": "amount",
          "type": "uint256"
        }
      ],
      "name": "withdraw",
      "outputs": [],
      "stateMutability": "nonpayable",
      "type": "function"
    },
    {
      "inputs": [],
      "name": "withdrawRoyalties",
      "outputs": [],
      "stateMutability": "nonpayable",
      "type": "function"
    },
    {
      "inputs": [
        {
          "internalType": "contract IERC20",
          "name": "_token",
          "type": "address"
        },
        {
          "internalType": "uint256",
          "name": "_amount",
          "type": "uint256"
        }
      ],
      "name": "forwardERC20s",
      "outputs": [],
      "stateMutability": "nonpayable",
      "type": "function"
    },
    {
      "inputs": [
        {
          "internalType": "bytes",
          "name": "s",
          "type": "bytes"
        }
      ],
      "name": "uploadRockImages",
      "outputs": [],
      "stateMutability": "nonpayable",
      "type": "function"
    },
    {
      "inputs": [
        {
          "internalType": "bytes",
          "name": "s",
          "type": "bytes"
        }
      ],
      "name": "uploadRockAttributes",
      "outputs": [],
      "stateMutability": "nonpayable",
      "type": "function"
    }
  ],
  "bytecode": "0x608060405260405180602001604052806000815250600990805190602001906200002b929190620001ec565b5063072ae059600b553480156200004157600080fd5b5060405162004e8438038062004e8483398181016040528101906200006791906200030e565b6040518060400160405280600781526020017f53746f6e657273000000000000000000000000000000000000000000000000008152506040518060400160405280600481526020017f524f434b000000000000000000000000000000000000000000000000000000008152508160009080519060200190620000eb929190620001ec565b50806001908051906020019062000104929190620001ec565b505050600062000119620001e460201b60201c565b905080600660006101000a81548173ffffffffffffffffffffffffffffffffffffffff021916908373ffffffffffffffffffffffffffffffffffffffff1602179055508073ffffffffffffffffffffffffffffffffffffffff16600073ffffffffffffffffffffffffffffffffffffffff167f8be0079c531659141344cd1fd0a4f28419497f9722a3daafe3b4186f6b6457e060405160405180910390a35080600a9080519060200190620001d0929190620001ec565b506101a460076000018190555050620004c3565b600033905090565b828054620001fa90620003e8565b90600052602060002090601f0160209004810192826200021e57600085556200026a565b82601f106200023957805160ff19168380011785556200026a565b828001600101855582156200026a579182015b82811115620002695782518255916020019190600101906200024c565b5b5090506200027991906200027d565b5090565b5b80821115620002985760008160009055506001016200027e565b5090565b6000620002b3620002ad846200037c565b62000353565b905082815260208101848484011115620002cc57600080fd5b620002d9848285620003b2565b509392505050565b600082601f830112620002f357600080fd5b8151620003058482602086016200029c565b91505092915050565b6000602082840312156200032157600080fd5b600082015167ffffffffffffffff8111156200033c57600080fd5b6200034a84828501620002e1565b91505092915050565b60006200035f62000372565b90506200036d82826200041e565b919050565b6000604051905090565b600067ffffffffffffffff8211156200039a576200039962000483565b5b620003a582620004b2565b9050602081019050919050565b60005b83811015620003d2578082015181840152602081019050620003b5565b83811115620003e2576000848401525b50505050565b600060028204905060018216806200040157607f821691505b6020821081141562000418576200041762000454565b5b50919050565b6200042982620004b2565b810181811067ffffffffffffffff821117156200044b576200044a62000483565b5b80604052505050565b7f4e487b7100000000000000000000000000000000000000000000000000000000600052602260045260246000fd5b7f4e487b7100000000000000000000000000000000000000000000000000000000600052604160045260246000fd5b6000601f19601f8301169050919050565b6149b180620004d36000396000f3fe60806040526004361061023b5760003560e01c80638dd7ca461161012e578063ab17ef61116100ab578063da7e33651161006f578063da7e336514610847578063dee8dc3e14610872578063e42261231461088e578063e985e9c5146108b9578063f2fde38b146108f65761023b565b8063ab17ef6114610764578063b88d4fde1461078d578063c87b56dd146107b6578063cffb47cf146107f3578063d9aa187c1461081e5761023b565b80639ceeb71c116100f25780639ceeb71c14610693578063a0bcfc7f146106bc578063a1ab609b146106e5578063a22cb46514610710578063a7fcf250146107395761023b565b80638dd7ca46146105ae5780639064a7eb146105eb57806395d89b41146106145780639727151a1461063f5780639abc8320146106685761023b565b80632e1a7d4d116101bc5780636352211e116101805780636352211e146104c75780636373a6b11461050457806370a082311461052f578063715018a61461056c5780638da5cb5b146105835761023b565b80632e1a7d4d146103f8578063384c8eed1461042157806342842e0e1461044a57806342966c68146104735780635c474f9e1461049c5761023b565b8063160928d311610203578063160928d314610337578063167fe9be14610362578063200272751461038d57806321c34fcb146103b857806323b872dd146103cf5761023b565b806301ffc9a71461024057806306fdde031461027d578063081812fc146102a8578063095ea7b3146102e5578063109695231461030e575b600080fd5b34801561024c57600080fd5b50610267600480360381019061026291906133eb565b61091f565b6040516102749190613ac5565b60405180910390f35b34801561028957600080fd5b50610292610a01565b60405161029f9190613ae0565b60405180910390f35b3480156102b457600080fd5b506102cf60048036038101906102ca91906134ff565b610a93565b6040516102dc91906139f8565b60405180910390f35b3480156102f157600080fd5b5061030c60048036038101906103079190613386565b610b18565b005b34801561031a57600080fd5b50610335600480360381019061033091906134be565b610c30565b005b34801561034357600080fd5b5061034c610d0e565b6040516103599190613e02565b60405180910390f35b34801561036e57600080fd5b50610377610d1f565b6040516103849190613e02565b60405180910390f35b34801561039957600080fd5b506103a2610d25565b6040516103af9190613e02565b60405180910390f35b3480156103c457600080fd5b506103cd610d2b565b005b3480156103db57600080fd5b506103f660048036038101906103f19190613280565b610e2b565b005b34801561040457600080fd5b5061041f600480360381019061041a91906134ff565b610e8b565b005b34801561042d57600080fd5b506104486004803603810190610443919061343d565b610f51565b005b34801561045657600080fd5b50610471600480360381019061046c9190613280565b610fd1565b005b34801561047f57600080fd5b5061049a600480360381019061049591906134ff565b610ff1565b005b3480156104a857600080fd5b506104b161104d565b6040516104be9190613ac5565b60405180910390f35b3480156104d357600080fd5b506104ee60048036038101906104e991906134ff565b61105a565b6040516104fb91906139f8565b60405180910390f35b34801561051057600080fd5b5061051961110c565b6040516105269190613ae0565b60405180910390f35b34801561053b57600080fd5b50610556600480360381019061055191906131f2565b61119a565b6040516105639190613e02565b60405180910390f35b34801561057857600080fd5b50610581611252565b005b34801561058f57600080fd5b5061059861138f565b6040516105a591906139f8565b60405180910390f35b3480156105ba57600080fd5b506105d560048036038101906105d091906131f2565b6113b9565b6040516105e29190613aa3565b60405180910390f35b3480156105f757600080fd5b50610612600480360381019061060d919061343d565b61159c565b005b34801561062057600080fd5b5061062961161c565b6040516106369190613ae0565b60405180910390f35b34801561064b57600080fd5b5061066660048036038101906106619190613482565b6116ae565b005b34801561067457600080fd5b5061067d6117bc565b60405161068a9190613ae0565b60405180910390f35b34801561069f57600080fd5b506106ba60048036038101906106b591906134ff565b61184a565b005b3480156106c857600080fd5b506106e360048036038101906106de91906134be565b611918565b005b3480156106f157600080fd5b506106fa6119f6565b6040516107079190613a13565b60405180910390f35b34801561071c57600080fd5b506107376004803603810190610732919061334a565b611a1c565b005b34801561074557600080fd5b5061074e611b9d565b60405161075b9190613e02565b60405180910390f35b34801561077057600080fd5b5061078b600480360381019061078691906134ff565b611bae565b005b34801561079957600080fd5b506107b460048036038101906107af91906132cf565b611d19565b005b3480156107c257600080fd5b506107dd60048036038101906107d891906134ff565b611d7b565b6040516107ea9190613ae0565b60405180910390f35b3480156107ff57600080fd5b50610808611e22565b6040516108159190613e02565b60405180910390f35b34801561082a57600080fd5b506108456004803603810190610840919061321b565b611e28565b005b34801561085357600080fd5b5061085c611ee8565b6040516108699190613e02565b60405180910390f35b61088c600480360381019061088791906134ff565b611eed565b005b34801561089a57600080fd5b506108a361207f565b6040516108b09190613e02565b60405180910390f35b3480156108c557600080fd5b506108e060048036038101906108db9190613244565b61208a565b6040516108ed9190613ac5565b60405180910390f35b34801561090257600080fd5b5061091d600480360381019061091891906131f2565b61211e565b005b60007f80ac58cd000000000000000000000000000000000000000000000000000000007bffffffffffffffffffffffffffffffffffffffffffffffffffffffff1916827bffffffffffffffffffffffffffffffffffffffffffffffffffffffff191614806109ea57507f5b5e139f000000000000000000000000000000000000000000000000000000007bffffffffffffffffffffffffffffffffffffffffffffffffffffffff1916827bffffffffffffffffffffffffffffffffffffffffffffffffffffffff1916145b806109fa57506109f9826122ca565b5b9050919050565b606060008054610a109061410f565b80601f0160208091040260200160405190810160405280929190818152602001828054610a3c9061410f565b8015610a895780601f10610a5e57610100808354040283529160200191610a89565b820191906000526020600020905b815481529060010190602001808311610a6c57829003601f168201915b5050505050905090565b6000610a9e82612334565b610add576040517f08c379a0000000000000000000000000000000000000000000000000000000008152600401610ad490613cc2565b60405180910390fd5b6004600083815260200190815260200160002060009054906101000a900473ffffffffffffffffffffffffffffffffffffffff169050919050565b6000610b238261105a565b90508073ffffffffffffffffffffffffffffffffffffffff168373ffffffffffffffffffffffffffffffffffffffff161415610b94576040517f08c379a0000000000000000000000000000000000000000000000000000000008152600401610b8b90613d62565b60405180910390fd5b8073ffffffffffffffffffffffffffffffffffffffff16610bb36123a0565b73ffffffffffffffffffffffffffffffffffffffff161480610be25750610be181610bdc6123a0565b61208a565b5b610c21576040517f08c379a0000000000000000000000000000000000000000000000000000000008152600401610c1890613c22565b60405180910390fd5b610c2b83836123a8565b505050565b610c386123a0565b73ffffffffffffffffffffffffffffffffffffffff16610c5661138f565b73ffffffffffffffffffffffffffffffffffffffff1614610cac576040517f08c379a0000000000000000000000000000000000000000000000000000000008152600401610ca390613ce2565b60405180910390fd5b610cb461104d565b15610cf4576040517f08c379a0000000000000000000000000000000000000000000000000000000008152600401610ceb90613b82565b60405180910390fd5b8060099080519060200190610d0a929190612f8d565b5050565b6000610d1a6007612461565b905090565b6128b481565b600b5481565b610d336123a0565b73ffffffffffffffffffffffffffffffffffffffff16610d5161138f565b73ffffffffffffffffffffffffffffffffffffffff1614610da7576040517f08c379a0000000000000000000000000000000000000000000000000000000008152600401610d9e90613ce2565b60405180910390fd5b600c60009054906101000a900473ffffffffffffffffffffffffffffffffffffffff1673ffffffffffffffffffffffffffffffffffffffff166386d1a69f6040518163ffffffff1660e01b8152600401600060405180830381600087803b158015610e1157600080fd5b505af1158015610e25573d6000803e3d6000fd5b50505050565b610e3c610e366123a0565b8261246f565b610e7b576040517f08c379a0000000000000000000000000000000000000000000000000000000008152600401610e7290613d82565b60405180910390fd5b610e8683838361254d565b505050565b610e936123a0565b73ffffffffffffffffffffffffffffffffffffffff16610eb161138f565b73ffffffffffffffffffffffffffffffffffffffff1614610f07576040517f08c379a0000000000000000000000000000000000000000000000000000000008152600401610efe90613ce2565b60405180910390fd5b3373ffffffffffffffffffffffffffffffffffffffff166108fc829081150290604051600060405180830381858888f19350505050158015610f4d573d6000803e3d6000fd5b5050565b610f596123a0565b73ffffffffffffffffffffffffffffffffffffffff16610f7761138f565b73ffffffffffffffffffffffffffffffffffffffff1614610fcd576040517f08c379a0000000000000000000000000000000000000000000000000000000008152600401610fc490613ce2565b60405180910390fd5b5050565b610fec83838360405180602001604052806000815250611d19565b505050565b611002610ffc6123a0565b8261246f565b611041576040517f08c379a000000000000000000000000000000000000000000000000000000000815260040161103890613dc2565b60405180910390fd5b61104a816127a9565b50565b6000600b54431015905090565b6000806002600084815260200190815260200160002060009054906101000a900473ffffffffffffffffffffffffffffffffffffffff169050600073ffffffffffffffffffffffffffffffffffffffff168173ffffffffffffffffffffffffffffffffffffffff161415611103576040517f08c379a00000000000000000000000000000000000000000000000000000000081526004016110fa90613c62565b60405180910390fd5b80915050919050565b600980546111199061410f565b80601f01602080910402602001604051908101604052809291908181526020018280546111459061410f565b80156111925780601f1061116757610100808354040283529160200191611192565b820191906000526020600020905b81548152906001019060200180831161117557829003601f168201915b505050505081565b60008073ffffffffffffffffffffffffffffffffffffffff168273ffffffffffffffffffffffffffffffffffffffff16141561120b576040517f08c379a000000000000000000000000000000000000000000000000000000000815260040161120290613c42565b60405180910390fd5b600360008373ffffffffffffffffffffffffffffffffffffffff1673ffffffffffffffffffffffffffffffffffffffff168152602001908152602001600020549050919050565b61125a6123a0565b73ffffffffffffffffffffffffffffffffffffffff1661127861138f565b73ffffffffffffffffffffffffffffffffffffffff16146112ce576040517f08c379a00000000000000000000000000000000000000000000000000000000081526004016112c590613ce2565b60405180910390fd5b600073ffffffffffffffffffffffffffffffffffffffff16600660009054906101000a900473ffffffffffffffffffffffffffffffffffffffff1673ffffffffffffffffffffffffffffffffffffffff167f8be0079c531659141344cd1fd0a4f28419497f9722a3daafe3b4186f6b6457e060405160405180910390a36000600660006101000a81548173ffffffffffffffffffffffffffffffffffffffff021916908373ffffffffffffffffffffffffffffffffffffffff160217905550565b6000600660009054906101000a900473ffffffffffffffffffffffffffffffffffffffff16905090565b606060006113c68361119a565b9050600081141561144957600067ffffffffffffffff811115611412577f4e487b7100000000000000000000000000000000000000000000000000000000600052604160045260246000fd5b6040519080825280602002602001820160405280156114405781602001602082028036833780820191505090505b50915050611597565b60008167ffffffffffffffff81111561148b577f4e487b7100000000000000000000000000000000000000000000000000000000600052604160045260246000fd5b6040519080825280602002602001820160405280156114b95781602001602082028036833780820191505090505b50905060006114c86007612461565b9050600080600190505b82811161158e576114e281612334565b801561152157508673ffffffffffffffffffffffffffffffffffffffff166115098261105a565b73ffffffffffffffffffffffffffffffffffffffff16145b1561157b5780848381518110611560577f4e487b7100000000000000000000000000000000000000000000000000000000600052603260045260246000fd5b602002602001018181525050818061157790614172565b9250505b808061158690614172565b9150506114d2565b50829450505050505b919050565b6115a46123a0565b73ffffffffffffffffffffffffffffffffffffffff166115c261138f565b73ffffffffffffffffffffffffffffffffffffffff1614611618576040517f08c379a000000000000000000000000000000000000000000000000000000000815260040161160f90613ce2565b60405180910390fd5b5050565b60606001805461162b9061410f565b80601f01602080910402602001604051908101604052809291908181526020018280546116579061410f565b80156116a45780601f10611679576101008083540402835291602001916116a4565b820191906000526020600020905b81548152906001019060200180831161168757829003601f168201915b5050505050905090565b6116b66123a0565b73ffffffffffffffffffffffffffffffffffffffff166116d461138f565b73ffffffffffffffffffffffffffffffffffffffff161461172a576040517f08c379a000000000000000000000000000000000000000000000000000000000815260040161172190613ce2565b60405180910390fd5b8173ffffffffffffffffffffffffffffffffffffffff1663a9059cbb33836040518363ffffffff1660e01b8152600401611765929190613a7a565b602060405180830381600087803b15801561177f57600080fd5b505af1158015611793573d6000803e3d6000fd5b505050506040513d601f19601f820116820180604052508101906117b791906133c2565b505050565b600a80546117c99061410f565b80601f01602080910402602001604051908101604052809291908181526020018280546117f59061410f565b80156118425780601f1061181757610100808354040283529160200191611842565b820191906000526020600020905b81548152906001019060200180831161182557829003601f168201915b505050505081565b6118526123a0565b73ffffffffffffffffffffffffffffffffffffffff1661187061138f565b73ffffffffffffffffffffffffffffffffffffffff16146118c6576040517f08c379a00000000000000000000000000000000000000000000000000000000081526004016118bd90613ce2565b60405180910390fd5b6118ce61104d565b1561190e576040517f08c379a000000000000000000000000000000000000000000000000000000000815260040161190590613d22565b60405180910390fd5b80600b8190555050565b6119206123a0565b73ffffffffffffffffffffffffffffffffffffffff1661193e61138f565b73ffffffffffffffffffffffffffffffffffffffff1614611994576040517f08c379a000000000000000000000000000000000000000000000000000000000815260040161198b90613ce2565b60405180910390fd5b61199c61104d565b156119dc576040517f08c379a00000000000000000000000000000000000000000000000000000000081526004016119d390613c02565b60405180910390fd5b80600a90805190602001906119f2929190612f8d565b5050565b600c60009054906101000a900473ffffffffffffffffffffffffffffffffffffffff1681565b611a246123a0565b73ffffffffffffffffffffffffffffffffffffffff168273ffffffffffffffffffffffffffffffffffffffff161415611a92576040517f08c379a0000000000000000000000000000000000000000000000000000000008152600401611a8990613bc2565b60405180910390fd5b8060056000611a9f6123a0565b73ffffffffffffffffffffffffffffffffffffffff1673ffffffffffffffffffffffffffffffffffffffff16815260200190815260200160002060008473ffffffffffffffffffffffffffffffffffffffff1673ffffffffffffffffffffffffffffffffffffffff16815260200190815260200160002060006101000a81548160ff0219169083151502179055508173ffffffffffffffffffffffffffffffffffffffff16611b4c6123a0565b73ffffffffffffffffffffffffffffffffffffffff167f17307eab39ab6107e8899845ad3d59bd9653f200f220920489ca2b5937696c3183604051611b919190613ac5565b60405180910390a35050565b6000611ba96008612461565b905090565b611bb66123a0565b73ffffffffffffffffffffffffffffffffffffffff16611bd461138f565b73ffffffffffffffffffffffffffffffffffffffff1614611c2a576040517f08c379a0000000000000000000000000000000000000000000000000000000008152600401611c2190613ce2565b60405180910390fd5b6000611c366008612461565b90506014821115611c7c576040517f08c379a0000000000000000000000000000000000000000000000000000000008152600401611c7390613b02565b60405180910390fd5b6101a4611c9283836128ba90919063ffffffff16565b1115611cd3576040517f08c379a0000000000000000000000000000000000000000000000000000000008152600401611cca90613de2565b60405180910390fd5b60005b82811015611d1457611ce860086128d0565b6000611cf46008612461565b9050611d0033826128e6565b508080611d0c90614172565b915050611cd6565b505050565b611d2a611d246123a0565b8361246f565b611d69576040517f08c379a0000000000000000000000000000000000000000000000000000000008152600401611d6090613d82565b60405180910390fd5b611d7584848484612904565b50505050565b6060611d8682612334565b611dc5576040517f08c379a0000000000000000000000000000000000000000000000000000000008152600401611dbc90613d42565b60405180910390fd5b6000611dcf612960565b90506000815111611def5760405180602001604052806000815250611e1a565b80611df9846129f2565b604051602001611e0a9291906139d4565b6040516020818303038152906040525b915050919050565b6101a481565b611e306123a0565b73ffffffffffffffffffffffffffffffffffffffff16611e4e61138f565b73ffffffffffffffffffffffffffffffffffffffff1614611ea4576040517f08c379a0000000000000000000000000000000000000000000000000000000008152600401611e9b90613ce2565b60405180910390fd5b80600c60006101000a81548173ffffffffffffffffffffffffffffffffffffffff021916908373ffffffffffffffffffffffffffffffffffffffff16021790555050565b601481565b6000611ef96007612461565b9050611f0361104d565b611f42576040517f08c379a0000000000000000000000000000000000000000000000000000000008152600401611f3990613da2565b60405180910390fd5b6014821115611f86576040517f08c379a0000000000000000000000000000000000000000000000000000000008152600401611f7d90613b02565b60405180910390fd5b6128b4611f9c83836128ba90919063ffffffff16565b1115611fdd576040517f08c379a0000000000000000000000000000000000000000000000000000000008152600401611fd490613de2565b60405180910390fd5b34611ff88366957588590e5000612b9f90919063ffffffff16565b1115612039576040517f08c379a000000000000000000000000000000000000000000000000000000000815260040161203090613c82565b60405180910390fd5b60005b8281101561207a5761204e60076128d0565b600061205a6007612461565b905061206633826128e6565b50808061207290614172565b91505061203c565b505050565b66957588590e500081565b6000600560008473ffffffffffffffffffffffffffffffffffffffff1673ffffffffffffffffffffffffffffffffffffffff16815260200190815260200160002060008373ffffffffffffffffffffffffffffffffffffffff1673ffffffffffffffffffffffffffffffffffffffff16815260200190815260200160002060009054906101000a900460ff16905092915050565b6121266123a0565b73ffffffffffffffffffffffffffffffffffffffff1661214461138f565b73ffffffffffffffffffffffffffffffffffffffff161461219a576040517f08c379a000000000000000000000000000000000000000000000000000000000815260040161219190613ce2565b60405180910390fd5b600073ffffffffffffffffffffffffffffffffffffffff168173ffffffffffffffffffffffffffffffffffffffff16141561220a576040517f08c379a000000000000000000000000000000000000000000000000000000000815260040161220190613b42565b60405180910390fd5b8073ffffffffffffffffffffffffffffffffffffffff16600660009054906101000a900473ffffffffffffffffffffffffffffffffffffffff1673ffffffffffffffffffffffffffffffffffffffff167f8be0079c531659141344cd1fd0a4f28419497f9722a3daafe3b4186f6b6457e060405160405180910390a380600660006101000a81548173ffffffffffffffffffffffffffffffffffffffff021916908373ffffffffffffffffffffffffffffffffffffffff16021790555050565b60007f01ffc9a7000000000000000000000000000000000000000000000000000000007bffffffffffffffffffffffffffffffffffffffffffffffffffffffff1916827bffffffffffffffffffffffffffffffffffffffffffffffffffffffff1916149050919050565b60008073ffffffffffffffffffffffffffffffffffffffff166002600084815260200190815260200160002060009054906101000a900473ffffffffffffffffffffffffffffffffffffffff1673ffffffffffffffffffffffffffffffffffffffff1614159050919050565b600033905090565b816004600083815260200190815260200160002060006101000a81548173ffffffffffffffffffffffffffffffffffffffff021916908373ffffffffffffffffffffffffffffffffffffffff160217905550808273ffffffffffffffffffffffffffffffffffffffff1661241b8361105a565b73ffffffffffffffffffffffffffffffffffffffff167f8c5be1e5ebec7d5bd14f71427d1e84f3dd0314c0f7b2291e5b200ac8c7c3b92560405160405180910390a45050565b600081600001549050919050565b600061247a82612334565b6124b9576040517f08c379a00000000000000000000000000000000000000000000000000000000081526004016124b090613be2565b60405180910390fd5b60006124c48361105a565b90508073ffffffffffffffffffffffffffffffffffffffff168473ffffffffffffffffffffffffffffffffffffffff16148061253357508373ffffffffffffffffffffffffffffffffffffffff1661251b84610a93565b73ffffffffffffffffffffffffffffffffffffffff16145b806125445750612543818561208a565b5b91505092915050565b8273ffffffffffffffffffffffffffffffffffffffff1661256d8261105a565b73ffffffffffffffffffffffffffffffffffffffff16146125c3576040517f08c379a00000000000000000000000000000000000000000000000000000000081526004016125ba90613d02565b60405180910390fd5b600073ffffffffffffffffffffffffffffffffffffffff168273ffffffffffffffffffffffffffffffffffffffff161415612633576040517f08c379a000000000000000000000000000000000000000000000000000000000815260040161262a90613ba2565b60405180910390fd5b61263e838383612bb5565b6126496000826123a8565b6001600360008573ffffffffffffffffffffffffffffffffffffffff1673ffffffffffffffffffffffffffffffffffffffff16815260200190815260200160002060008282546126999190614001565b925050819055506001600360008473ffffffffffffffffffffffffffffffffffffffff1673ffffffffffffffffffffffffffffffffffffffff16815260200190815260200160002060008282546126f09190613f20565b92505081905550816002600083815260200190815260200160002060006101000a81548173ffffffffffffffffffffffffffffffffffffffff021916908373ffffffffffffffffffffffffffffffffffffffff160217905550808273ffffffffffffffffffffffffffffffffffffffff168473ffffffffffffffffffffffffffffffffffffffff167fddf252ad1be2c89b69c2b068fc378daa952ba7f163c4a11628f55a4df523b3ef60405160405180910390a4505050565b60006127b48261105a565b90506127c281600084612bb5565b6127cd6000836123a8565b6001600360008373ffffffffffffffffffffffffffffffffffffffff1673ffffffffffffffffffffffffffffffffffffffff168152602001908152602001600020600082825461281d9190614001565b925050819055506002600083815260200190815260200160002060006101000a81549073ffffffffffffffffffffffffffffffffffffffff021916905581600073ffffffffffffffffffffffffffffffffffffffff168273ffffffffffffffffffffffffffffffffffffffff167fddf252ad1be2c89b69c2b068fc378daa952ba7f163c4a11628f55a4df523b3ef60405160405180910390a45050565b600081836128c89190613f20565b905092915050565b6001816000016000828254019250508190555050565b612900828260405180602001604052806000815250612bba565b5050565b61290f84848461254d565b61291b84848484612c15565b61295a576040517f08c379a000000000000000000000000000000000000000000000000000000000815260040161295190613b22565b60405180910390fd5b50505050565b6060600a805461296f9061410f565b80601f016020809104026020016040519081016040528092919081815260200182805461299b9061410f565b80156129e85780601f106129bd576101008083540402835291602001916129e8565b820191906000526020600020905b8154815290600101906020018083116129cb57829003601f168201915b5050505050905090565b60606000821415612a3a576040518060400160405280600181526020017f30000000000000000000000000000000000000000000000000000000000000008152509050612b9a565b600082905060005b60008214612a6c578080612a5590614172565b915050600a82612a659190613f76565b9150612a42565b60008167ffffffffffffffff811115612aae577f4e487b7100000000000000000000000000000000000000000000000000000000600052604160045260246000fd5b6040519080825280601f01601f191660200182016040528015612ae05781602001600182028036833780820191505090505b5090505b60008514612b9357600182612af99190614001565b9150600a85612b0891906141bb565b6030612b149190613f20565b60f81b818381518110612b50577f4e487b7100000000000000000000000000000000000000000000000000000000600052603260045260246000fd5b60200101907effffffffffffffffffffffffffffffffffffffffffffffffffffffffffffff1916908160001a905350600a85612b8c9190613f76565b9450612ae4565b8093505050505b919050565b60008183612bad9190613fa7565b905092915050565b505050565b612bc48383612dac565b612bd16000848484612c15565b612c10576040517f08c379a0000000000000000000000000000000000000000000000000000000008152600401612c0790613b22565b60405180910390fd5b505050565b6000612c368473ffffffffffffffffffffffffffffffffffffffff16612f7a565b15612d9f578373ffffffffffffffffffffffffffffffffffffffff1663150b7a02612c5f6123a0565b8786866040518563ffffffff1660e01b8152600401612c819493929190613a2e565b602060405180830381600087803b158015612c9b57600080fd5b505af1925050508015612ccc57506040513d601f19601f82011682018060405250810190612cc99190613414565b60015b612d4f573d8060008114612cfc576040519150601f19603f3d011682016040523d82523d6000602084013e612d01565b606091505b50600081511415612d47576040517f08c379a0000000000000000000000000000000000000000000000000000000008152600401612d3e90613b22565b60405180910390fd5b805181602001fd5b63150b7a0260e01b7bffffffffffffffffffffffffffffffffffffffffffffffffffffffff1916817bffffffffffffffffffffffffffffffffffffffffffffffffffffffff191614915050612da4565b600190505b949350505050565b600073ffffffffffffffffffffffffffffffffffffffff168273ffffffffffffffffffffffffffffffffffffffff161415612e1c576040517f08c379a0000000000000000000000000000000000000000000000000000000008152600401612e1390613ca2565b60405180910390fd5b612e2581612334565b15612e65576040517f08c379a0000000000000000000000000000000000000000000000000000000008152600401612e5c90613b62565b60405180910390fd5b612e7160008383612bb5565b6001600360008473ffffffffffffffffffffffffffffffffffffffff1673ffffffffffffffffffffffffffffffffffffffff1681526020019081526020016000206000828254612ec19190613f20565b92505081905550816002600083815260200190815260200160002060006101000a81548173ffffffffffffffffffffffffffffffffffffffff021916908373ffffffffffffffffffffffffffffffffffffffff160217905550808273ffffffffffffffffffffffffffffffffffffffff16600073ffffffffffffffffffffffffffffffffffffffff167fddf252ad1be2c89b69c2b068fc378daa952ba7f163c4a11628f55a4df523b3ef60405160405180910390a45050565b600080823b905060008111915050919050565b828054612f999061410f565b90600052602060002090601f016020900481019282612fbb5760008555613002565b82601f10612fd457805160ff1916838001178555613002565b82800160010185558215613002579182015b82811115613001578251825591602001919060010190612fe6565b5b50905061300f9190613013565b5090565b5b8082111561302c576000816000905550600101613014565b5090565b600061304361303e84613e42565b613e1d565b90508281526020810184848401111561305b57600080fd5b6130668482856140cd565b509392505050565b600061308161307c84613e73565b613e1d565b90508281526020810184848401111561309957600080fd5b6130a48482856140cd565b509392505050565b6000813590506130bb816148f1565b92915050565b6000813590506130d081614908565b92915050565b6000813590506130e58161491f565b92915050565b6000815190506130fa8161491f565b92915050565b60008135905061310f81614936565b92915050565b60008151905061312481614936565b92915050565b60008083601f84011261313c57600080fd5b8235905067ffffffffffffffff81111561315557600080fd5b60208301915083600182028301111561316d57600080fd5b9250929050565b600082601f83011261318557600080fd5b8135613195848260208601613030565b91505092915050565b6000813590506131ad8161494d565b92915050565b600082601f8301126131c457600080fd5b81356131d484826020860161306e565b91505092915050565b6000813590506131ec81614964565b92915050565b60006020828403121561320457600080fd5b6000613212848285016130ac565b91505092915050565b60006020828403121561322d57600080fd5b600061323b848285016130c1565b91505092915050565b6000806040838503121561325757600080fd5b6000613265858286016130ac565b9250506020613276858286016130ac565b9150509250929050565b60008060006060848603121561329557600080fd5b60006132a3868287016130ac565b93505060206132b4868287016130ac565b92505060406132c5868287016131dd565b9150509250925092565b600080600080608085870312156132e557600080fd5b60006132f3878288016130ac565b9450506020613304878288016130ac565b9350506040613315878288016131dd565b925050606085013567ffffffffffffffff81111561333257600080fd5b61333e87828801613174565b91505092959194509250565b6000806040838503121561335d57600080fd5b600061336b858286016130ac565b925050602061337c858286016130d6565b9150509250929050565b6000806040838503121561339957600080fd5b60006133a7858286016130ac565b92505060206133b8858286016131dd565b9150509250929050565b6000602082840312156133d457600080fd5b60006133e2848285016130eb565b91505092915050565b6000602082840312156133fd57600080fd5b600061340b84828501613100565b91505092915050565b60006020828403121561342657600080fd5b600061343484828501613115565b91505092915050565b6000806020838503121561345057600080fd5b600083013567ffffffffffffffff81111561346a57600080fd5b6134768582860161312a565b92509250509250929050565b6000806040838503121561349557600080fd5b60006134a38582860161319e565b92505060206134b4858286016131dd565b9150509250929050565b6000602082840312156134d057600080fd5b600082013567ffffffffffffffff8111156134ea57600080fd5b6134f6848285016131b3565b91505092915050565b60006020828403121561351157600080fd5b600061351f848285016131dd565b91505092915050565b600061353483836139b6565b60208301905092915050565b61354981614047565b82525050565b61355881614035565b82525050565b600061356982613eb4565b6135738185613ee2565b935061357e83613ea4565b8060005b838110156135af5781516135968882613528565b97506135a183613ed5565b925050600181019050613582565b5085935050505092915050565b6135c581614059565b82525050565b60006135d682613ebf565b6135e08185613ef3565b93506135f08185602086016140dc565b6135f9816142a8565b840191505092915050565b600061360f82613eca565b6136198185613f04565b93506136298185602086016140dc565b613632816142a8565b840191505092915050565b600061364882613eca565b6136528185613f15565b93506136628185602086016140dc565b80840191505092915050565b600061367b600b83613f04565b9150613686826142b9565b602082019050919050565b600061369e603283613f04565b91506136a9826142e2565b604082019050919050565b60006136c1602683613f04565b91506136cc82614331565b604082019050919050565b60006136e4601c83613f04565b91506136ef82614380565b602082019050919050565b6000613707603183613f04565b9150613712826143a9565b604082019050919050565b600061372a602483613f04565b9150613735826143f8565b604082019050919050565b600061374d601983613f04565b915061375882614447565b602082019050919050565b6000613770602c83613f04565b915061377b82614470565b604082019050919050565b6000613793602b83613f04565b915061379e826144bf565b604082019050919050565b60006137b6603883613f04565b91506137c18261450e565b604082019050919050565b60006137d9602a83613f04565b91506137e48261455d565b604082019050919050565b60006137fc602983613f04565b9150613807826145ac565b604082019050919050565b600061381f601183613f04565b915061382a826145fb565b602082019050919050565b6000613842602083613f04565b915061384d82614624565b602082019050919050565b6000613865602c83613f04565b91506138708261464d565b604082019050919050565b6000613888602083613f04565b91506138938261469c565b602082019050919050565b60006138ab602983613f04565b91506138b6826146c5565b604082019050919050565b60006138ce603483613f04565b91506138d982614714565b604082019050919050565b60006138f1602f83613f04565b91506138fc82614763565b604082019050919050565b6000613914602183613f04565b915061391f826147b2565b604082019050919050565b6000613937603183613f04565b915061394282614801565b604082019050919050565b600061395a601b83613f04565b915061396582614850565b602082019050919050565b600061397d603083613f04565b915061398882614879565b604082019050919050565b60006139a0601583613f04565b91506139ab826148c8565b602082019050919050565b6139bf816140c3565b82525050565b6139ce816140c3565b82525050565b60006139e0828561363d565b91506139ec828461363d565b91508190509392505050565b6000602082019050613a0d600083018461354f565b92915050565b6000602082019050613a286000830184613540565b92915050565b6000608082019050613a43600083018761354f565b613a50602083018661354f565b613a5d60408301856139c5565b8181036060830152613a6f81846135cb565b905095945050505050565b6000604082019050613a8f600083018561354f565b613a9c60208301846139c5565b9392505050565b60006020820190508181036000830152613abd818461355e565b905092915050565b6000602082019050613ada60008301846135bc565b92915050565b60006020820190508181036000830152613afa8184613604565b905092915050565b60006020820190508181036000830152613b1b8161366e565b9050919050565b60006020820190508181036000830152613b3b81613691565b9050919050565b60006020820190508181036000830152613b5b816136b4565b9050919050565b60006020820190508181036000830152613b7b816136d7565b9050919050565b60006020820190508181036000830152613b9b816136fa565b9050919050565b60006020820190508181036000830152613bbb8161371d565b9050919050565b60006020820190508181036000830152613bdb81613740565b9050919050565b60006020820190508181036000830152613bfb81613763565b9050919050565b60006020820190508181036000830152613c1b81613786565b9050919050565b60006020820190508181036000830152613c3b816137a9565b9050919050565b60006020820190508181036000830152613c5b816137cc565b9050919050565b60006020820190508181036000830152613c7b816137ef565b9050919050565b60006020820190508181036000830152613c9b81613812565b9050919050565b60006020820190508181036000830152613cbb81613835565b9050919050565b60006020820190508181036000830152613cdb81613858565b9050919050565b60006020820190508181036000830152613cfb8161387b565b9050919050565b60006020820190508181036000830152613d1b8161389e565b9050919050565b60006020820190508181036000830152613d3b816138c1565b9050919050565b60006020820190508181036000830152613d5b816138e4565b9050919050565b60006020820190508181036000830152613d7b81613907565b9050919050565b60006020820190508181036000830152613d9b8161392a565b9050919050565b60006020820190508181036000830152613dbb8161394d565b9050919050565b60006020820190508181036000830152613ddb81613970565b9050919050565b60006020820190508181036000830152613dfb81613993565b9050919050565b6000602082019050613e1760008301846139c5565b92915050565b6000613e27613e38565b9050613e338282614141565b919050565b6000604051905090565b600067ffffffffffffffff821115613e5d57613e5c614279565b5b613e66826142a8565b9050602081019050919050565b600067ffffffffffffffff821115613e8e57613e8d614279565b5b613e97826142a8565b9050602081019050919050565b6000819050602082019050919050565b600081519050919050565b600081519050919050565b600081519050919050565b6000602082019050919050565b600082825260208201905092915050565b600082825260208201905092915050565b600082825260208201905092915050565b600081905092915050565b6000613f2b826140c3565b9150613f36836140c3565b9250827fffffffffffffffffffffffffffffffffffffffffffffffffffffffffffffffff03821115613f6b57613f6a6141ec565b5b828201905092915050565b6000613f81826140c3565b9150613f8c836140c3565b925082613f9c57613f9b61421b565b5b828204905092915050565b6000613fb2826140c3565b9150613fbd836140c3565b9250817fffffffffffffffffffffffffffffffffffffffffffffffffffffffffffffffff0483118215151615613ff657613ff56141ec565b5b828202905092915050565b600061400c826140c3565b9150614017836140c3565b92508282101561402a576140296141ec565b5b828203905092915050565b6000614040826140a3565b9050919050565b6000614052826140a3565b9050919050565b60008115159050919050565b60007fffffffff0000000000000000000000000000000000000000000000000000000082169050919050565b600061409c82614035565b9050919050565b600073ffffffffffffffffffffffffffffffffffffffff82169050919050565b6000819050919050565b82818337600083830152505050565b60005b838110156140fa5780820151818401526020810190506140df565b83811115614109576000848401525b50505050565b6000600282049050600182168061412757607f821691505b6020821081141561413b5761413a61424a565b5b50919050565b61414a826142a8565b810181811067ffffffffffffffff8211171561416957614168614279565b5b80604052505050565b600061417d826140c3565b91507fffffffffffffffffffffffffffffffffffffffffffffffffffffffffffffffff8214156141b0576141af6141ec565b5b600182019050919050565b60006141c6826140c3565b91506141d1836140c3565b9250826141e1576141e061421b565b5b828206905092915050565b7f4e487b7100000000000000000000000000000000000000000000000000000000600052601160045260246000fd5b7f4e487b7100000000000000000000000000000000000000000000000000000000600052601260045260246000fd5b7f4e487b7100000000000000000000000000000000000000000000000000000000600052602260045260246000fd5b7f4e487b7100000000000000000000000000000000000000000000000000000000600052604160045260246000fd5b6000601f19601f8301169050919050565b7f4d6178696d756d20323021000000000000000000000000000000000000000000600082015250565b7f4552433732313a207472616e7366657220746f206e6f6e20455243373231526560008201527f63656976657220696d706c656d656e7465720000000000000000000000000000602082015250565b7f4f776e61626c653a206e6577206f776e657220697320746865207a65726f206160008201527f6464726573730000000000000000000000000000000000000000000000000000602082015250565b7f4552433732313a20746f6b656e20616c7265616479206d696e74656400000000600082015250565b7f50726f76656e616e63652063616e6e6f74206265206368616e676564206f6e6360008201527f652053616c652068617320626567756e2e000000000000000000000000000000602082015250565b7f4552433732313a207472616e7366657220746f20746865207a65726f2061646460008201527f7265737300000000000000000000000000000000000000000000000000000000602082015250565b7f4552433732313a20617070726f766520746f2063616c6c657200000000000000600082015250565b7f4552433732313a206f70657261746f7220717565727920666f72206e6f6e657860008201527f697374656e7420746f6b656e0000000000000000000000000000000000000000602082015250565b7f4c696e6b2063616e6e6f74206265206368616e676564206f6e63652053616c6560008201527f2068617320626567756e2e000000000000000000000000000000000000000000602082015250565b7f4552433732313a20617070726f76652063616c6c6572206973206e6f74206f7760008201527f6e6572206e6f7220617070726f76656420666f7220616c6c0000000000000000602082015250565b7f4552433732313a2062616c616e636520717565727920666f7220746865207a6560008201527f726f206164647265737300000000000000000000000000000000000000000000602082015250565b7f4552433732313a206f776e657220717565727920666f72206e6f6e657869737460008201527f656e7420746f6b656e0000000000000000000000000000000000000000000000602082015250565b7f446f6e74206675636b2061726f756e642e000000000000000000000000000000600082015250565b7f4552433732313a206d696e7420746f20746865207a65726f2061646472657373600082015250565b7f4552433732313a20617070726f76656420717565727920666f72206e6f6e657860008201527f697374656e7420746f6b656e0000000000000000000000000000000000000000602082015250565b7f4f776e61626c653a2063616c6c6572206973206e6f7420746865206f776e6572600082015250565b7f4552433732313a207472616e73666572206f6620746f6b656e2074686174206960008201527f73206e6f74206f776e0000000000000000000000000000000000000000000000602082015250565b7f537461727420626c6f636b2063616e6e6f74206265206368616e676564206f6e60008201527f63652073616c652068617320737461727465642e000000000000000000000000602082015250565b7f4552433732314d657461646174613a2055524920717565727920666f72206e6f60008201527f6e6578697374656e7420746f6b656e0000000000000000000000000000000000602082015250565b7f4552433732313a20617070726f76616c20746f2063757272656e74206f776e6560008201527f7200000000000000000000000000000000000000000000000000000000000000602082015250565b7f4552433732313a207472616e736665722063616c6c6572206973206e6f74206f60008201527f776e6572206e6f7220617070726f766564000000000000000000000000000000602082015250565b7f5761697420666f72207468652073616c6520746f207374617274210000000000600082015250565b7f4552433732314275726e61626c653a2063616c6c6572206973206e6f74206f7760008201527f6e6572206e6f7220617070726f76656400000000000000000000000000000000602082015250565b7f457863656564696e67206d617820737570706c79210000000000000000000000600082015250565b6148fa81614035565b811461490557600080fd5b50565b61491181614047565b811461491c57600080fd5b50565b61492881614059565b811461493357600080fd5b50565b61493f81614065565b811461494a57600080fd5b50565b61495681614091565b811461496157600080fd5b50565b61496d816140c3565b811461497857600080fd5b5056fea264697066735822122018b47199e54308becaa58072c6697b7b6b31980e7b0003c57c7241a0b337c8dd64736f6c63430008040033",
  "immutableReferences": {},
  "source": "// @@@@@@@@@@@@@@@@@@@@@@@@@@@@@@@@@@@@@@@@@@@@@@@@@@@@@@@@@@@@@@@@@@@@@@@@@@@@@@@@\n// @@@@@@@@@@@@@@@@@@@@@@@@@@@@@@@@@@@@@@@@@@@@@@@@@@@@@@@@@@@@@@@@@@@@@@@@@@@@@@@@\n// @@@@@@@@@@@@@@@@@@@@@@@@@@@@@@@@@@@@@@@@@@@@@@@@@@@@@@@@@@@@@@@@@@@@@@@@@@@@@@@@\n// @@@@@@@@@@@@@@@@@@@@@@@@@@@@@@@@@@@@@@@@@@@@@@@@@@@@@@@@@@@@@@@@@@@@@@@@@@@@@@@@\n// @@@@@@@@@@@@@@@@@@@@@@@@@@@@@@@@@@@@@@@@@@@@@@@@@@@@@@@@@@@@@@@@@@@@@@@@@@@@@@@@\n// @@@@@@@@@@@@@@@@@@@@@@@@@@@@@@@@@@@@@@@@@@@@@@@@@@@@@@@@@@@@@@@@@@@@@@@@@@@@@@@@\n// @@@@@@@@@@@@@@@@@@@@@@@@@@@@@@@@@@@@@@@*.&@@@@@@@@@@@@@@@@@@@@@@@@@@@@@@@@@@@@@@\n// @@@@@@@@@@@@@@@@@@@@@@@@@@@@@@@@@@@@@@....(@@@@@@@@@@@@@@@@@@@@@@@@@@@@@@@@@@@@@\n// @@@@@@@@@@@@@@@@@@@@@@@@@@@@@@@@@@@@@......(@@@@@@@@@@@@@@@@@@@@@@@@@@@@@@@@@@@@\n// @@@@@@@@@@@@@@@@@@@@@@@@@@@@@@@@@@@@,.......@@@@@@@@@@@@@@@@@@@@@@@@@@@@@@@@@@@@\n// @@@@@@@@@@@@@@@@@@@@@@@@@@@@@@@@@@@&.........@@@@@@@@@@@@@@@@@@@@@@@@@@@@@@@@@@@\n// @@@@@@@@@@@@@@@@@@@@@@@@@@@@@@@@@@@........../@@@@@@@@@@@@@@@@@@@@@@@@@@@@@@@@@@\n// @@@@@@@@@@@@@@... (@@@@@@@@@@@@@@@@...........@@@@@@@@@@@@@@@&* ..(@@@@@@@@@@@@@\n// @@@@@@@@@@@@@@@........ /@@@@@@@@@%...........@@@@@@@@@@,........,@@@@@@@@@@@@@@\n// @@@@@@@@@@@@@@@@............/@@@@@&...........@@@@@@.............@@@@@@@@@@@@@@@\n// @@@@@@@@@@@@@@@@@............../@@@...........@@@..............#@@@@@@@@@@@@@@@@\n// @@@@@@@@@@@@@@@@@@&...............@,.........%@...............@@@@@@@@@@@@@@@@@@\n// @@@@@@@@@@@@@@@@@@@@#............../........  ..............@@@@@@@@@@@@@@@@@@@@\n// @@@@@@@@@@@@@@@@@@@@@@@...................................@@@@@@@@@@@@@@@@@@@@@@\n// @@@@@@@@@@@@@@@@@@@@@@@@@@.............................@@@@@@@@@@@@@@@@@@@@@@@@@\n// @@@@@@@@@@@@@@@@@@@@@@@@@@&%%%.....................&%&&@@@@@@@@@@@@@@@@@@@@@@@@@\n// @@@@@@@@@@@@@@@@@@(...........................................%@@@@@@@@@@@@@@@@@\n// @@@@@@@@@@@@@@@,................................................./@@@@@@@@@@@@@@\n// @@@@@@@@@@@@@@@@@@@@&(. ..... .*%#...../.&.....&#,...... .,#@@@@@@@@@@@@@@@@@@@@\n// @@@@@@@@@@@@@@@@@@@@@@@@@@@@@@@@.....&@/.@@/.....@@@@@@@@@@@@@@@@@@@@@@@@@@@@@@@\n// @@@@@@@@@@@@@@@@@@@@@@@@@@@@@@@..,@@@@@/.@@@@@%..,@@@@@@@@@@@@@@@@@@@@@@@@@@@@@@\n// @@@@@@@@@@@@@@@@@@@@@@@@@@@@@@@@@@@@@@@/.@@@@@@@@@@@@@@@@@@@@@@@@@@@@@@@@@@@@@@@\n// @@@@@@@@@@@@@@@@@@@@@@@@@@@@@@@@@@@@@@@@@@@@@@@@@@@@@@@@@@@@@@@@@@@@@@@@@@@@@@@@\n// @@@@@@@@@@@@@@@@@@@@@@@@@@@@@@@@@@@@@@@@@@@@@@@@@@@@@@@@@@@@@@@@@@@@@@@@@@@@@@@@\n// @@@@@@@@@@@@@@@@@@@@@@@@@@@@@@@@@@@@@@@@@@@@@@@@@@@@@@@@@@@@@@@@@@@@@@@@@@@@@@@@\n// @@@@@@@@@@@@@@@@@@@@@@@@@@@@@@@@@@@@@@@@@@@@@@@@@@@@@@@@@@@@@@@@@@@@@@@@@@@@@@@@\n// @@@@@@@@@@@@@@@@@@@@@@@@@@@@@@@@@@@@@@@@@@@@@@@@@@@@@@@@@@@@@@@@@@@@@@@@@@@@@@@@\n// @@@@@@@@@@@@@@@@@@@@@@@@@@@@@@@@@@@@@@@@@@@@@@@@@@@@@@@@@@@@@@@@@@@@@@@@@@@@@@@@\n//\n// Stoners Rock\n//\n// 10,420 on-chain Rock NFTs\n// https://stonersrock.com\n//\n// Twitter: https://twitter.com/mystoners\n//\n// Project by:      @sircryptos\n// Art by:          @linedetail\n// Code by:         @sarasioux\n//\n// SPDX-License-Identifier: MIT\n\npragma solidity ^0.8.4;\n\nimport '@openzeppelin/contracts/token/ERC721/extensions/ERC721Burnable.sol';\nimport '@openzeppelin/contracts/access/Ownable.sol';\nimport \"@openzeppelin/contracts/utils/Counters.sol\";\nimport '@openzeppelin/contracts/token/ERC20/IERC20.sol';\nimport \"./StonersSplit.sol\";\n\ncontract StonersRock is ERC721Burnable, Ownable {\n    using SafeMath for uint256;\n    using Counters for Counters.Counter;\n    Counters.Counter private _tokenIds;\n    Counters.Counter private _reserveIds;\n\n    // Rocks\n    string public PROVENANCE = '';\n    string public baseUri;\n\n    // Sales\n    uint256 public saleStartBlock = 120250457;\n    uint256 public constant rockPrice = 42069000000000000; //0.042069 ETH\n    uint public constant maxRockPurchase = 20;\n    uint public constant maxRockSupply = 10420;\n    uint public constant maxReserveSupply = 420;\n\n    // Internals\n    address payable public splitContract;\n    mapping (bytes32=> uint256) private requestByToken;\n    event RockMinted(address minter, uint256 tokenId, string tokenUri);\n\n    // Constructor\n    constructor(string memory _baseUri) ERC721(\"Stoners\", \"ROCK\") {\n        baseUri = _baseUri;\n        _tokenIds._value = maxReserveSupply;\n    }\n\n\n    /*\n    *   Check if the sale has started yet.\n    */\n    function saleStarted() public view returns (bool) {\n        return block.number >= saleStartBlock;\n    }\n\n    /*\n    *   Mint reserved rocks for giveaways and the teams.\n    */\n    function reserveRocks(uint256 numberOfTokens) public onlyOwner {\n        uint256 reserved = _reserveIds.current();\n        require(numberOfTokens <= maxRockPurchase, \"Maximum 20!\");\n        require(reserved.add(numberOfTokens) <= maxReserveSupply, \"Exceeding max supply!\");\n        for (uint i = 0; i < numberOfTokens; i++) {\n            _reserveIds.increment();\n            uint256 tokenId = _reserveIds.current();\n            _safeMint(msg.sender, tokenId);\n        }\n    }\n\n    function getCurrentRockId() public view returns(uint256 currentRockId) {\n        currentRockId = _tokenIds.current();\n        return currentRockId;\n    }\n\n    function getCurrentReserveId() public view returns(uint256 currentRockId) {\n        currentRockId = _reserveIds.current();\n        return currentRockId;\n    }\n\n    /**\n    *   Public function for minting a rock and enforcing requirements.\n    */\n    function mintRock(uint numberOfTokens) public payable {\n        uint256 totalIssued = _tokenIds.current();\n        require(saleStarted(), \"Wait for the sale to start!\");\n        require(numberOfTokens <= maxRockPurchase, \"Maximum 20!\");\n        require(totalIssued.add(numberOfTokens) <= maxRockSupply, \"Exceeding max supply!\");\n        require(rockPrice.mul(numberOfTokens) <= msg.value, \"Dont fuck around.\");\n\n        for(uint i = 0; i < numberOfTokens; i++) {\n            _tokenIds.increment();\n            uint256 tokenId = _tokenIds.current();\n            _safeMint(msg.sender, tokenId);\n        }\n    }\n\n    /**\n    *   External function for getting all rocks by a specific owner.\n    */\n    function getRocksByOwner(address _owner) view public returns(uint256[] memory) {\n        uint256 tokenCount = balanceOf(_owner);\n        if (tokenCount == 0) {\n            return new uint256[](0);\n        } else {\n            uint256[] memory result = new uint256[](tokenCount);\n            uint256 totalTokens = _tokenIds.current();\n            uint256 resultIndex = 0;\n            for (uint256 t = 1; t <= totalTokens; t++) {\n                if (_exists(t) && ownerOf(t) == _owner) {\n                    result[resultIndex] = t;\n                    resultIndex++;\n                }\n            }\n            return result;\n        }\n    }\n\n    /*\n    *   Owner setters.\n    */\n\n    function setRoyaltyContract(address payable _splitContract) public onlyOwner {\n        splitContract = _splitContract;\n    }\n\n    function setBaseUri(string memory _baseUri) public onlyOwner {\n        require(\n            !saleStarted(),\n            'Link cannot be changed once Sale has begun.'\n        );\n        baseUri = _baseUri;\n    }\n\n    function setProvenanceHash(string memory _hash) public onlyOwner {\n        require(\n            !saleStarted(),\n            'Provenance cannot be changed once Sale has begun.'\n        );\n        PROVENANCE = _hash;\n    }\n\n    function setSaleStartBlock(uint256 _saleStartBlock) public onlyOwner {\n        require(\n            !saleStarted(),\n            'Start block cannot be changed once sale has started.'\n        );\n        saleStartBlock = _saleStartBlock;\n    }\n\n    /*\n    *   Money management.\n    */\n\n    function withdraw(uint256 amount) public onlyOwner {\n        payable(msg.sender).transfer(amount);\n    }\n\n    function withdrawRoyalties() public onlyOwner {\n        StonersSplit(splitContract).release();\n    }\n\n    function forwardERC20s(IERC20 _token, uint256 _amount) public onlyOwner {\n        _token.transfer(msg.sender, _amount);\n    }\n\n    /*\n    *   On chain storage.\n    */\n    function uploadRockImages(bytes calldata s) external onlyOwner {}\n    function uploadRockAttributes(bytes calldata s) external onlyOwner {}\n\n    /*\n    *   Overrides\n    */\n    function _baseURI() internal view override returns (string memory) {\n        return baseUri;\n    }\n\n}\n",
  "sourcePath": "/Users/Shared/Code/experimental/stoners-stack/stoners-contracts/contracts/StonersRock.sol",
  "compiler": {
    "name": "solc",
    "version": "0.8.4+commit.c7e474f2.Emscripten.clang"
  },
  "schemaVersion": "3.4.1",
  "updatedAt": "2021-07-04T15:25:47.376Z",
  "networkType": "ethereum",
  "devdoc": {
    "kind": "dev",
    "methods": {
      "approve(address,uint256)": {
        "details": "See {IERC721-approve}."
      },
      "balanceOf(address)": {
        "details": "See {IERC721-balanceOf}."
      },
      "burn(uint256)": {
        "details": "Burns `tokenId`. See {ERC721-_burn}. Requirements: - The caller must own `tokenId` or be an approved operator."
      },
      "getApproved(uint256)": {
        "details": "See {IERC721-getApproved}."
      },
      "isApprovedForAll(address,address)": {
        "details": "See {IERC721-isApprovedForAll}."
      },
      "name()": {
        "details": "See {IERC721Metadata-name}."
      },
      "owner()": {
        "details": "Returns the address of the current owner."
      },
      "ownerOf(uint256)": {
        "details": "See {IERC721-ownerOf}."
      },
      "renounceOwnership()": {
        "details": "Leaves the contract without owner. It will not be possible to call `onlyOwner` functions anymore. Can only be called by the current owner. NOTE: Renouncing ownership will leave the contract without an owner, thereby removing any functionality that is only available to the owner."
      },
      "safeTransferFrom(address,address,uint256)": {
        "details": "See {IERC721-safeTransferFrom}."
      },
      "safeTransferFrom(address,address,uint256,bytes)": {
        "details": "See {IERC721-safeTransferFrom}."
      },
      "setApprovalForAll(address,bool)": {
        "details": "See {IERC721-setApprovalForAll}."
      },
      "supportsInterface(bytes4)": {
        "details": "See {IERC165-supportsInterface}."
      },
      "symbol()": {
        "details": "See {IERC721Metadata-symbol}."
      },
      "tokenURI(uint256)": {
        "details": "See {IERC721Metadata-tokenURI}."
      },
      "transferFrom(address,address,uint256)": {
        "details": "See {IERC721-transferFrom}."
      },
      "transferOwnership(address)": {
        "details": "Transfers ownership of the contract to a new account (`newOwner`). Can only be called by the current owner."
      }
    },
    "version": 1
  },
  "userdoc": {
    "kind": "user",
    "methods": {
      "getRocksByOwner(address)": {
        "notice": "External function for getting all rocks by a specific owner."
      },
      "mintRock(uint256)": {
        "notice": "Public function for minting a rock and enforcing requirements."
      }
    },
    "version": 1
  }
}