{
  "contractName": "StonersRock",
  "abi": [
    {
      "inputs": [
        {
          "internalType": "string",
          "name": "_baseUri",
          "type": "string"
        }
      ],
      "stateMutability": "nonpayable",
      "type": "constructor"
    },
    {
      "anonymous": false,
      "inputs": [
        {
          "indexed": true,
          "internalType": "address",
          "name": "owner",
          "type": "address"
        },
        {
          "indexed": true,
          "internalType": "address",
          "name": "approved",
          "type": "address"
        },
        {
          "indexed": true,
          "internalType": "uint256",
          "name": "tokenId",
          "type": "uint256"
        }
      ],
      "name": "Approval",
      "type": "event"
    },
    {
      "anonymous": false,
      "inputs": [
        {
          "indexed": true,
          "internalType": "address",
          "name": "owner",
          "type": "address"
        },
        {
          "indexed": true,
          "internalType": "address",
          "name": "operator",
          "type": "address"
        },
        {
          "indexed": false,
          "internalType": "bool",
          "name": "approved",
          "type": "bool"
        }
      ],
      "name": "ApprovalForAll",
      "type": "event"
    },
    {
      "anonymous": false,
      "inputs": [
        {
          "indexed": true,
          "internalType": "address",
          "name": "previousOwner",
          "type": "address"
        },
        {
          "indexed": true,
          "internalType": "address",
          "name": "newOwner",
          "type": "address"
        }
      ],
      "name": "OwnershipTransferred",
      "type": "event"
    },
    {
      "anonymous": false,
      "inputs": [
        {
          "indexed": false,
          "internalType": "address",
          "name": "minter",
          "type": "address"
        },
        {
          "indexed": false,
          "internalType": "uint256",
          "name": "tokenId",
          "type": "uint256"
        },
        {
          "indexed": false,
          "internalType": "string",
          "name": "tokenUri",
          "type": "string"
        }
      ],
      "name": "RockMinted",
      "type": "event"
    },
    {
      "anonymous": false,
      "inputs": [
        {
          "indexed": true,
          "internalType": "address",
          "name": "from",
          "type": "address"
        },
        {
          "indexed": true,
          "internalType": "address",
          "name": "to",
          "type": "address"
        },
        {
          "indexed": true,
          "internalType": "uint256",
          "name": "tokenId",
          "type": "uint256"
        }
      ],
      "name": "Transfer",
      "type": "event"
    },
    {
      "inputs": [],
      "name": "PROVENANCE",
      "outputs": [
        {
          "internalType": "string",
          "name": "",
          "type": "string"
        }
      ],
      "stateMutability": "view",
      "type": "function",
      "constant": true
    },
    {
      "inputs": [
        {
          "internalType": "address",
          "name": "to",
          "type": "address"
        },
        {
          "internalType": "uint256",
          "name": "tokenId",
          "type": "uint256"
        }
      ],
      "name": "approve",
      "outputs": [],
      "stateMutability": "nonpayable",
      "type": "function"
    },
    {
      "inputs": [
        {
          "internalType": "address",
          "name": "owner",
          "type": "address"
        }
      ],
      "name": "balanceOf",
      "outputs": [
        {
          "internalType": "uint256",
          "name": "",
          "type": "uint256"
        }
      ],
      "stateMutability": "view",
      "type": "function",
      "constant": true
    },
    {
      "inputs": [],
      "name": "baseUri",
      "outputs": [
        {
          "internalType": "string",
          "name": "",
          "type": "string"
        }
      ],
      "stateMutability": "view",
      "type": "function",
      "constant": true
    },
    {
      "inputs": [
        {
          "internalType": "uint256",
          "name": "tokenId",
          "type": "uint256"
        }
      ],
      "name": "burn",
      "outputs": [],
      "stateMutability": "nonpayable",
      "type": "function"
    },
    {
      "inputs": [
        {
          "internalType": "uint256",
          "name": "tokenId",
          "type": "uint256"
        }
      ],
      "name": "getApproved",
      "outputs": [
        {
          "internalType": "address",
          "name": "",
          "type": "address"
        }
      ],
      "stateMutability": "view",
      "type": "function",
      "constant": true
    },
    {
      "inputs": [
        {
          "internalType": "address",
          "name": "owner",
          "type": "address"
        },
        {
          "internalType": "address",
          "name": "operator",
          "type": "address"
        }
      ],
      "name": "isApprovedForAll",
      "outputs": [
        {
          "internalType": "bool",
          "name": "",
          "type": "bool"
        }
      ],
      "stateMutability": "view",
      "type": "function",
      "constant": true
    },
    {
      "inputs": [],
      "name": "maxReserveSupply",
      "outputs": [
        {
          "internalType": "uint256",
          "name": "",
          "type": "uint256"
        }
      ],
      "stateMutability": "view",
      "type": "function",
      "constant": true
    },
    {
      "inputs": [],
      "name": "maxRockPurchase",
      "outputs": [
        {
          "internalType": "uint256",
          "name": "",
          "type": "uint256"
        }
      ],
      "stateMutability": "view",
      "type": "function",
      "constant": true
    },
    {
      "inputs": [],
      "name": "maxRockSupply",
      "outputs": [
        {
          "internalType": "uint256",
          "name": "",
          "type": "uint256"
        }
      ],
      "stateMutability": "view",
      "type": "function",
      "constant": true
    },
    {
      "inputs": [],
      "name": "name",
      "outputs": [
        {
          "internalType": "string",
          "name": "",
          "type": "string"
        }
      ],
      "stateMutability": "view",
      "type": "function",
      "constant": true
    },
    {
      "inputs": [],
      "name": "owner",
      "outputs": [
        {
          "internalType": "address",
          "name": "",
          "type": "address"
        }
      ],
      "stateMutability": "view",
      "type": "function",
      "constant": true
    },
    {
      "inputs": [
        {
          "internalType": "uint256",
          "name": "tokenId",
          "type": "uint256"
        }
      ],
      "name": "ownerOf",
      "outputs": [
        {
          "internalType": "address",
          "name": "",
          "type": "address"
        }
      ],
      "stateMutability": "view",
      "type": "function",
      "constant": true
    },
    {
      "inputs": [],
      "name": "renounceOwnership",
      "outputs": [],
      "stateMutability": "nonpayable",
      "type": "function"
    },
    {
      "inputs": [],
      "name": "rockPrice",
      "outputs": [
        {
          "internalType": "uint256",
          "name": "",
          "type": "uint256"
        }
      ],
      "stateMutability": "view",
      "type": "function",
      "constant": true
    },
    {
      "inputs": [
        {
          "internalType": "address",
          "name": "from",
          "type": "address"
        },
        {
          "internalType": "address",
          "name": "to",
          "type": "address"
        },
        {
          "internalType": "uint256",
          "name": "tokenId",
          "type": "uint256"
        }
      ],
      "name": "safeTransferFrom",
      "outputs": [],
      "stateMutability": "nonpayable",
      "type": "function"
    },
    {
      "inputs": [
        {
          "internalType": "address",
          "name": "from",
          "type": "address"
        },
        {
          "internalType": "address",
          "name": "to",
          "type": "address"
        },
        {
          "internalType": "uint256",
          "name": "tokenId",
          "type": "uint256"
        },
        {
          "internalType": "bytes",
          "name": "_data",
          "type": "bytes"
        }
      ],
      "name": "safeTransferFrom",
      "outputs": [],
      "stateMutability": "nonpayable",
      "type": "function"
    },
    {
      "inputs": [],
      "name": "saleStartBlock",
      "outputs": [
        {
          "internalType": "uint256",
          "name": "",
          "type": "uint256"
        }
      ],
      "stateMutability": "view",
      "type": "function",
      "constant": true
    },
    {
      "inputs": [
        {
          "internalType": "address",
          "name": "operator",
          "type": "address"
        },
        {
          "internalType": "bool",
          "name": "approved",
          "type": "bool"
        }
      ],
      "name": "setApprovalForAll",
      "outputs": [],
      "stateMutability": "nonpayable",
      "type": "function"
    },
    {
      "inputs": [
        {
          "internalType": "bytes4",
          "name": "interfaceId",
          "type": "bytes4"
        }
      ],
      "name": "supportsInterface",
      "outputs": [
        {
          "internalType": "bool",
          "name": "",
          "type": "bool"
        }
      ],
      "stateMutability": "view",
      "type": "function",
      "constant": true
    },
    {
      "inputs": [],
      "name": "symbol",
      "outputs": [
        {
          "internalType": "string",
          "name": "",
          "type": "string"
        }
      ],
      "stateMutability": "view",
      "type": "function",
      "constant": true
    },
    {
      "inputs": [
        {
          "internalType": "uint256",
          "name": "tokenId",
          "type": "uint256"
        }
      ],
      "name": "tokenURI",
      "outputs": [
        {
          "internalType": "string",
          "name": "",
          "type": "string"
        }
      ],
      "stateMutability": "view",
      "type": "function",
      "constant": true
    },
    {
      "inputs": [
        {
          "internalType": "address",
          "name": "from",
          "type": "address"
        },
        {
          "internalType": "address",
          "name": "to",
          "type": "address"
        },
        {
          "internalType": "uint256",
          "name": "tokenId",
          "type": "uint256"
        }
      ],
      "name": "transferFrom",
      "outputs": [],
      "stateMutability": "nonpayable",
      "type": "function"
    },
    {
      "inputs": [
        {
          "internalType": "address",
          "name": "newOwner",
          "type": "address"
        }
      ],
      "name": "transferOwnership",
      "outputs": [],
      "stateMutability": "nonpayable",
      "type": "function"
    },
    {
      "inputs": [],
      "name": "saleStarted",
      "outputs": [
        {
          "internalType": "bool",
          "name": "",
          "type": "bool"
        }
      ],
      "stateMutability": "view",
      "type": "function",
      "constant": true
    },
    {
      "inputs": [
        {
          "internalType": "uint256",
          "name": "numberOfTokens",
          "type": "uint256"
        }
      ],
      "name": "reserveRocks",
      "outputs": [],
      "stateMutability": "nonpayable",
      "type": "function"
    },
    {
      "inputs": [],
      "name": "getCurrentRockId",
      "outputs": [
        {
          "internalType": "uint256",
          "name": "currentRockId",
          "type": "uint256"
        }
      ],
      "stateMutability": "view",
      "type": "function",
      "constant": true
    },
    {
      "inputs": [],
      "name": "getCurrentReserveId",
      "outputs": [
        {
          "internalType": "uint256",
          "name": "currentRockId",
          "type": "uint256"
        }
      ],
      "stateMutability": "view",
      "type": "function",
      "constant": true
    },
    {
      "inputs": [
        {
          "internalType": "uint256",
          "name": "numberOfTokens",
          "type": "uint256"
        }
      ],
      "name": "mintRock",
      "outputs": [],
      "stateMutability": "payable",
      "type": "function",
      "payable": true
    },
    {
      "inputs": [
        {
          "internalType": "address",
          "name": "_owner",
          "type": "address"
        }
      ],
      "name": "getRocksByOwner",
      "outputs": [
        {
          "internalType": "uint256[]",
          "name": "",
          "type": "uint256[]"
        }
      ],
      "stateMutability": "view",
      "type": "function",
      "constant": true
    },
    {
      "inputs": [
        {
          "internalType": "address payable",
          "name": "_splitContract",
          "type": "address"
        }
      ],
      "name": "setRoyaltyContract",
      "outputs": [],
      "stateMutability": "nonpayable",
      "type": "function"
    },
    {
      "inputs": [
        {
          "internalType": "string",
          "name": "_baseUri",
          "type": "string"
        }
      ],
      "name": "setBaseUri",
      "outputs": [],
      "stateMutability": "nonpayable",
      "type": "function"
    },
    {
      "inputs": [
        {
          "internalType": "string",
          "name": "_hash",
          "type": "string"
        }
      ],
      "name": "setProvenanceHash",
      "outputs": [],
      "stateMutability": "nonpayable",
      "type": "function"
    },
    {
      "inputs": [
        {
          "internalType": "uint256",
          "name": "_saleStartBlock",
          "type": "uint256"
        }
      ],
      "name": "setSaleStartBlock",
      "outputs": [],
      "stateMutability": "nonpayable",
      "type": "function"
    },
    {
      "inputs": [
        {
          "internalType": "uint256",
          "name": "amount",
          "type": "uint256"
        }
      ],
      "name": "withdraw",
      "outputs": [],
      "stateMutability": "nonpayable",
      "type": "function"
    },
    {
      "inputs": [],
      "name": "withdrawRoyalties",
      "outputs": [],
      "stateMutability": "nonpayable",
      "type": "function"
    },
    {
      "inputs": [
        {
          "internalType": "contract IERC20",
          "name": "_token",
          "type": "address"
        },
        {
          "internalType": "uint256",
          "name": "_amount",
          "type": "uint256"
        }
      ],
      "name": "forwardERC20s",
      "outputs": [],
      "stateMutability": "nonpayable",
      "type": "function"
    },
    {
      "inputs": [
        {
          "internalType": "bytes",
          "name": "s",
          "type": "bytes"
        }
      ],
      "name": "uploadRockImages",
      "outputs": [],
      "stateMutability": "nonpayable",
      "type": "function"
    },
    {
      "inputs": [
        {
          "internalType": "bytes",
          "name": "s",
          "type": "bytes"
        }
      ],
      "name": "uploadRockAttributes",
      "outputs": [],
      "stateMutability": "nonpayable",
      "type": "function"
    }
  ],
  "bytecode": "0x608060405260405180602001604052806000815250600990805190602001906200002b929190620001ec565b5063072ae059600b553480156200004157600080fd5b5060405162004e3338038062004e3383398181016040528101906200006791906200030e565b6040518060400160405280600781526020017f53746f6e657273000000000000000000000000000000000000000000000000008152506040518060400160405280600481526020017f524f434b000000000000000000000000000000000000000000000000000000008152508160009080519060200190620000eb929190620001ec565b50806001908051906020019062000104929190620001ec565b505050600062000119620001e460201b60201c565b905080600660006101000a81548173ffffffffffffffffffffffffffffffffffffffff021916908373ffffffffffffffffffffffffffffffffffffffff1602179055508073ffffffffffffffffffffffffffffffffffffffff16600073ffffffffffffffffffffffffffffffffffffffff167f8be0079c531659141344cd1fd0a4f28419497f9722a3daafe3b4186f6b6457e060405160405180910390a35080600a9080519060200190620001d0929190620001ec565b506101a460076000018190555050620004c3565b600033905090565b828054620001fa90620003e8565b90600052602060002090601f0160209004810192826200021e57600085556200026a565b82601f106200023957805160ff19168380011785556200026a565b828001600101855582156200026a579182015b82811115620002695782518255916020019190600101906200024c565b5b5090506200027991906200027d565b5090565b5b80821115620002985760008160009055506001016200027e565b5090565b6000620002b3620002ad846200037c565b62000353565b905082815260208101848484011115620002cc57600080fd5b620002d9848285620003b2565b509392505050565b600082601f830112620002f357600080fd5b8151620003058482602086016200029c565b91505092915050565b6000602082840312156200032157600080fd5b600082015167ffffffffffffffff8111156200033c57600080fd5b6200034a84828501620002e1565b91505092915050565b60006200035f62000372565b90506200036d82826200041e565b919050565b6000604051905090565b600067ffffffffffffffff8211156200039a576200039962000483565b5b620003a582620004b2565b9050602081019050919050565b60005b83811015620003d2578082015181840152602081019050620003b5565b83811115620003e2576000848401525b50505050565b600060028204905060018216806200040157607f821691505b6020821081141562000418576200041762000454565b5b50919050565b6200042982620004b2565b810181811067ffffffffffffffff821117156200044b576200044a62000483565b5b80604052505050565b7f4e487b7100000000000000000000000000000000000000000000000000000000600052602260045260246000fd5b7f4e487b7100000000000000000000000000000000000000000000000000000000600052604160045260246000fd5b6000601f19601f8301169050919050565b61496080620004d36000396000f3fe6080604052600436106102305760003560e01c80638da5cb5b1161012e578063ab17ef61116100ab578063da7e33651161006f578063da7e336514610811578063dee8dc3e1461083c578063e422612314610858578063e985e9c514610883578063f2fde38b146108c057610230565b8063ab17ef611461072e578063b88d4fde14610757578063c87b56dd14610780578063cffb47cf146107bd578063d9aa187c146107e857610230565b80639abc8320116100f25780639abc83201461065d5780639ceeb71c14610688578063a0bcfc7f146106b1578063a22cb465146106da578063a7fcf2501461070357610230565b80638da5cb5b146105785780638dd7ca46146105a35780639064a7eb146105e057806395d89b41146106095780639727151a1461063457610230565b806323b872dd116101bc5780635c474f9e116101805780635c474f9e146104915780636352211e146104bc5780636373a6b1146104f957806370a0823114610524578063715018a61461056157610230565b806323b872dd146103c45780632e1a7d4d146103ed578063384c8eed1461041657806342842e0e1461043f57806342966c681461046857610230565b806310969523116102035780631096952314610303578063160928d31461032c578063167fe9be14610357578063200272751461038257806321c34fcb146103ad57610230565b806301ffc9a71461023557806306fdde0314610272578063081812fc1461029d578063095ea7b3146102da575b600080fd5b34801561024157600080fd5b5061025c6004803603810190610257919061339a565b6108e9565b6040516102699190613a74565b60405180910390f35b34801561027e57600080fd5b506102876109cb565b6040516102949190613a8f565b60405180910390f35b3480156102a957600080fd5b506102c460048036038101906102bf91906134ae565b610a5d565b6040516102d191906139a7565b60405180910390f35b3480156102e657600080fd5b5061030160048036038101906102fc9190613335565b610ae2565b005b34801561030f57600080fd5b5061032a6004803603810190610325919061346d565b610bfa565b005b34801561033857600080fd5b50610341610cd8565b60405161034e9190613db1565b60405180910390f35b34801561036357600080fd5b5061036c610ce9565b6040516103799190613db1565b60405180910390f35b34801561038e57600080fd5b50610397610cef565b6040516103a49190613db1565b60405180910390f35b3480156103b957600080fd5b506103c2610cf5565b005b3480156103d057600080fd5b506103eb60048036038101906103e6919061322f565b610e00565b005b3480156103f957600080fd5b50610414600480360381019061040f91906134ae565b610e60565b005b34801561042257600080fd5b5061043d600480360381019061043891906133ec565b610f26565b005b34801561044b57600080fd5b506104666004803603810190610461919061322f565b610fa6565b005b34801561047457600080fd5b5061048f600480360381019061048a91906134ae565b610fc6565b005b34801561049d57600080fd5b506104a6611022565b6040516104b39190613a74565b60405180910390f35b3480156104c857600080fd5b506104e360048036038101906104de91906134ae565b61102f565b6040516104f091906139a7565b60405180910390f35b34801561050557600080fd5b5061050e6110e1565b60405161051b9190613a8f565b60405180910390f35b34801561053057600080fd5b5061054b600480360381019061054691906131a1565b61116f565b6040516105589190613db1565b60405180910390f35b34801561056d57600080fd5b50610576611227565b005b34801561058457600080fd5b5061058d611364565b60405161059a91906139a7565b60405180910390f35b3480156105af57600080fd5b506105ca60048036038101906105c591906131a1565b61138e565b6040516105d79190613a52565b60405180910390f35b3480156105ec57600080fd5b50610607600480360381019061060291906133ec565b611571565b005b34801561061557600080fd5b5061061e6115f1565b60405161062b9190613a8f565b60405180910390f35b34801561064057600080fd5b5061065b60048036038101906106569190613431565b611683565b005b34801561066957600080fd5b50610672611791565b60405161067f9190613a8f565b60405180910390f35b34801561069457600080fd5b506106af60048036038101906106aa91906134ae565b61181f565b005b3480156106bd57600080fd5b506106d860048036038101906106d3919061346d565b6118ed565b005b3480156106e657600080fd5b5061070160048036038101906106fc91906132f9565b6119cb565b005b34801561070f57600080fd5b50610718611b4c565b6040516107259190613db1565b60405180910390f35b34801561073a57600080fd5b50610755600480360381019061075091906134ae565b611b5d565b005b34801561076357600080fd5b5061077e6004803603810190610779919061327e565b611cc8565b005b34801561078c57600080fd5b506107a760048036038101906107a291906134ae565b611d2a565b6040516107b49190613a8f565b60405180910390f35b3480156107c957600080fd5b506107d2611dd1565b6040516107df9190613db1565b60405180910390f35b3480156107f457600080fd5b5061080f600480360381019061080a91906131ca565b611dd7565b005b34801561081d57600080fd5b50610826611e97565b6040516108339190613db1565b60405180910390f35b610856600480360381019061085191906134ae565b611e9c565b005b34801561086457600080fd5b5061086d61202e565b60405161087a9190613db1565b60405180910390f35b34801561088f57600080fd5b506108aa60048036038101906108a591906131f3565b612039565b6040516108b79190613a74565b60405180910390f35b3480156108cc57600080fd5b506108e760048036038101906108e291906131a1565b6120cd565b005b60007f80ac58cd000000000000000000000000000000000000000000000000000000007bffffffffffffffffffffffffffffffffffffffffffffffffffffffff1916827bffffffffffffffffffffffffffffffffffffffffffffffffffffffff191614806109b457507f5b5e139f000000000000000000000000000000000000000000000000000000007bffffffffffffffffffffffffffffffffffffffffffffffffffffffff1916827bffffffffffffffffffffffffffffffffffffffffffffffffffffffff1916145b806109c457506109c382612279565b5b9050919050565b6060600080546109da906140be565b80601f0160208091040260200160405190810160405280929190818152602001828054610a06906140be565b8015610a535780601f10610a2857610100808354040283529160200191610a53565b820191906000526020600020905b815481529060010190602001808311610a3657829003601f168201915b5050505050905090565b6000610a68826122e3565b610aa7576040517f08c379a0000000000000000000000000000000000000000000000000000000008152600401610a9e90613c71565b60405180910390fd5b6004600083815260200190815260200160002060009054906101000a900473ffffffffffffffffffffffffffffffffffffffff169050919050565b6000610aed8261102f565b90508073ffffffffffffffffffffffffffffffffffffffff168373ffffffffffffffffffffffffffffffffffffffff161415610b5e576040517f08c379a0000000000000000000000000000000000000000000000000000000008152600401610b5590613d11565b60405180910390fd5b8073ffffffffffffffffffffffffffffffffffffffff16610b7d61234f565b73ffffffffffffffffffffffffffffffffffffffff161480610bac5750610bab81610ba661234f565b612039565b5b610beb576040517f08c379a0000000000000000000000000000000000000000000000000000000008152600401610be290613bd1565b60405180910390fd5b610bf58383612357565b505050565b610c0261234f565b73ffffffffffffffffffffffffffffffffffffffff16610c20611364565b73ffffffffffffffffffffffffffffffffffffffff1614610c76576040517f08c379a0000000000000000000000000000000000000000000000000000000008152600401610c6d90613c91565b60405180910390fd5b610c7e611022565b15610cbe576040517f08c379a0000000000000000000000000000000000000000000000000000000008152600401610cb590613b31565b60405180910390fd5b8060099080519060200190610cd4929190612f3c565b5050565b6000610ce46007612410565b905090565b6128b481565b600b5481565b610cfd61234f565b73ffffffffffffffffffffffffffffffffffffffff16610d1b611364565b73ffffffffffffffffffffffffffffffffffffffff1614610d71576040517f08c379a0000000000000000000000000000000000000000000000000000000008152600401610d6890613c91565b60405180910390fd5b600c60009054906101000a900473ffffffffffffffffffffffffffffffffffffffff1673ffffffffffffffffffffffffffffffffffffffff166319165587306040518263ffffffff1660e01b8152600401610dcc91906139c2565b600060405180830381600087803b158015610de657600080fd5b505af1158015610dfa573d6000803e3d6000fd5b50505050565b610e11610e0b61234f565b8261241e565b610e50576040517f08c379a0000000000000000000000000000000000000000000000000000000008152600401610e4790613d31565b60405180910390fd5b610e5b8383836124fc565b505050565b610e6861234f565b73ffffffffffffffffffffffffffffffffffffffff16610e86611364565b73ffffffffffffffffffffffffffffffffffffffff1614610edc576040517f08c379a0000000000000000000000000000000000000000000000000000000008152600401610ed390613c91565b60405180910390fd5b3373ffffffffffffffffffffffffffffffffffffffff166108fc829081150290604051600060405180830381858888f19350505050158015610f22573d6000803e3d6000fd5b5050565b610f2e61234f565b73ffffffffffffffffffffffffffffffffffffffff16610f4c611364565b73ffffffffffffffffffffffffffffffffffffffff1614610fa2576040517f08c379a0000000000000000000000000000000000000000000000000000000008152600401610f9990613c91565b60405180910390fd5b5050565b610fc183838360405180602001604052806000815250611cc8565b505050565b610fd7610fd161234f565b8261241e565b611016576040517f08c379a000000000000000000000000000000000000000000000000000000000815260040161100d90613d71565b60405180910390fd5b61101f81612758565b50565b6000600b54431015905090565b6000806002600084815260200190815260200160002060009054906101000a900473ffffffffffffffffffffffffffffffffffffffff169050600073ffffffffffffffffffffffffffffffffffffffff168173ffffffffffffffffffffffffffffffffffffffff1614156110d8576040517f08c379a00000000000000000000000000000000000000000000000000000000081526004016110cf90613c11565b60405180910390fd5b80915050919050565b600980546110ee906140be565b80601f016020809104026020016040519081016040528092919081815260200182805461111a906140be565b80156111675780601f1061113c57610100808354040283529160200191611167565b820191906000526020600020905b81548152906001019060200180831161114a57829003601f168201915b505050505081565b60008073ffffffffffffffffffffffffffffffffffffffff168273ffffffffffffffffffffffffffffffffffffffff1614156111e0576040517f08c379a00000000000000000000000000000000000000000000000000000000081526004016111d790613bf1565b60405180910390fd5b600360008373ffffffffffffffffffffffffffffffffffffffff1673ffffffffffffffffffffffffffffffffffffffff168152602001908152602001600020549050919050565b61122f61234f565b73ffffffffffffffffffffffffffffffffffffffff1661124d611364565b73ffffffffffffffffffffffffffffffffffffffff16146112a3576040517f08c379a000000000000000000000000000000000000000000000000000000000815260040161129a90613c91565b60405180910390fd5b600073ffffffffffffffffffffffffffffffffffffffff16600660009054906101000a900473ffffffffffffffffffffffffffffffffffffffff1673ffffffffffffffffffffffffffffffffffffffff167f8be0079c531659141344cd1fd0a4f28419497f9722a3daafe3b4186f6b6457e060405160405180910390a36000600660006101000a81548173ffffffffffffffffffffffffffffffffffffffff021916908373ffffffffffffffffffffffffffffffffffffffff160217905550565b6000600660009054906101000a900473ffffffffffffffffffffffffffffffffffffffff16905090565b6060600061139b8361116f565b9050600081141561141e57600067ffffffffffffffff8111156113e7577f4e487b7100000000000000000000000000000000000000000000000000000000600052604160045260246000fd5b6040519080825280602002602001820160405280156114155781602001602082028036833780820191505090505b5091505061156c565b60008167ffffffffffffffff811115611460577f4e487b7100000000000000000000000000000000000000000000000000000000600052604160045260246000fd5b60405190808252806020026020018201604052801561148e5781602001602082028036833780820191505090505b509050600061149d6007612410565b9050600080600190505b828111611563576114b7816122e3565b80156114f657508673ffffffffffffffffffffffffffffffffffffffff166114de8261102f565b73ffffffffffffffffffffffffffffffffffffffff16145b156115505780848381518110611535577f4e487b7100000000000000000000000000000000000000000000000000000000600052603260045260246000fd5b602002602001018181525050818061154c90614121565b9250505b808061155b90614121565b9150506114a7565b50829450505050505b919050565b61157961234f565b73ffffffffffffffffffffffffffffffffffffffff16611597611364565b73ffffffffffffffffffffffffffffffffffffffff16146115ed576040517f08c379a00000000000000000000000000000000000000000000000000000000081526004016115e490613c91565b60405180910390fd5b5050565b606060018054611600906140be565b80601f016020809104026020016040519081016040528092919081815260200182805461162c906140be565b80156116795780601f1061164e57610100808354040283529160200191611679565b820191906000526020600020905b81548152906001019060200180831161165c57829003601f168201915b5050505050905090565b61168b61234f565b73ffffffffffffffffffffffffffffffffffffffff166116a9611364565b73ffffffffffffffffffffffffffffffffffffffff16146116ff576040517f08c379a00000000000000000000000000000000000000000000000000000000081526004016116f690613c91565b60405180910390fd5b8173ffffffffffffffffffffffffffffffffffffffff1663a9059cbb33836040518363ffffffff1660e01b815260040161173a929190613a29565b602060405180830381600087803b15801561175457600080fd5b505af1158015611768573d6000803e3d6000fd5b505050506040513d601f19601f8201168201806040525081019061178c9190613371565b505050565b600a805461179e906140be565b80601f01602080910402602001604051908101604052809291908181526020018280546117ca906140be565b80156118175780601f106117ec57610100808354040283529160200191611817565b820191906000526020600020905b8154815290600101906020018083116117fa57829003601f168201915b505050505081565b61182761234f565b73ffffffffffffffffffffffffffffffffffffffff16611845611364565b73ffffffffffffffffffffffffffffffffffffffff161461189b576040517f08c379a000000000000000000000000000000000000000000000000000000000815260040161189290613c91565b60405180910390fd5b6118a3611022565b156118e3576040517f08c379a00000000000000000000000000000000000000000000000000000000081526004016118da90613cd1565b60405180910390fd5b80600b8190555050565b6118f561234f565b73ffffffffffffffffffffffffffffffffffffffff16611913611364565b73ffffffffffffffffffffffffffffffffffffffff1614611969576040517f08c379a000000000000000000000000000000000000000000000000000000000815260040161196090613c91565b60405180910390fd5b611971611022565b156119b1576040517f08c379a00000000000000000000000000000000000000000000000000000000081526004016119a890613bb1565b60405180910390fd5b80600a90805190602001906119c7929190612f3c565b5050565b6119d361234f565b73ffffffffffffffffffffffffffffffffffffffff168273ffffffffffffffffffffffffffffffffffffffff161415611a41576040517f08c379a0000000000000000000000000000000000000000000000000000000008152600401611a3890613b71565b60405180910390fd5b8060056000611a4e61234f565b73ffffffffffffffffffffffffffffffffffffffff1673ffffffffffffffffffffffffffffffffffffffff16815260200190815260200160002060008473ffffffffffffffffffffffffffffffffffffffff1673ffffffffffffffffffffffffffffffffffffffff16815260200190815260200160002060006101000a81548160ff0219169083151502179055508173ffffffffffffffffffffffffffffffffffffffff16611afb61234f565b73ffffffffffffffffffffffffffffffffffffffff167f17307eab39ab6107e8899845ad3d59bd9653f200f220920489ca2b5937696c3183604051611b409190613a74565b60405180910390a35050565b6000611b586008612410565b905090565b611b6561234f565b73ffffffffffffffffffffffffffffffffffffffff16611b83611364565b73ffffffffffffffffffffffffffffffffffffffff1614611bd9576040517f08c379a0000000000000000000000000000000000000000000000000000000008152600401611bd090613c91565b60405180910390fd5b6000611be56008612410565b90506014821115611c2b576040517f08c379a0000000000000000000000000000000000000000000000000000000008152600401611c2290613ab1565b60405180910390fd5b6101a4611c41838361286990919063ffffffff16565b1115611c82576040517f08c379a0000000000000000000000000000000000000000000000000000000008152600401611c7990613d91565b60405180910390fd5b60005b82811015611cc357611c97600861287f565b6000611ca36008612410565b9050611caf3382612895565b508080611cbb90614121565b915050611c85565b505050565b611cd9611cd361234f565b8361241e565b611d18576040517f08c379a0000000000000000000000000000000000000000000000000000000008152600401611d0f90613d31565b60405180910390fd5b611d24848484846128b3565b50505050565b6060611d35826122e3565b611d74576040517f08c379a0000000000000000000000000000000000000000000000000000000008152600401611d6b90613cf1565b60405180910390fd5b6000611d7e61290f565b90506000815111611d9e5760405180602001604052806000815250611dc9565b80611da8846129a1565b604051602001611db9929190613983565b6040516020818303038152906040525b915050919050565b6101a481565b611ddf61234f565b73ffffffffffffffffffffffffffffffffffffffff16611dfd611364565b73ffffffffffffffffffffffffffffffffffffffff1614611e53576040517f08c379a0000000000000000000000000000000000000000000000000000000008152600401611e4a90613c91565b60405180910390fd5b80600c60006101000a81548173ffffffffffffffffffffffffffffffffffffffff021916908373ffffffffffffffffffffffffffffffffffffffff16021790555050565b601481565b6000611ea86007612410565b9050611eb2611022565b611ef1576040517f08c379a0000000000000000000000000000000000000000000000000000000008152600401611ee890613d51565b60405180910390fd5b6014821115611f35576040517f08c379a0000000000000000000000000000000000000000000000000000000008152600401611f2c90613ab1565b60405180910390fd5b6128b4611f4b838361286990919063ffffffff16565b1115611f8c576040517f08c379a0000000000000000000000000000000000000000000000000000000008152600401611f8390613d91565b60405180910390fd5b34611fa78366957588590e5000612b4e90919063ffffffff16565b1015611fe8576040517f08c379a0000000000000000000000000000000000000000000000000000000008152600401611fdf90613c31565b60405180910390fd5b60005b8281101561202957611ffd600761287f565b60006120096007612410565b90506120153382612895565b50808061202190614121565b915050611feb565b505050565b66957588590e500081565b6000600560008473ffffffffffffffffffffffffffffffffffffffff1673ffffffffffffffffffffffffffffffffffffffff16815260200190815260200160002060008373ffffffffffffffffffffffffffffffffffffffff1673ffffffffffffffffffffffffffffffffffffffff16815260200190815260200160002060009054906101000a900460ff16905092915050565b6120d561234f565b73ffffffffffffffffffffffffffffffffffffffff166120f3611364565b73ffffffffffffffffffffffffffffffffffffffff1614612149576040517f08c379a000000000000000000000000000000000000000000000000000000000815260040161214090613c91565b60405180910390fd5b600073ffffffffffffffffffffffffffffffffffffffff168173ffffffffffffffffffffffffffffffffffffffff1614156121b9576040517f08c379a00000000000000000000000000000000000000000000000000000000081526004016121b090613af1565b60405180910390fd5b8073ffffffffffffffffffffffffffffffffffffffff16600660009054906101000a900473ffffffffffffffffffffffffffffffffffffffff1673ffffffffffffffffffffffffffffffffffffffff167f8be0079c531659141344cd1fd0a4f28419497f9722a3daafe3b4186f6b6457e060405160405180910390a380600660006101000a81548173ffffffffffffffffffffffffffffffffffffffff021916908373ffffffffffffffffffffffffffffffffffffffff16021790555050565b60007f01ffc9a7000000000000000000000000000000000000000000000000000000007bffffffffffffffffffffffffffffffffffffffffffffffffffffffff1916827bffffffffffffffffffffffffffffffffffffffffffffffffffffffff1916149050919050565b60008073ffffffffffffffffffffffffffffffffffffffff166002600084815260200190815260200160002060009054906101000a900473ffffffffffffffffffffffffffffffffffffffff1673ffffffffffffffffffffffffffffffffffffffff1614159050919050565b600033905090565b816004600083815260200190815260200160002060006101000a81548173ffffffffffffffffffffffffffffffffffffffff021916908373ffffffffffffffffffffffffffffffffffffffff160217905550808273ffffffffffffffffffffffffffffffffffffffff166123ca8361102f565b73ffffffffffffffffffffffffffffffffffffffff167f8c5be1e5ebec7d5bd14f71427d1e84f3dd0314c0f7b2291e5b200ac8c7c3b92560405160405180910390a45050565b600081600001549050919050565b6000612429826122e3565b612468576040517f08c379a000000000000000000000000000000000000000000000000000000000815260040161245f90613b91565b60405180910390fd5b60006124738361102f565b90508073ffffffffffffffffffffffffffffffffffffffff168473ffffffffffffffffffffffffffffffffffffffff1614806124e257508373ffffffffffffffffffffffffffffffffffffffff166124ca84610a5d565b73ffffffffffffffffffffffffffffffffffffffff16145b806124f357506124f28185612039565b5b91505092915050565b8273ffffffffffffffffffffffffffffffffffffffff1661251c8261102f565b73ffffffffffffffffffffffffffffffffffffffff1614612572576040517f08c379a000000000000000000000000000000000000000000000000000000000815260040161256990613cb1565b60405180910390fd5b600073ffffffffffffffffffffffffffffffffffffffff168273ffffffffffffffffffffffffffffffffffffffff1614156125e2576040517f08c379a00000000000000000000000000000000000000000000000000000000081526004016125d990613b51565b60405180910390fd5b6125ed838383612b64565b6125f8600082612357565b6001600360008573ffffffffffffffffffffffffffffffffffffffff1673ffffffffffffffffffffffffffffffffffffffff16815260200190815260200160002060008282546126489190613fb0565b925050819055506001600360008473ffffffffffffffffffffffffffffffffffffffff1673ffffffffffffffffffffffffffffffffffffffff168152602001908152602001600020600082825461269f9190613ecf565b92505081905550816002600083815260200190815260200160002060006101000a81548173ffffffffffffffffffffffffffffffffffffffff021916908373ffffffffffffffffffffffffffffffffffffffff160217905550808273ffffffffffffffffffffffffffffffffffffffff168473ffffffffffffffffffffffffffffffffffffffff167fddf252ad1be2c89b69c2b068fc378daa952ba7f163c4a11628f55a4df523b3ef60405160405180910390a4505050565b60006127638261102f565b905061277181600084612b64565b61277c600083612357565b6001600360008373ffffffffffffffffffffffffffffffffffffffff1673ffffffffffffffffffffffffffffffffffffffff16815260200190815260200160002060008282546127cc9190613fb0565b925050819055506002600083815260200190815260200160002060006101000a81549073ffffffffffffffffffffffffffffffffffffffff021916905581600073ffffffffffffffffffffffffffffffffffffffff168273ffffffffffffffffffffffffffffffffffffffff167fddf252ad1be2c89b69c2b068fc378daa952ba7f163c4a11628f55a4df523b3ef60405160405180910390a45050565b600081836128779190613ecf565b905092915050565b6001816000016000828254019250508190555050565b6128af828260405180602001604052806000815250612b69565b5050565b6128be8484846124fc565b6128ca84848484612bc4565b612909576040517f08c379a000000000000000000000000000000000000000000000000000000000815260040161290090613ad1565b60405180910390fd5b50505050565b6060600a805461291e906140be565b80601f016020809104026020016040519081016040528092919081815260200182805461294a906140be565b80156129975780601f1061296c57610100808354040283529160200191612997565b820191906000526020600020905b81548152906001019060200180831161297a57829003601f168201915b5050505050905090565b606060008214156129e9576040518060400160405280600181526020017f30000000000000000000000000000000000000000000000000000000000000008152509050612b49565b600082905060005b60008214612a1b578080612a0490614121565b915050600a82612a149190613f25565b91506129f1565b60008167ffffffffffffffff811115612a5d577f4e487b7100000000000000000000000000000000000000000000000000000000600052604160045260246000fd5b6040519080825280601f01601f191660200182016040528015612a8f5781602001600182028036833780820191505090505b5090505b60008514612b4257600182612aa89190613fb0565b9150600a85612ab7919061416a565b6030612ac39190613ecf565b60f81b818381518110612aff577f4e487b7100000000000000000000000000000000000000000000000000000000600052603260045260246000fd5b60200101907effffffffffffffffffffffffffffffffffffffffffffffffffffffffffffff1916908160001a905350600a85612b3b9190613f25565b9450612a93565b8093505050505b919050565b60008183612b5c9190613f56565b905092915050565b505050565b612b738383612d5b565b612b806000848484612bc4565b612bbf576040517f08c379a0000000000000000000000000000000000000000000000000000000008152600401612bb690613ad1565b60405180910390fd5b505050565b6000612be58473ffffffffffffffffffffffffffffffffffffffff16612f29565b15612d4e578373ffffffffffffffffffffffffffffffffffffffff1663150b7a02612c0e61234f565b8786866040518563ffffffff1660e01b8152600401612c3094939291906139dd565b602060405180830381600087803b158015612c4a57600080fd5b505af1925050508015612c7b57506040513d601f19601f82011682018060405250810190612c7891906133c3565b60015b612cfe573d8060008114612cab576040519150601f19603f3d011682016040523d82523d6000602084013e612cb0565b606091505b50600081511415612cf6576040517f08c379a0000000000000000000000000000000000000000000000000000000008152600401612ced90613ad1565b60405180910390fd5b805181602001fd5b63150b7a0260e01b7bffffffffffffffffffffffffffffffffffffffffffffffffffffffff1916817bffffffffffffffffffffffffffffffffffffffffffffffffffffffff191614915050612d53565b600190505b949350505050565b600073ffffffffffffffffffffffffffffffffffffffff168273ffffffffffffffffffffffffffffffffffffffff161415612dcb576040517f08c379a0000000000000000000000000000000000000000000000000000000008152600401612dc290613c51565b60405180910390fd5b612dd4816122e3565b15612e14576040517f08c379a0000000000000000000000000000000000000000000000000000000008152600401612e0b90613b11565b60405180910390fd5b612e2060008383612b64565b6001600360008473ffffffffffffffffffffffffffffffffffffffff1673ffffffffffffffffffffffffffffffffffffffff1681526020019081526020016000206000828254612e709190613ecf565b92505081905550816002600083815260200190815260200160002060006101000a81548173ffffffffffffffffffffffffffffffffffffffff021916908373ffffffffffffffffffffffffffffffffffffffff160217905550808273ffffffffffffffffffffffffffffffffffffffff16600073ffffffffffffffffffffffffffffffffffffffff167fddf252ad1be2c89b69c2b068fc378daa952ba7f163c4a11628f55a4df523b3ef60405160405180910390a45050565b600080823b905060008111915050919050565b828054612f48906140be565b90600052602060002090601f016020900481019282612f6a5760008555612fb1565b82601f10612f8357805160ff1916838001178555612fb1565b82800160010185558215612fb1579182015b82811115612fb0578251825591602001919060010190612f95565b5b509050612fbe9190612fc2565b5090565b5b80821115612fdb576000816000905550600101612fc3565b5090565b6000612ff2612fed84613df1565b613dcc565b90508281526020810184848401111561300a57600080fd5b61301584828561407c565b509392505050565b600061303061302b84613e22565b613dcc565b90508281526020810184848401111561304857600080fd5b61305384828561407c565b509392505050565b60008135905061306a816148a0565b92915050565b60008135905061307f816148b7565b92915050565b600081359050613094816148ce565b92915050565b6000815190506130a9816148ce565b92915050565b6000813590506130be816148e5565b92915050565b6000815190506130d3816148e5565b92915050565b60008083601f8401126130eb57600080fd5b8235905067ffffffffffffffff81111561310457600080fd5b60208301915083600182028301111561311c57600080fd5b9250929050565b600082601f83011261313457600080fd5b8135613144848260208601612fdf565b91505092915050565b60008135905061315c816148fc565b92915050565b600082601f83011261317357600080fd5b813561318384826020860161301d565b91505092915050565b60008135905061319b81614913565b92915050565b6000602082840312156131b357600080fd5b60006131c18482850161305b565b91505092915050565b6000602082840312156131dc57600080fd5b60006131ea84828501613070565b91505092915050565b6000806040838503121561320657600080fd5b60006132148582860161305b565b92505060206132258582860161305b565b9150509250929050565b60008060006060848603121561324457600080fd5b60006132528682870161305b565b93505060206132638682870161305b565b92505060406132748682870161318c565b9150509250925092565b6000806000806080858703121561329457600080fd5b60006132a28782880161305b565b94505060206132b38782880161305b565b93505060406132c48782880161318c565b925050606085013567ffffffffffffffff8111156132e157600080fd5b6132ed87828801613123565b91505092959194509250565b6000806040838503121561330c57600080fd5b600061331a8582860161305b565b925050602061332b85828601613085565b9150509250929050565b6000806040838503121561334857600080fd5b60006133568582860161305b565b92505060206133678582860161318c565b9150509250929050565b60006020828403121561338357600080fd5b60006133918482850161309a565b91505092915050565b6000602082840312156133ac57600080fd5b60006133ba848285016130af565b91505092915050565b6000602082840312156133d557600080fd5b60006133e3848285016130c4565b91505092915050565b600080602083850312156133ff57600080fd5b600083013567ffffffffffffffff81111561341957600080fd5b613425858286016130d9565b92509250509250929050565b6000806040838503121561344457600080fd5b60006134528582860161314d565b92505060206134638582860161318c565b9150509250929050565b60006020828403121561347f57600080fd5b600082013567ffffffffffffffff81111561349957600080fd5b6134a584828501613162565b91505092915050565b6000602082840312156134c057600080fd5b60006134ce8482850161318c565b91505092915050565b60006134e38383613965565b60208301905092915050565b6134f881613ff6565b82525050565b61350781613fe4565b82525050565b600061351882613e63565b6135228185613e91565b935061352d83613e53565b8060005b8381101561355e57815161354588826134d7565b975061355083613e84565b925050600181019050613531565b5085935050505092915050565b61357481614008565b82525050565b600061358582613e6e565b61358f8185613ea2565b935061359f81856020860161408b565b6135a881614257565b840191505092915050565b60006135be82613e79565b6135c88185613eb3565b93506135d881856020860161408b565b6135e181614257565b840191505092915050565b60006135f782613e79565b6136018185613ec4565b935061361181856020860161408b565b80840191505092915050565b600061362a600b83613eb3565b915061363582614268565b602082019050919050565b600061364d603283613eb3565b915061365882614291565b604082019050919050565b6000613670602683613eb3565b915061367b826142e0565b604082019050919050565b6000613693601c83613eb3565b915061369e8261432f565b602082019050919050565b60006136b6603183613eb3565b91506136c182614358565b604082019050919050565b60006136d9602483613eb3565b91506136e4826143a7565b604082019050919050565b60006136fc601983613eb3565b9150613707826143f6565b602082019050919050565b600061371f602c83613eb3565b915061372a8261441f565b604082019050919050565b6000613742602b83613eb3565b915061374d8261446e565b604082019050919050565b6000613765603883613eb3565b9150613770826144bd565b604082019050919050565b6000613788602a83613eb3565b91506137938261450c565b604082019050919050565b60006137ab602983613eb3565b91506137b68261455b565b604082019050919050565b60006137ce601183613eb3565b91506137d9826145aa565b602082019050919050565b60006137f1602083613eb3565b91506137fc826145d3565b602082019050919050565b6000613814602c83613eb3565b915061381f826145fc565b604082019050919050565b6000613837602083613eb3565b91506138428261464b565b602082019050919050565b600061385a602983613eb3565b915061386582614674565b604082019050919050565b600061387d603483613eb3565b9150613888826146c3565b604082019050919050565b60006138a0602f83613eb3565b91506138ab82614712565b604082019050919050565b60006138c3602183613eb3565b91506138ce82614761565b604082019050919050565b60006138e6603183613eb3565b91506138f1826147b0565b604082019050919050565b6000613909601b83613eb3565b9150613914826147ff565b602082019050919050565b600061392c603083613eb3565b915061393782614828565b604082019050919050565b600061394f601583613eb3565b915061395a82614877565b602082019050919050565b61396e81614072565b82525050565b61397d81614072565b82525050565b600061398f82856135ec565b915061399b82846135ec565b91508190509392505050565b60006020820190506139bc60008301846134fe565b92915050565b60006020820190506139d760008301846134ef565b92915050565b60006080820190506139f260008301876134fe565b6139ff60208301866134fe565b613a0c6040830185613974565b8181036060830152613a1e818461357a565b905095945050505050565b6000604082019050613a3e60008301856134fe565b613a4b6020830184613974565b9392505050565b60006020820190508181036000830152613a6c818461350d565b905092915050565b6000602082019050613a89600083018461356b565b92915050565b60006020820190508181036000830152613aa981846135b3565b905092915050565b60006020820190508181036000830152613aca8161361d565b9050919050565b60006020820190508181036000830152613aea81613640565b9050919050565b60006020820190508181036000830152613b0a81613663565b9050919050565b60006020820190508181036000830152613b2a81613686565b9050919050565b60006020820190508181036000830152613b4a816136a9565b9050919050565b60006020820190508181036000830152613b6a816136cc565b9050919050565b60006020820190508181036000830152613b8a816136ef565b9050919050565b60006020820190508181036000830152613baa81613712565b9050919050565b60006020820190508181036000830152613bca81613735565b9050919050565b60006020820190508181036000830152613bea81613758565b9050919050565b60006020820190508181036000830152613c0a8161377b565b9050919050565b60006020820190508181036000830152613c2a8161379e565b9050919050565b60006020820190508181036000830152613c4a816137c1565b9050919050565b60006020820190508181036000830152613c6a816137e4565b9050919050565b60006020820190508181036000830152613c8a81613807565b9050919050565b60006020820190508181036000830152613caa8161382a565b9050919050565b60006020820190508181036000830152613cca8161384d565b9050919050565b60006020820190508181036000830152613cea81613870565b9050919050565b60006020820190508181036000830152613d0a81613893565b9050919050565b60006020820190508181036000830152613d2a816138b6565b9050919050565b60006020820190508181036000830152613d4a816138d9565b9050919050565b60006020820190508181036000830152613d6a816138fc565b9050919050565b60006020820190508181036000830152613d8a8161391f565b9050919050565b60006020820190508181036000830152613daa81613942565b9050919050565b6000602082019050613dc66000830184613974565b92915050565b6000613dd6613de7565b9050613de282826140f0565b919050565b6000604051905090565b600067ffffffffffffffff821115613e0c57613e0b614228565b5b613e1582614257565b9050602081019050919050565b600067ffffffffffffffff821115613e3d57613e3c614228565b5b613e4682614257565b9050602081019050919050565b6000819050602082019050919050565b600081519050919050565b600081519050919050565b600081519050919050565b6000602082019050919050565b600082825260208201905092915050565b600082825260208201905092915050565b600082825260208201905092915050565b600081905092915050565b6000613eda82614072565b9150613ee583614072565b9250827fffffffffffffffffffffffffffffffffffffffffffffffffffffffffffffffff03821115613f1a57613f1961419b565b5b828201905092915050565b6000613f3082614072565b9150613f3b83614072565b925082613f4b57613f4a6141ca565b5b828204905092915050565b6000613f6182614072565b9150613f6c83614072565b9250817fffffffffffffffffffffffffffffffffffffffffffffffffffffffffffffffff0483118215151615613fa557613fa461419b565b5b828202905092915050565b6000613fbb82614072565b9150613fc683614072565b925082821015613fd957613fd861419b565b5b828203905092915050565b6000613fef82614052565b9050919050565b600061400182614052565b9050919050565b60008115159050919050565b60007fffffffff0000000000000000000000000000000000000000000000000000000082169050919050565b600061404b82613fe4565b9050919050565b600073ffffffffffffffffffffffffffffffffffffffff82169050919050565b6000819050919050565b82818337600083830152505050565b60005b838110156140a957808201518184015260208101905061408e565b838111156140b8576000848401525b50505050565b600060028204905060018216806140d657607f821691505b602082108114156140ea576140e96141f9565b5b50919050565b6140f982614257565b810181811067ffffffffffffffff8211171561411857614117614228565b5b80604052505050565b600061412c82614072565b91507fffffffffffffffffffffffffffffffffffffffffffffffffffffffffffffffff82141561415f5761415e61419b565b5b600182019050919050565b600061417582614072565b915061418083614072565b9250826141905761418f6141ca565b5b828206905092915050565b7f4e487b7100000000000000000000000000000000000000000000000000000000600052601160045260246000fd5b7f4e487b7100000000000000000000000000000000000000000000000000000000600052601260045260246000fd5b7f4e487b7100000000000000000000000000000000000000000000000000000000600052602260045260246000fd5b7f4e487b7100000000000000000000000000000000000000000000000000000000600052604160045260246000fd5b6000601f19601f8301169050919050565b7f4d6178696d756d20323021000000000000000000000000000000000000000000600082015250565b7f4552433732313a207472616e7366657220746f206e6f6e20455243373231526560008201527f63656976657220696d706c656d656e7465720000000000000000000000000000602082015250565b7f4f776e61626c653a206e6577206f776e657220697320746865207a65726f206160008201527f6464726573730000000000000000000000000000000000000000000000000000602082015250565b7f4552433732313a20746f6b656e20616c7265616479206d696e74656400000000600082015250565b7f50726f76656e616e63652063616e6e6f74206265206368616e676564206f6e6360008201527f652053616c652068617320626567756e2e000000000000000000000000000000602082015250565b7f4552433732313a207472616e7366657220746f20746865207a65726f2061646460008201527f7265737300000000000000000000000000000000000000000000000000000000602082015250565b7f4552433732313a20617070726f766520746f2063616c6c657200000000000000600082015250565b7f4552433732313a206f70657261746f7220717565727920666f72206e6f6e657860008201527f697374656e7420746f6b656e0000000000000000000000000000000000000000602082015250565b7f4c696e6b2063616e6e6f74206265206368616e676564206f6e63652053616c6560008201527f2068617320626567756e2e000000000000000000000000000000000000000000602082015250565b7f4552433732313a20617070726f76652063616c6c6572206973206e6f74206f7760008201527f6e6572206e6f7220617070726f76656420666f7220616c6c0000000000000000602082015250565b7f4552433732313a2062616c616e636520717565727920666f7220746865207a6560008201527f726f206164647265737300000000000000000000000000000000000000000000602082015250565b7f4552433732313a206f776e657220717565727920666f72206e6f6e657869737460008201527f656e7420746f6b656e0000000000000000000000000000000000000000000000602082015250565b7f446f6e74206675636b2061726f756e642e000000000000000000000000000000600082015250565b7f4552433732313a206d696e7420746f20746865207a65726f2061646472657373600082015250565b7f4552433732313a20617070726f76656420717565727920666f72206e6f6e657860008201527f697374656e7420746f6b656e0000000000000000000000000000000000000000602082015250565b7f4f776e61626c653a2063616c6c6572206973206e6f7420746865206f776e6572600082015250565b7f4552433732313a207472616e73666572206f6620746f6b656e2074686174206960008201527f73206e6f74206f776e0000000000000000000000000000000000000000000000602082015250565b7f537461727420626c6f636b2063616e6e6f74206265206368616e676564206f6e60008201527f63652073616c652068617320737461727465642e000000000000000000000000602082015250565b7f4552433732314d657461646174613a2055524920717565727920666f72206e6f60008201527f6e6578697374656e7420746f6b656e0000000000000000000000000000000000602082015250565b7f4552433732313a20617070726f76616c20746f2063757272656e74206f776e6560008201527f7200000000000000000000000000000000000000000000000000000000000000602082015250565b7f4552433732313a207472616e736665722063616c6c6572206973206e6f74206f60008201527f776e6572206e6f7220617070726f766564000000000000000000000000000000602082015250565b7f5761697420666f72207468652073616c6520746f207374617274210000000000600082015250565b7f4552433732314275726e61626c653a2063616c6c6572206973206e6f74206f7760008201527f6e6572206e6f7220617070726f76656400000000000000000000000000000000602082015250565b7f457863656564696e67206d617820737570706c79210000000000000000000000600082015250565b6148a981613fe4565b81146148b457600080fd5b50565b6148c081613ff6565b81146148cb57600080fd5b50565b6148d781614008565b81146148e257600080fd5b50565b6148ee81614014565b81146148f957600080fd5b50565b61490581614040565b811461491057600080fd5b50565b61491c81614072565b811461492757600080fd5b5056fea2646970667358221220c56f66fa7bf45598058fb1e8c5365046cda92408b720b961a4ba5adf33a142e964736f6c63430008040033",
  "immutableReferences": {},
  "source": "// @@@@@@@@@@@@@@@@@@@@@@@@@@@@@@@@@@@@@@@@@@@@@@@@@@@@@@@@@@@@@@@@@@@@@@@@@@@@@@@@\n// @@@@@@@@@@@@@@@@@@@@@@@@@@@@@@@@@@@@@@@@@@@@@@@@@@@@@@@@@@@@@@@@@@@@@@@@@@@@@@@@\n// @@@@@@@@@@@@@@@@@@@@@@@@@@@@@@@@@@@@@@@@@@@@@@@@@@@@@@@@@@@@@@@@@@@@@@@@@@@@@@@@\n// @@@@@@@@@@@@@@@@@@@@@@@@@@@@@@@@@@@@@@@@@@@@@@@@@@@@@@@@@@@@@@@@@@@@@@@@@@@@@@@@\n// @@@@@@@@@@@@@@@@@@@@@@@@@@@@@@@@@@@@@@@@@@@@@@@@@@@@@@@@@@@@@@@@@@@@@@@@@@@@@@@@\n// @@@@@@@@@@@@@@@@@@@@@@@@@@@@@@@@@@@@@@@@@@@@@@@@@@@@@@@@@@@@@@@@@@@@@@@@@@@@@@@@\n// @@@@@@@@@@@@@@@@@@@@@@@@@@@@@@@@@@@@@@@*.&@@@@@@@@@@@@@@@@@@@@@@@@@@@@@@@@@@@@@@\n// @@@@@@@@@@@@@@@@@@@@@@@@@@@@@@@@@@@@@@....(@@@@@@@@@@@@@@@@@@@@@@@@@@@@@@@@@@@@@\n// @@@@@@@@@@@@@@@@@@@@@@@@@@@@@@@@@@@@@......(@@@@@@@@@@@@@@@@@@@@@@@@@@@@@@@@@@@@\n// @@@@@@@@@@@@@@@@@@@@@@@@@@@@@@@@@@@@,.......@@@@@@@@@@@@@@@@@@@@@@@@@@@@@@@@@@@@\n// @@@@@@@@@@@@@@@@@@@@@@@@@@@@@@@@@@@&.........@@@@@@@@@@@@@@@@@@@@@@@@@@@@@@@@@@@\n// @@@@@@@@@@@@@@@@@@@@@@@@@@@@@@@@@@@........../@@@@@@@@@@@@@@@@@@@@@@@@@@@@@@@@@@\n// @@@@@@@@@@@@@@... (@@@@@@@@@@@@@@@@...........@@@@@@@@@@@@@@@&* ..(@@@@@@@@@@@@@\n// @@@@@@@@@@@@@@@........ /@@@@@@@@@%...........@@@@@@@@@@,........,@@@@@@@@@@@@@@\n// @@@@@@@@@@@@@@@@............/@@@@@&...........@@@@@@.............@@@@@@@@@@@@@@@\n// @@@@@@@@@@@@@@@@@............../@@@...........@@@..............#@@@@@@@@@@@@@@@@\n// @@@@@@@@@@@@@@@@@@&...............@,.........%@...............@@@@@@@@@@@@@@@@@@\n// @@@@@@@@@@@@@@@@@@@@#............../........  ..............@@@@@@@@@@@@@@@@@@@@\n// @@@@@@@@@@@@@@@@@@@@@@@...................................@@@@@@@@@@@@@@@@@@@@@@\n// @@@@@@@@@@@@@@@@@@@@@@@@@@.............................@@@@@@@@@@@@@@@@@@@@@@@@@\n// @@@@@@@@@@@@@@@@@@@@@@@@@@&%%%.....................&%&&@@@@@@@@@@@@@@@@@@@@@@@@@\n// @@@@@@@@@@@@@@@@@@(...........................................%@@@@@@@@@@@@@@@@@\n// @@@@@@@@@@@@@@@,................................................./@@@@@@@@@@@@@@\n// @@@@@@@@@@@@@@@@@@@@&(. ..... .*%#...../.&.....&#,...... .,#@@@@@@@@@@@@@@@@@@@@\n// @@@@@@@@@@@@@@@@@@@@@@@@@@@@@@@@.....&@/.@@/.....@@@@@@@@@@@@@@@@@@@@@@@@@@@@@@@\n// @@@@@@@@@@@@@@@@@@@@@@@@@@@@@@@..,@@@@@/.@@@@@%..,@@@@@@@@@@@@@@@@@@@@@@@@@@@@@@\n// @@@@@@@@@@@@@@@@@@@@@@@@@@@@@@@@@@@@@@@/.@@@@@@@@@@@@@@@@@@@@@@@@@@@@@@@@@@@@@@@\n// @@@@@@@@@@@@@@@@@@@@@@@@@@@@@@@@@@@@@@@@@@@@@@@@@@@@@@@@@@@@@@@@@@@@@@@@@@@@@@@@\n// @@@@@@@@@@@@@@@@@@@@@@@@@@@@@@@@@@@@@@@@@@@@@@@@@@@@@@@@@@@@@@@@@@@@@@@@@@@@@@@@\n// @@@@@@@@@@@@@@@@@@@@@@@@@@@@@@@@@@@@@@@@@@@@@@@@@@@@@@@@@@@@@@@@@@@@@@@@@@@@@@@@\n// @@@@@@@@@@@@@@@@@@@@@@@@@@@@@@@@@@@@@@@@@@@@@@@@@@@@@@@@@@@@@@@@@@@@@@@@@@@@@@@@\n// @@@@@@@@@@@@@@@@@@@@@@@@@@@@@@@@@@@@@@@@@@@@@@@@@@@@@@@@@@@@@@@@@@@@@@@@@@@@@@@@\n// @@@@@@@@@@@@@@@@@@@@@@@@@@@@@@@@@@@@@@@@@@@@@@@@@@@@@@@@@@@@@@@@@@@@@@@@@@@@@@@@\n//\n// Stoners Rock\n//\n// 10,420 on-chain Rock NFTs\n// https://stonersrock.com\n//\n// Twitter: https://twitter.com/mystoners\n//\n// Project by:      @sircryptos\n// Art by:          @linedetail\n// Code by:         @sarasioux\n//\n// SPDX-License-Identifier: MIT\n\npragma solidity ^0.8.4;\n\nimport '@openzeppelin/contracts/token/ERC721/extensions/ERC721Burnable.sol';\nimport '@openzeppelin/contracts/access/Ownable.sol';\nimport \"@openzeppelin/contracts/utils/Counters.sol\";\nimport '@openzeppelin/contracts/token/ERC20/IERC20.sol';\nimport \"./StonersSplit.sol\";\n\ncontract StonersRock is ERC721Burnable, Ownable {\n    using SafeMath for uint256;\n    using Counters for Counters.Counter;\n    Counters.Counter private _tokenIds;\n    Counters.Counter private _reserveIds;\n\n    // Rocks\n    string public PROVENANCE = '';\n    string public baseUri;\n\n    // Sales\n    uint256 public saleStartBlock = 120250457;\n    uint256 public constant rockPrice = 42069000000000000; //0.042069 ETH\n    uint public constant maxRockPurchase = 20;\n    uint public constant maxRockSupply = 10420;\n    uint public constant maxReserveSupply = 420;\n\n    // Internals\n    address payable private splitContract;\n    mapping (bytes32=> uint256) private requestByToken;\n    event RockMinted(address minter, uint256 tokenId, string tokenUri);\n\n    // Constructor\n    constructor(string memory _baseUri) ERC721(\"Stoners\", \"ROCK\") {\n        baseUri = _baseUri;\n        _tokenIds._value = maxReserveSupply;\n    }\n\n\n    /*\n    *   Check if the sale has started yet.\n    */\n    function saleStarted() public view returns (bool) {\n        return block.number >= saleStartBlock;\n    }\n\n    /*\n    *   Mint reserved rocks for giveaways and the teams.\n    */\n    function reserveRocks(uint256 numberOfTokens) public onlyOwner {\n        uint256 reserved = _reserveIds.current();\n        require(numberOfTokens <= maxRockPurchase, \"Maximum 20!\");\n        require(reserved.add(numberOfTokens) <= maxReserveSupply, \"Exceeding max supply!\");\n        for (uint i = 0; i < numberOfTokens; i++) {\n            _reserveIds.increment();\n            uint256 tokenId = _reserveIds.current();\n            _safeMint(msg.sender, tokenId);\n        }\n    }\n\n    function getCurrentRockId() public view returns(uint256 currentRockId) {\n        currentRockId = _tokenIds.current();\n        return currentRockId;\n    }\n\n    function getCurrentReserveId() public view returns(uint256 currentRockId) {\n        currentRockId = _reserveIds.current();\n        return currentRockId;\n    }\n\n    /**\n    *   Public function for minting a rock and enforcing requirements.\n    */\n    function mintRock(uint numberOfTokens) public payable {\n        uint256 totalIssued = _tokenIds.current();\n        require(saleStarted(), \"Wait for the sale to start!\");\n        require(numberOfTokens <= maxRockPurchase, \"Maximum 20!\");\n        require(totalIssued.add(numberOfTokens) <= maxRockSupply, \"Exceeding max supply!\");\n        require(rockPrice.mul(numberOfTokens) >= msg.value, \"Dont fuck around.\");\n\n        for(uint i = 0; i < numberOfTokens; i++) {\n            _tokenIds.increment();\n            uint256 tokenId = _tokenIds.current();\n            _safeMint(msg.sender, tokenId);\n        }\n    }\n\n    /**\n    *   External function for getting all rocks by a specific owner.\n    */\n    function getRocksByOwner(address _owner) view public returns(uint256[] memory) {\n        uint256 tokenCount = balanceOf(_owner);\n        if (tokenCount == 0) {\n            return new uint256[](0);\n        } else {\n            uint256[] memory result = new uint256[](tokenCount);\n            uint256 totalTokens = _tokenIds.current();\n            uint256 resultIndex = 0;\n            for (uint256 t = 1; t <= totalTokens; t++) {\n                if (_exists(t) && ownerOf(t) == _owner) {\n                    result[resultIndex] = t;\n                    resultIndex++;\n                }\n            }\n            return result;\n        }\n    }\n\n    /*\n    *   Owner setters.\n    */\n\n    function setRoyaltyContract(address payable _splitContract) public onlyOwner {\n        splitContract = _splitContract;\n    }\n\n    function setBaseUri(string memory _baseUri) public onlyOwner {\n        require(\n            !saleStarted(),\n            'Link cannot be changed once Sale has begun.'\n        );\n        baseUri = _baseUri;\n    }\n\n    function setProvenanceHash(string memory _hash) public onlyOwner {\n        require(\n            !saleStarted(),\n            'Provenance cannot be changed once Sale has begun.'\n        );\n        PROVENANCE = _hash;\n    }\n\n    function setSaleStartBlock(uint256 _saleStartBlock) public onlyOwner {\n        require(\n            !saleStarted(),\n            'Start block cannot be changed once sale has started.'\n        );\n        saleStartBlock = _saleStartBlock;\n    }\n\n    /*\n    *   Money management.\n    */\n\n    function withdraw(uint256 amount) public onlyOwner {\n        payable(msg.sender).transfer(amount);\n    }\n\n    function withdrawRoyalties() public onlyOwner {\n        StonersSplit(splitContract).release(payable(address(this)));\n    }\n\n    function forwardERC20s(IERC20 _token, uint256 _amount) public onlyOwner {\n        _token.transfer(msg.sender, _amount);\n    }\n\n    /*\n    *   On chain storage.\n    */\n    function uploadRockImages(bytes calldata s) external onlyOwner {}\n    function uploadRockAttributes(bytes calldata s) external onlyOwner {}\n\n    /*\n    *   Overrides\n    */\n    function _baseURI() internal view override returns (string memory) {\n        return baseUri;\n    }\n\n}\n",
  "sourcePath": "/Users/Shared/Code/experimental/stoners-stack/stoners-contracts/contracts/StonersRock.sol",
  "compiler": {
    "name": "solc",
    "version": "0.8.4+commit.c7e474f2.Emscripten.clang"
  },
  "schemaVersion": "3.4.1",
  "updatedAt": "2021-07-03T13:59:23.693Z",
  "networkType": "ethereum",
  "devdoc": {
    "kind": "dev",
    "methods": {
      "approve(address,uint256)": {
        "details": "See {IERC721-approve}."
      },
      "balanceOf(address)": {
        "details": "See {IERC721-balanceOf}."
      },
      "burn(uint256)": {
        "details": "Burns `tokenId`. See {ERC721-_burn}. Requirements: - The caller must own `tokenId` or be an approved operator."
      },
      "getApproved(uint256)": {
        "details": "See {IERC721-getApproved}."
      },
      "isApprovedForAll(address,address)": {
        "details": "See {IERC721-isApprovedForAll}."
      },
      "name()": {
        "details": "See {IERC721Metadata-name}."
      },
      "owner()": {
        "details": "Returns the address of the current owner."
      },
      "ownerOf(uint256)": {
        "details": "See {IERC721-ownerOf}."
      },
      "renounceOwnership()": {
        "details": "Leaves the contract without owner. It will not be possible to call `onlyOwner` functions anymore. Can only be called by the current owner. NOTE: Renouncing ownership will leave the contract without an owner, thereby removing any functionality that is only available to the owner."
      },
      "safeTransferFrom(address,address,uint256)": {
        "details": "See {IERC721-safeTransferFrom}."
      },
      "safeTransferFrom(address,address,uint256,bytes)": {
        "details": "See {IERC721-safeTransferFrom}."
      },
      "setApprovalForAll(address,bool)": {
        "details": "See {IERC721-setApprovalForAll}."
      },
      "supportsInterface(bytes4)": {
        "details": "See {IERC165-supportsInterface}."
      },
      "symbol()": {
        "details": "See {IERC721Metadata-symbol}."
      },
      "tokenURI(uint256)": {
        "details": "See {IERC721Metadata-tokenURI}."
      },
      "transferFrom(address,address,uint256)": {
        "details": "See {IERC721-transferFrom}."
      },
      "transferOwnership(address)": {
        "details": "Transfers ownership of the contract to a new account (`newOwner`). Can only be called by the current owner."
      }
    },
    "version": 1
  },
  "userdoc": {
    "kind": "user",
    "methods": {
      "getRocksByOwner(address)": {
        "notice": "External function for getting all rocks by a specific owner."
      },
      "mintRock(uint256)": {
        "notice": "Public function for minting a rock and enforcing requirements."
      }
    },
    "version": 1
  }
}