{
  "contractName": "StonersSplit",
  "abi": [
    {
      "inputs": [
        {
          "internalType": "address[]",
          "name": "payees",
          "type": "address[]"
        },
        {
          "internalType": "uint256[]",
          "name": "shares",
          "type": "uint256[]"
        }
      ],
      "stateMutability": "nonpayable",
      "type": "constructor"
    },
    {
      "anonymous": false,
      "inputs": [
        {
          "indexed": false,
          "internalType": "address",
          "name": "account",
          "type": "address"
        },
        {
          "indexed": false,
          "internalType": "uint256",
          "name": "shares",
          "type": "uint256"
        }
      ],
      "name": "PayeeAdded",
      "type": "event"
    },
    {
      "anonymous": false,
      "inputs": [
        {
          "indexed": false,
          "internalType": "address",
          "name": "from",
          "type": "address"
        },
        {
          "indexed": false,
          "internalType": "uint256",
          "name": "amount",
          "type": "uint256"
        }
      ],
      "name": "PaymentReceived",
      "type": "event"
    },
    {
      "anonymous": false,
      "inputs": [
        {
          "indexed": false,
          "internalType": "address",
          "name": "to",
          "type": "address"
        },
        {
          "indexed": false,
          "internalType": "uint256",
          "name": "amount",
          "type": "uint256"
        }
      ],
      "name": "PaymentReleased",
      "type": "event"
    },
    {
      "inputs": [
        {
          "internalType": "uint256",
          "name": "index",
          "type": "uint256"
        }
      ],
      "name": "payee",
      "outputs": [
        {
          "internalType": "address",
          "name": "",
          "type": "address"
        }
      ],
      "stateMutability": "view",
      "type": "function",
      "constant": true
    },
    {
      "inputs": [
        {
          "internalType": "address",
          "name": "account",
          "type": "address"
        }
      ],
      "name": "released",
      "outputs": [
        {
          "internalType": "uint256",
          "name": "",
          "type": "uint256"
        }
      ],
      "stateMutability": "view",
      "type": "function",
      "constant": true
    },
    {
      "inputs": [
        {
          "internalType": "address",
          "name": "account",
          "type": "address"
        }
      ],
      "name": "shares",
      "outputs": [
        {
          "internalType": "uint256",
          "name": "",
          "type": "uint256"
        }
      ],
      "stateMutability": "view",
      "type": "function",
      "constant": true
    },
    {
      "inputs": [],
      "name": "totalReleased",
      "outputs": [
        {
          "internalType": "uint256",
          "name": "",
          "type": "uint256"
        }
      ],
      "stateMutability": "view",
      "type": "function",
      "constant": true
    },
    {
      "inputs": [],
      "name": "totalShares",
      "outputs": [
        {
          "internalType": "uint256",
          "name": "",
          "type": "uint256"
        }
      ],
      "stateMutability": "view",
      "type": "function",
      "constant": true
    },
    {
      "stateMutability": "payable",
      "type": "receive",
      "payable": true
    },
    {
      "inputs": [
        {
          "internalType": "address payable",
          "name": "account",
          "type": "address"
        }
      ],
      "name": "release",
      "outputs": [],
      "stateMutability": "nonpayable",
      "type": "function"
    },
    {
      "inputs": [],
      "name": "release",
      "outputs": [],
      "stateMutability": "nonpayable",
      "type": "function"
    },
    {
      "inputs": [
        {
          "internalType": "address payable",
          "name": "account",
          "type": "address"
        }
      ],
      "name": "getOwed",
      "outputs": [
        {
          "internalType": "uint256",
          "name": "",
          "type": "uint256"
        }
      ],
      "stateMutability": "view",
      "type": "function",
      "constant": true
    }
  ],
  "bytecode": "0x60806040523480156200001157600080fd5b506040516200189738038062001897833981810160405281019062000037919062000535565b8181805182511462000080576040517f08c379a00000000000000000000000000000000000000000000000000000000081526004016200007790620006dc565b60405180910390fd5b6000825111620000c7576040517f08c379a0000000000000000000000000000000000000000000000000000000008152600401620000be9062000720565b60405180910390fd5b60005b82518110156200017e576200016883828151811062000112577f4e487b7100000000000000000000000000000000000000000000000000000000600052603260045260246000fd5b602002602001015183838151811062000154577f4e487b7100000000000000000000000000000000000000000000000000000000600052603260045260246000fd5b60200260200101516200018960201b60201c565b80806200017590620008cd565b915050620000ca565b505050505062000afd565b600073ffffffffffffffffffffffffffffffffffffffff168273ffffffffffffffffffffffffffffffffffffffff161415620001fc576040517f08c379a0000000000000000000000000000000000000000000000000000000008152600401620001f390620006ba565b60405180910390fd5b6000811162000242576040517f08c379a0000000000000000000000000000000000000000000000000000000008152600401620002399062000742565b60405180910390fd5b6000600260008473ffffffffffffffffffffffffffffffffffffffff1673ffffffffffffffffffffffffffffffffffffffff1681526020019081526020016000205414620002c7576040517f08c379a0000000000000000000000000000000000000000000000000000000008152600401620002be90620006fe565b60405180910390fd5b6004829080600181540180825580915050600190039060005260206000200160009091909190916101000a81548173ffffffffffffffffffffffffffffffffffffffff021916908373ffffffffffffffffffffffffffffffffffffffff16021790555080600260008473ffffffffffffffffffffffffffffffffffffffff1673ffffffffffffffffffffffffffffffffffffffff16815260200190815260200160002081905550806000546200037e9190620007fc565b6000819055507f40c340f65e17194d14ddddb073d3c9f888e3cb52b5aae0c6c7706b4fbc905fac8282604051620003b79291906200068d565b60405180910390a15050565b6000620003da620003d4846200078d565b62000764565b90508083825260208201905082856020860282011115620003fa57600080fd5b60005b858110156200042e5781620004138882620004ad565b845260208401935060208301925050600181019050620003fd565b5050509392505050565b60006200044f6200044984620007bc565b62000764565b905080838252602082019050828560208602820111156200046f57600080fd5b60005b85811015620004a357816200048888826200051e565b84526020840193506020830192505060018101905062000472565b5050509392505050565b600081519050620004be8162000ac9565b92915050565b600082601f830112620004d657600080fd5b8151620004e8848260208601620003c3565b91505092915050565b600082601f8301126200050357600080fd5b81516200051584826020860162000438565b91505092915050565b6000815190506200052f8162000ae3565b92915050565b600080604083850312156200054957600080fd5b600083015167ffffffffffffffff8111156200056457600080fd5b6200057285828601620004c4565b925050602083015167ffffffffffffffff8111156200059057600080fd5b6200059e85828601620004f1565b9150509250929050565b620005b38162000859565b82525050565b6000620005c8602c83620007eb565b9150620005d5826200098a565b604082019050919050565b6000620005ef603283620007eb565b9150620005fc82620009d9565b604082019050919050565b600062000616602b83620007eb565b9150620006238262000a28565b604082019050919050565b60006200063d601a83620007eb565b91506200064a8262000a77565b602082019050919050565b600062000664601d83620007eb565b9150620006718262000aa0565b602082019050919050565b62000687816200088d565b82525050565b6000604082019050620006a46000830185620005a8565b620006b360208301846200067c565b9392505050565b60006020820190508181036000830152620006d581620005b9565b9050919050565b60006020820190508181036000830152620006f781620005e0565b9050919050565b60006020820190508181036000830152620007198162000607565b9050919050565b600060208201905081810360008301526200073b816200062e565b9050919050565b600060208201905081810360008301526200075d8162000655565b9050919050565b60006200077062000783565b90506200077e828262000897565b919050565b6000604051905090565b600067ffffffffffffffff821115620007ab57620007aa6200094a565b5b602082029050602081019050919050565b600067ffffffffffffffff821115620007da57620007d96200094a565b5b602082029050602081019050919050565b600082825260208201905092915050565b600062000809826200088d565b915062000816836200088d565b9250827fffffffffffffffffffffffffffffffffffffffffffffffffffffffffffffffff038211156200084e576200084d6200091b565b5b828201905092915050565b600062000866826200086d565b9050919050565b600073ffffffffffffffffffffffffffffffffffffffff82169050919050565b6000819050919050565b620008a28262000979565b810181811067ffffffffffffffff82111715620008c457620008c36200094a565b5b80604052505050565b6000620008da826200088d565b91507fffffffffffffffffffffffffffffffffffffffffffffffffffffffffffffffff82141562000910576200090f6200091b565b5b600182019050919050565b7f4e487b7100000000000000000000000000000000000000000000000000000000600052601160045260246000fd5b7f4e487b7100000000000000000000000000000000000000000000000000000000600052604160045260246000fd5b6000601f19601f8301169050919050565b7f5061796d656e7453706c69747465723a206163636f756e74206973207468652060008201527f7a65726f20616464726573730000000000000000000000000000000000000000602082015250565b7f5061796d656e7453706c69747465723a2070617965657320616e64207368617260008201527f6573206c656e677468206d69736d617463680000000000000000000000000000602082015250565b7f5061796d656e7453706c69747465723a206163636f756e7420616c726561647960008201527f2068617320736861726573000000000000000000000000000000000000000000602082015250565b7f5061796d656e7453706c69747465723a206e6f20706179656573000000000000600082015250565b7f5061796d656e7453706c69747465723a20736861726573206172652030000000600082015250565b62000ad48162000859565b811462000ae057600080fd5b50565b62000aee816200088d565b811462000afa57600080fd5b50565b610d8a8062000b0d6000396000f3fe60806040526004361061007f5760003560e01c80638b83209b1161004e5780638b83209b146101735780639852595c146101b0578063ce7c2ac2146101ed578063e33b7de31461022a576100c6565b806319165587146100cb5780633a98ef39146100f457806370c0b6471461011f57806386d1a69f1461015c576100c6565b366100c6577f6ef95f06320e7a25a04a175ca677b7052bdd97131872c2192525a629f51be7706100ad610255565b346040516100bc92919061091f565b60405180910390a1005b600080fd5b3480156100d757600080fd5b506100f260048036038101906100ed9190610798565b61025d565b005b34801561010057600080fd5b506101096104c5565b60405161011691906109c8565b60405180910390f35b34801561012b57600080fd5b5061014660048036038101906101419190610798565b6104ce565b60405161015391906109c8565b60405180910390f35b34801561016857600080fd5b50610171610527565b005b34801561017f57600080fd5b5061019a600480360381019061019591906107c1565b610532565b6040516101a791906108db565b60405180910390f35b3480156101bc57600080fd5b506101d760048036038101906101d2919061076f565b6105a0565b6040516101e491906109c8565b60405180910390f35b3480156101f957600080fd5b50610214600480360381019061020f919061076f565b6105e9565b60405161022191906109c8565b60405180910390f35b34801561023657600080fd5b5061023f610632565b60405161024c91906109c8565b60405180910390f35b600033905090565b6000600260008373ffffffffffffffffffffffffffffffffffffffff1673ffffffffffffffffffffffffffffffffffffffff16815260200190815260200160002054116102df576040517f08c379a00000000000000000000000000000000000000000000000000000000081526004016102d690610948565b60405180910390fd5b6000600154476102ef91906109ff565b90506000600360008473ffffffffffffffffffffffffffffffffffffffff1673ffffffffffffffffffffffffffffffffffffffff16815260200190815260200160002054600054600260008673ffffffffffffffffffffffffffffffffffffffff1673ffffffffffffffffffffffffffffffffffffffff16815260200190815260200160002054846103819190610a86565b61038b9190610a55565b6103959190610ae0565b905060008114156103db576040517f08c379a00000000000000000000000000000000000000000000000000000000081526004016103d2906109a8565b60405180910390fd5b80600360008573ffffffffffffffffffffffffffffffffffffffff1673ffffffffffffffffffffffffffffffffffffffff1681526020019081526020016000205461042691906109ff565b600360008573ffffffffffffffffffffffffffffffffffffffff1673ffffffffffffffffffffffffffffffffffffffff168152602001908152602001600020819055508060015461047791906109ff565b600181905550610487838261063c565b7fdf20fd1e76bc69d672e4814fafb2c449bba3a5369d8359adf9e05e6fde87b05683826040516104b89291906108f6565b60405180910390a1505050565b60008054905090565b6000806104d9610632565b476104e491906109ff565b90506104ef836105a0565b6104f76104c5565b610500856105e9565b8361050b9190610a86565b6105159190610a55565b61051f9190610ae0565b915050919050565b6105303361025d565b565b60006004828154811061056e577f4e487b7100000000000000000000000000000000000000000000000000000000600052603260045260246000fd5b9060005260206000200160009054906101000a900473ffffffffffffffffffffffffffffffffffffffff169050919050565b6000600360008373ffffffffffffffffffffffffffffffffffffffff1673ffffffffffffffffffffffffffffffffffffffff168152602001908152602001600020549050919050565b6000600260008373ffffffffffffffffffffffffffffffffffffffff1673ffffffffffffffffffffffffffffffffffffffff168152602001908152602001600020549050919050565b6000600154905090565b8047101561067f576040517f08c379a000000000000000000000000000000000000000000000000000000000815260040161067690610988565b60405180910390fd5b60008273ffffffffffffffffffffffffffffffffffffffff16826040516106a5906108c6565b60006040518083038185875af1925050503d80600081146106e2576040519150601f19603f3d011682016040523d82523d6000602084013e6106e7565b606091505b505090508061072b576040517f08c379a000000000000000000000000000000000000000000000000000000000815260040161072290610968565b60405180910390fd5b505050565b60008135905061073f81610d0f565b92915050565b60008135905061075481610d26565b92915050565b60008135905061076981610d3d565b92915050565b60006020828403121561078157600080fd5b600061078f84828501610730565b91505092915050565b6000602082840312156107aa57600080fd5b60006107b884828501610745565b91505092915050565b6000602082840312156107d357600080fd5b60006107e18482850161075a565b91505092915050565b6107f381610b62565b82525050565b61080281610b14565b82525050565b60006108156026836109ee565b915061082082610bf6565b604082019050919050565b6000610838603a836109ee565b915061084382610c45565b604082019050919050565b600061085b601d836109ee565b915061086682610c94565b602082019050919050565b600061087e602b836109ee565b915061088982610cbd565b604082019050919050565b60006108a16000836109e3565b91506108ac82610d0c565b600082019050919050565b6108c081610b58565b82525050565b60006108d182610894565b9150819050919050565b60006020820190506108f060008301846107f9565b92915050565b600060408201905061090b60008301856107ea565b61091860208301846108b7565b9392505050565b600060408201905061093460008301856107f9565b61094160208301846108b7565b9392505050565b6000602082019050818103600083015261096181610808565b9050919050565b600060208201905081810360008301526109818161082b565b9050919050565b600060208201905081810360008301526109a18161084e565b9050919050565b600060208201905081810360008301526109c181610871565b9050919050565b60006020820190506109dd60008301846108b7565b92915050565b600081905092915050565b600082825260208201905092915050565b6000610a0a82610b58565b9150610a1583610b58565b9250827fffffffffffffffffffffffffffffffffffffffffffffffffffffffffffffffff03821115610a4a57610a49610b98565b5b828201905092915050565b6000610a6082610b58565b9150610a6b83610b58565b925082610a7b57610a7a610bc7565b5b828204905092915050565b6000610a9182610b58565b9150610a9c83610b58565b9250817fffffffffffffffffffffffffffffffffffffffffffffffffffffffffffffffff0483118215151615610ad557610ad4610b98565b5b828202905092915050565b6000610aeb82610b58565b9150610af683610b58565b925082821015610b0957610b08610b98565b5b828203905092915050565b6000610b1f82610b38565b9050919050565b6000610b3182610b38565b9050919050565b600073ffffffffffffffffffffffffffffffffffffffff82169050919050565b6000819050919050565b6000610b6d82610b74565b9050919050565b6000610b7f82610b86565b9050919050565b6000610b9182610b38565b9050919050565b7f4e487b7100000000000000000000000000000000000000000000000000000000600052601160045260246000fd5b7f4e487b7100000000000000000000000000000000000000000000000000000000600052601260045260246000fd5b7f5061796d656e7453706c69747465723a206163636f756e7420686173206e6f2060008201527f7368617265730000000000000000000000000000000000000000000000000000602082015250565b7f416464726573733a20756e61626c6520746f2073656e642076616c75652c207260008201527f6563697069656e74206d61792068617665207265766572746564000000000000602082015250565b7f416464726573733a20696e73756666696369656e742062616c616e6365000000600082015250565b7f5061796d656e7453706c69747465723a206163636f756e74206973206e6f742060008201527f647565207061796d656e74000000000000000000000000000000000000000000602082015250565b50565b610d1881610b14565b8114610d2357600080fd5b50565b610d2f81610b26565b8114610d3a57600080fd5b50565b610d4681610b58565b8114610d5157600080fd5b5056fea26469706673582212203b560880d78c7b1e629c0b7c7d6381f13ddd1e814299fbe3535083f551370a9564736f6c63430008040033",
  "immutableReferences": {},
  "source": "// @@@@@@@@@@@@@@@@@@@@@@@@@@@@@@@@@@@@@@@@@@@@@@@@@@@@@@@@@@@@@@@@@@@@@@@@@@@@@@@@\n// @@@@@@@@@@@@@@@@@@@@@@@@@@@@@@@@@@@@@@@@@@@@@@@@@@@@@@@@@@@@@@@@@@@@@@@@@@@@@@@@\n// @@@@@@@@@@@@@@@@@@@@@@@@@@@@@@@@@@@@@@@@@@@@@@@@@@@@@@@@@@@@@@@@@@@@@@@@@@@@@@@@\n// @@@@@@@@@@@@@@@@@@@@@@@@@@@@@@@@@@@@@@@@@@@@@@@@@@@@@@@@@@@@@@@@@@@@@@@@@@@@@@@@\n// @@@@@@@@@@@@@@@@@@@@@@@@@@@@@@@@@@@@@@@@@@@@@@@@@@@@@@@@@@@@@@@@@@@@@@@@@@@@@@@@\n// @@@@@@@@@@@@@@@@@@@@@@@@@@@@@@@@@@@@@@@/\\@@@@@@@@@@@@@@@@@@@@@@@@@@@@@@@@@@@@@@@\n// @@@@@@@@@@@@@@@@@@@@@@@@@@@@@@@@@@@@@@@..@@@@@@@@@@@@@@@@@@@@@@@@@@@@@@@@@@@@@@@\n// @@@@@@@@@@@@@@@@@@@@@@@@@@@@@@@@@@@@@@....(@@@@@@@@@@@@@@@@@@@@@@@@@@@@@@@@@@@@@\n// @@@@@@@@@@@@@@@@@@@@@@@@@@@@@@@@@@@@@......(@@@@@@@@@@@@@@@@@@@@@@@@@@@@@@@@@@@@\n// @@@@@@@@@@@@@@@@@@@@@@@@@@@@@@@@@@@@,.......@@@@@@@@@@@@@@@@@@@@@@@@@@@@@@@@@@@@\n// @@@@@@@@@@@@@@@@@@@@@@@@@@@@@@@@@@@&.........@@@@@@@@@@@@@@@@@@@@@@@@@@@@@@@@@@@\n// @@@@@@@@@@@@@@@@@@@@@@@@@@@@@@@@@@@........../@@@@@@@@@@@@@@@@@@@@@@@@@@@@@@@@@@\n// @@@@@@@@@@@@@\\....(@@@@@@@@@@@@@@@@...........@@@@@@@@@@@@@@@@)..../@@@@@@@@@@@@\n// @@@@@@@@@@@@@@@..........@@@@@@@@@%...........@@@@@@@@@@,........,@@@@@@@@@@@@@@\n// @@@@@@@@@@@@@@@@.............@@@@@&...........@@@@@@.............@@@@@@@@@@@@@@@\n// @@@@@@@@@@@@@@@@@...............@@@...........@@@..............#@@@@@@@@@@@@@@@@\n// @@@@@@@@@@@@@@@@@@&...............@...........@...............@@@@@@@@@@@@@@@@@@\n// @@@@@@@@@@@@@@@@@@@@#.......................................@@@@@@@@@@@@@@@@@@@@\n// @@@@@@@@@@@@@@@@@@@@@@@...................................@@@@@@@@@@@@@@@@@@@@@@\n// @@@@@@@@@@@@@@@@@@@@@@@@@@.............................@@@@@@@@@@@@@@@@@@@@@@@@@\n// @@@@@@@@@@@@@@@@@@@@@@@@@@&%%%.....................&%&&@@@@@@@@@@@@@@@@@@@@@@@@@\n// @@@@@@@@@@@@@@@@@@(...........................................%@@@@@@@@@@@@@@@@@\n// @@@@@@@@@@@@@@@\\................................................./@@@@@@@@@@@@@@\n// @@@@@@@@@@@@@@@@@@@@#,.......&#,...............&#,........,#@@@@@@@@@@@@@@@@@@@@\n// @@@@@@@@@@@@@@@@@@@@@@@@@@@@@@@@.....&@/.@@......@@@@@@@@@@@@@@@@@@@@@@@@@@@@@@@\n// @@@@@@@@@@@@@@@@@@@@@@@@@@@@@@@..,@@@@@/.@@@@@%..,@@@@@@@@@@@@@@@@@@@@@@@@@@@@@@\n// @@@@@@@@@@@@@@@@@@@@@@@@@@@@@@@@@@@@@@@/.@@@@@@@@@@@@@@@@@@@@@@@@@@@@@@@@@@@@@@@\n// @@@@@@@@@@@@@@@@@@@@@@@@@@@@@@@@@@@@@@@@@@@@@@@@@@@@@@@@@@@@@@@@@@@@@@@@@@@@@@@@\n// @@@@@@@@@@@@@@@@@@@@@@@@@@@@@@@@@@@@@@@@@@@@@@@@@@@@@@@@@@@@@@@@@@@@@@@@@@@@@@@@\n// @@@@@@@@@@@@@@@@@@@@@@@@@@@@@@@@@@@@@@@@@@@@@@@@@@@@@@@@@@@@@@@@@@@@@@@@@@@@@@@@\n// @@@@@@@@@@@@@@@@@@@@@@@@@@@@@@@@@@@@@@@@@@@@@@@@@@@@@@@@@@@@@@@@@@@@@@@@@@@@@@@@\n// @@@@@@@@@@@@@@@@@@@@@@@@@@@@@@@@@@@@@@@@@@@@@@@@@@@@@@@@@@@@@@@@@@@@@@@@@@@@@@@@\n// @@@@@@@@@@@@@@@@@@@@@@@@@@@@@@@@@@@@@@@@@@@@@@@@@@@@@@@@@@@@@@@@@@@@@@@@@@@@@@@@\n//\n//\n// Stoners Split\n// Contract for splitting royalties between creators and community wallet.\n//\n// Twitter: https://twitter.com/mystoners\n//\n// Project by:      @sircryptos\n// Art by:          @linedetail\n// Code by:         @sarasioux\n//\n// SPDX-License-Identifier: MIT\n\npragma solidity ^0.8.0;\n\nimport \"@openzeppelin/contracts/finance/PaymentSplitter.sol\";\n\ncontract StonersSplit is PaymentSplitter {\n\n    constructor(address[] memory payees, uint256[] memory shares) PaymentSplitter(payees, shares) {}\n\n    function release() public {\n        release(payable(msg.sender));\n    }\n\n    function getOwed(address payable account) public view returns (uint256) {\n        uint256 totalReceived = address(this).balance + totalReleased();\n        return totalReceived * shares(account) / totalShares() - released(account);\n    }\n}\n",
  "sourcePath": "/Users/Shared/Code/experimental/stoners-stack/stoners-contracts/contracts/StonersSplit.sol",
  "compiler": {
    "name": "solc",
    "version": "0.8.4+commit.c7e474f2.Emscripten.clang"
  },
  "schemaVersion": "3.4.1",
  "updatedAt": "2021-07-11T18:14:53.096Z",
  "networkType": "ethereum",
  "devdoc": {
    "kind": "dev",
    "methods": {
      "payee(uint256)": {
        "details": "Getter for the address of the payee number `index`."
      },
      "release(address)": {
        "details": "Triggers a transfer to `account` of the amount of Ether they are owed, according to their percentage of the total shares and their previous withdrawals."
      },
      "released(address)": {
        "details": "Getter for the amount of Ether already released to a payee."
      },
      "shares(address)": {
        "details": "Getter for the amount of shares held by an account."
      },
      "totalReleased()": {
        "details": "Getter for the total amount of Ether already released."
      },
      "totalShares()": {
        "details": "Getter for the total shares held by payees."
      }
    },
    "version": 1
  },
  "userdoc": {
    "kind": "user",
    "methods": {},
    "version": 1
  }
}