{
  "contractName": "Weed",
  "abi": [
    {
      "inputs": [],
      "stateMutability": "nonpayable",
      "type": "constructor"
    },
    {
      "anonymous": false,
      "inputs": [
        {
          "indexed": true,
          "internalType": "address",
          "name": "owner",
          "type": "address"
        },
        {
          "indexed": true,
          "internalType": "address",
          "name": "spender",
          "type": "address"
        },
        {
          "indexed": false,
          "internalType": "uint256",
          "name": "value",
          "type": "uint256"
        }
      ],
      "name": "Approval",
      "type": "event"
    },
    {
      "anonymous": false,
      "inputs": [
        {
          "indexed": true,
          "internalType": "address",
          "name": "previousOwner",
          "type": "address"
        },
        {
          "indexed": true,
          "internalType": "address",
          "name": "newOwner",
          "type": "address"
        }
      ],
      "name": "OwnershipTransferred",
      "type": "event"
    },
    {
      "anonymous": false,
      "inputs": [
        {
          "indexed": true,
          "internalType": "address",
          "name": "from",
          "type": "address"
        },
        {
          "indexed": true,
          "internalType": "address",
          "name": "to",
          "type": "address"
        },
        {
          "indexed": false,
          "internalType": "uint256",
          "name": "value",
          "type": "uint256"
        }
      ],
      "name": "Transfer",
      "type": "event"
    },
    {
      "inputs": [],
      "name": "DAILY_CLAIM_AMOUNT",
      "outputs": [
        {
          "internalType": "uint256",
          "name": "",
          "type": "uint256"
        }
      ],
      "stateMutability": "view",
      "type": "function",
      "constant": true
    },
    {
      "inputs": [],
      "name": "FIRST_CLAIM_AMOUNT",
      "outputs": [
        {
          "internalType": "uint256",
          "name": "",
          "type": "uint256"
        }
      ],
      "stateMutability": "view",
      "type": "function",
      "constant": true
    },
    {
      "inputs": [],
      "name": "MAX_UNCLAIMED_DAYS",
      "outputs": [
        {
          "internalType": "uint256",
          "name": "",
          "type": "uint256"
        }
      ],
      "stateMutability": "view",
      "type": "function",
      "constant": true
    },
    {
      "inputs": [
        {
          "internalType": "address",
          "name": "owner",
          "type": "address"
        },
        {
          "internalType": "address",
          "name": "spender",
          "type": "address"
        }
      ],
      "name": "allowance",
      "outputs": [
        {
          "internalType": "uint256",
          "name": "",
          "type": "uint256"
        }
      ],
      "stateMutability": "view",
      "type": "function",
      "constant": true
    },
    {
      "inputs": [
        {
          "internalType": "address",
          "name": "spender",
          "type": "address"
        },
        {
          "internalType": "uint256",
          "name": "amount",
          "type": "uint256"
        }
      ],
      "name": "approve",
      "outputs": [
        {
          "internalType": "bool",
          "name": "",
          "type": "bool"
        }
      ],
      "stateMutability": "nonpayable",
      "type": "function"
    },
    {
      "inputs": [
        {
          "internalType": "address",
          "name": "account",
          "type": "address"
        }
      ],
      "name": "balanceOf",
      "outputs": [
        {
          "internalType": "uint256",
          "name": "",
          "type": "uint256"
        }
      ],
      "stateMutability": "view",
      "type": "function",
      "constant": true
    },
    {
      "inputs": [
        {
          "internalType": "uint256",
          "name": "amount",
          "type": "uint256"
        }
      ],
      "name": "burn",
      "outputs": [],
      "stateMutability": "nonpayable",
      "type": "function"
    },
    {
      "inputs": [
        {
          "internalType": "address",
          "name": "account",
          "type": "address"
        },
        {
          "internalType": "uint256",
          "name": "amount",
          "type": "uint256"
        }
      ],
      "name": "burnFrom",
      "outputs": [],
      "stateMutability": "nonpayable",
      "type": "function"
    },
    {
      "inputs": [],
      "name": "decimals",
      "outputs": [
        {
          "internalType": "uint8",
          "name": "",
          "type": "uint8"
        }
      ],
      "stateMutability": "view",
      "type": "function",
      "constant": true
    },
    {
      "inputs": [
        {
          "internalType": "address",
          "name": "spender",
          "type": "address"
        },
        {
          "internalType": "uint256",
          "name": "subtractedValue",
          "type": "uint256"
        }
      ],
      "name": "decreaseAllowance",
      "outputs": [
        {
          "internalType": "bool",
          "name": "",
          "type": "bool"
        }
      ],
      "stateMutability": "nonpayable",
      "type": "function"
    },
    {
      "inputs": [
        {
          "internalType": "uint256",
          "name": "",
          "type": "uint256"
        }
      ],
      "name": "firstClaim",
      "outputs": [
        {
          "internalType": "bool",
          "name": "",
          "type": "bool"
        }
      ],
      "stateMutability": "view",
      "type": "function",
      "constant": true
    },
    {
      "inputs": [
        {
          "internalType": "address",
          "name": "spender",
          "type": "address"
        },
        {
          "internalType": "uint256",
          "name": "addedValue",
          "type": "uint256"
        }
      ],
      "name": "increaseAllowance",
      "outputs": [
        {
          "internalType": "bool",
          "name": "",
          "type": "bool"
        }
      ],
      "stateMutability": "nonpayable",
      "type": "function"
    },
    {
      "inputs": [
        {
          "internalType": "uint256",
          "name": "",
          "type": "uint256"
        }
      ],
      "name": "lastClaim",
      "outputs": [
        {
          "internalType": "uint256",
          "name": "",
          "type": "uint256"
        }
      ],
      "stateMutability": "view",
      "type": "function",
      "constant": true
    },
    {
      "inputs": [],
      "name": "name",
      "outputs": [
        {
          "internalType": "string",
          "name": "",
          "type": "string"
        }
      ],
      "stateMutability": "view",
      "type": "function",
      "constant": true
    },
    {
      "inputs": [],
      "name": "owner",
      "outputs": [
        {
          "internalType": "address",
          "name": "",
          "type": "address"
        }
      ],
      "stateMutability": "view",
      "type": "function",
      "constant": true
    },
    {
      "inputs": [],
      "name": "renounceOwnership",
      "outputs": [],
      "stateMutability": "nonpayable",
      "type": "function"
    },
    {
      "inputs": [],
      "name": "symbol",
      "outputs": [
        {
          "internalType": "string",
          "name": "",
          "type": "string"
        }
      ],
      "stateMutability": "view",
      "type": "function",
      "constant": true
    },
    {
      "inputs": [],
      "name": "totalSupply",
      "outputs": [
        {
          "internalType": "uint256",
          "name": "",
          "type": "uint256"
        }
      ],
      "stateMutability": "view",
      "type": "function",
      "constant": true
    },
    {
      "inputs": [
        {
          "internalType": "address",
          "name": "recipient",
          "type": "address"
        },
        {
          "internalType": "uint256",
          "name": "amount",
          "type": "uint256"
        }
      ],
      "name": "transfer",
      "outputs": [
        {
          "internalType": "bool",
          "name": "",
          "type": "bool"
        }
      ],
      "stateMutability": "nonpayable",
      "type": "function"
    },
    {
      "inputs": [
        {
          "internalType": "address",
          "name": "sender",
          "type": "address"
        },
        {
          "internalType": "address",
          "name": "recipient",
          "type": "address"
        },
        {
          "internalType": "uint256",
          "name": "amount",
          "type": "uint256"
        }
      ],
      "name": "transferFrom",
      "outputs": [
        {
          "internalType": "bool",
          "name": "",
          "type": "bool"
        }
      ],
      "stateMutability": "nonpayable",
      "type": "function"
    },
    {
      "inputs": [
        {
          "internalType": "address",
          "name": "newOwner",
          "type": "address"
        }
      ],
      "name": "transferOwnership",
      "outputs": [],
      "stateMutability": "nonpayable",
      "type": "function"
    },
    {
      "inputs": [
        {
          "internalType": "uint256",
          "name": "tokenId",
          "type": "uint256"
        }
      ],
      "name": "claimableWeed",
      "outputs": [
        {
          "internalType": "uint256",
          "name": "claimable",
          "type": "uint256"
        }
      ],
      "stateMutability": "view",
      "type": "function",
      "constant": true
    },
    {
      "inputs": [
        {
          "internalType": "uint256[]",
          "name": "tokenIds",
          "type": "uint256[]"
        }
      ],
      "name": "claimWeed",
      "outputs": [
        {
          "internalType": "uint256",
          "name": "totalClaimed",
          "type": "uint256"
        }
      ],
      "stateMutability": "nonpayable",
      "type": "function"
    },
    {
      "inputs": [],
      "name": "withdraw",
      "outputs": [],
      "stateMutability": "payable",
      "type": "function",
      "payable": true
    },
    {
      "inputs": [
        {
          "internalType": "contract IERC20",
          "name": "_token",
          "type": "address"
        },
        {
          "internalType": "uint256",
          "name": "_amount",
          "type": "uint256"
        }
      ],
      "name": "forwardERC20s",
      "outputs": [],
      "stateMutability": "nonpayable",
      "type": "function"
    }
  ],
  "bytecode": "0x60806040527313df7973ea203868af66fcffd86fe8cb63edd378600660006101000a81548173ffffffffffffffffffffffffffffffffffffffff021916908373ffffffffffffffffffffffffffffffffffffffff1602179055506110686007556045600855601e6009553480156200007657600080fd5b506040518060400160405280600481526020017f57656564000000000000000000000000000000000000000000000000000000008152506040518060400160405280600481526020017f57454544000000000000000000000000000000000000000000000000000000008152508160039080519060200190620000fb92919062000355565b5080600490805190602001906200011492919062000355565b505050600062000129620001e360201b60201c565b905080600560006101000a81548173ffffffffffffffffffffffffffffffffffffffff021916908373ffffffffffffffffffffffffffffffffffffffff1602179055508073ffffffffffffffffffffffffffffffffffffffff16600073ffffffffffffffffffffffffffffffffffffffff167f8be0079c531659141344cd1fd0a4f28419497f9722a3daafe3b4186f6b6457e060405160405180910390a350620001dd3362403179620001eb60201b60201c565b620005b1565b600033905090565b600073ffffffffffffffffffffffffffffffffffffffff168273ffffffffffffffffffffffffffffffffffffffff1614156200025e576040517f08c379a000000000000000000000000000000000000000000000000000000000815260040162000255906200043d565b60405180910390fd5b62000272600083836200035060201b60201c565b80600260008282546200028691906200048d565b92505081905550806000808473ffffffffffffffffffffffffffffffffffffffff1673ffffffffffffffffffffffffffffffffffffffff1681526020019081526020016000206000828254620002dd91906200048d565b925050819055508173ffffffffffffffffffffffffffffffffffffffff16600073ffffffffffffffffffffffffffffffffffffffff167fddf252ad1be2c89b69c2b068fc378daa952ba7f163c4a11628f55a4df523b3ef836040516200034491906200045f565b60405180910390a35050565b505050565b8280546200036390620004f4565b90600052602060002090601f016020900481019282620003875760008555620003d3565b82601f10620003a257805160ff1916838001178555620003d3565b82800160010185558215620003d3579182015b82811115620003d2578251825591602001919060010190620003b5565b5b509050620003e29190620003e6565b5090565b5b8082111562000401576000816000905550600101620003e7565b5090565b600062000414601f836200047c565b9150620004218262000588565b602082019050919050565b6200043781620004ea565b82525050565b60006020820190508181036000830152620004588162000405565b9050919050565b60006020820190506200047660008301846200042c565b92915050565b600082825260208201905092915050565b60006200049a82620004ea565b9150620004a783620004ea565b9250827fffffffffffffffffffffffffffffffffffffffffffffffffffffffffffffffff03821115620004df57620004de6200052a565b5b828201905092915050565b6000819050919050565b600060028204905060018216806200050d57607f821691505b6020821081141562000524576200052362000559565b5b50919050565b7f4e487b7100000000000000000000000000000000000000000000000000000000600052601160045260246000fd5b7f4e487b7100000000000000000000000000000000000000000000000000000000600052602260045260246000fd5b7f45524332303a206d696e7420746f20746865207a65726f206164647265737300600082015250565b612c6180620005c16000396000f3fe6080604052600436106101665760003560e01c806370a08231116100d1578063a457c2d71161008a578063a9059cbb11610064578063a9059cbb14610559578063ad024c5d14610596578063dd62ed3e146105c1578063f2fde38b146105fe57610166565b8063a457c2d7146104a2578063a4d336a3146104df578063a7ec6cc11461051c57610166565b806370a08231146103a6578063715018a6146103e357806379cc6790146103fa5780638da5cb5b1461042357806395d89b411461044e5780639727151a1461047957610166565b8063395093511161012357806339509351146102915780633c676b57146102ce5780633ccfd60b1461030b5780633d3728b51461031557806342966c68146103525780636c8cbd0d1461037b57610166565b806306fdde031461016b578063095ea7b31461019657806318160ddd146101d357806323b872dd146101fe57806323bd2e9a1461023b578063313ce56714610266575b600080fd5b34801561017757600080fd5b50610180610627565b60405161018d9190612242565b60405180910390f35b3480156101a257600080fd5b506101bd60048036038101906101b89190611e79565b6106b9565b6040516101ca9190612227565b60405180910390f35b3480156101df57600080fd5b506101e86106d7565b6040516101f59190612424565b60405180910390f35b34801561020a57600080fd5b5061022560048036038101906102209190611e2a565b6106e1565b6040516102329190612227565b60405180910390f35b34801561024757600080fd5b506102506107e2565b60405161025d9190612424565b60405180910390f35b34801561027257600080fd5b5061027b6107e8565b604051610288919061243f565b60405180910390f35b34801561029d57600080fd5b506102b860048036038101906102b39190611e79565b6107f1565b6040516102c59190612227565b60405180910390f35b3480156102da57600080fd5b506102f560048036038101906102f09190611f5b565b61089d565b6040516103029190612424565b60405180910390f35b610313610998565b005b34801561032157600080fd5b5061033c60048036038101906103379190611f5b565b610a54565b6040516103499190612424565b60405180910390f35b34801561035e57600080fd5b5061037960048036038101906103749190611f5b565b610a6c565b005b34801561038757600080fd5b50610390610a80565b60405161039d9190612424565b60405180910390f35b3480156103b257600080fd5b506103cd60048036038101906103c89190611d9c565b610a86565b6040516103da9190612424565b60405180910390f35b3480156103ef57600080fd5b506103f8610ace565b005b34801561040657600080fd5b50610421600480360381019061041c9190611e79565b610c0b565b005b34801561042f57600080fd5b50610438610c8f565b60405161044591906121e3565b60405180910390f35b34801561045a57600080fd5b50610463610cb9565b6040516104709190612242565b60405180910390f35b34801561048557600080fd5b506104a0600480360381019061049b9190611f1f565b610d4b565b005b3480156104ae57600080fd5b506104c960048036038101906104c49190611e79565b610e59565b6040516104d69190612227565b60405180910390f35b3480156104eb57600080fd5b5061050660048036038101906105019190611eb5565b610f4d565b6040516105139190612424565b60405180910390f35b34801561052857600080fd5b50610543600480360381019061053e9190611f5b565b611265565b6040516105509190612227565b60405180910390f35b34801561056557600080fd5b50610580600480360381019061057b9190611e79565b611285565b60405161058d9190612227565b60405180910390f35b3480156105a257600080fd5b506105ab6112a3565b6040516105b89190612424565b60405180910390f35b3480156105cd57600080fd5b506105e860048036038101906105e39190611dee565b6112a9565b6040516105f59190612424565b60405180910390f35b34801561060a57600080fd5b5061062560048036038101906106209190611d9c565b611330565b005b60606003805461063690612676565b80601f016020809104026020016040519081016040528092919081815260200182805461066290612676565b80156106af5780601f10610684576101008083540402835291602001916106af565b820191906000526020600020905b81548152906001019060200180831161069257829003601f168201915b5050505050905090565b60006106cd6106c66114dc565b84846114e4565b6001905092915050565b6000600254905090565b60006106ee8484846116af565b6000600160008673ffffffffffffffffffffffffffffffffffffffff1673ffffffffffffffffffffffffffffffffffffffff16815260200190815260200160002060006107396114dc565b73ffffffffffffffffffffffffffffffffffffffff1673ffffffffffffffffffffffffffffffffffffffff168152602001908152602001600020549050828110156107b9576040517f08c379a00000000000000000000000000000000000000000000000000000000081526004016107b090612324565b60405180910390fd5b6107d6856107c56114dc565b85846107d191906125a8565b6114e4565b60019150509392505050565b60075481565b60006012905090565b60006108936107fe6114dc565b84846001600061080c6114dc565b73ffffffffffffffffffffffffffffffffffffffff1673ffffffffffffffffffffffffffffffffffffffff16815260200190815260200160002060008873ffffffffffffffffffffffffffffffffffffffff1673ffffffffffffffffffffffffffffffffffffffff1681526020019081526020016000205461088e91906124c7565b6114e4565b6001905092915050565b6000600a600083815260200190815260200160002060009054906101000a900460ff166108d557600754816108d291906124c7565b90505b6000600b600084815260200190815260200160002054141561090657600854816108ff91906124c7565b9050610993565b60006109576008546109496201518061093b600b6000898152602001908152602001600020544261192e90919063ffffffff16565b61194490919063ffffffff16565b61195a90919063ffffffff16565b9050600854600954610969919061254e565b81111561098357600854600954610980919061254e565b90505b808261098f91906124c7565b9150505b919050565b6109a06114dc565b73ffffffffffffffffffffffffffffffffffffffff166109be610c8f565b73ffffffffffffffffffffffffffffffffffffffff1614610a14576040517f08c379a0000000000000000000000000000000000000000000000000000000008152600401610a0b90612344565b60405180910390fd5b3373ffffffffffffffffffffffffffffffffffffffff166108fc479081150290604051600060405180830381858888f19350505050610a5257600080fd5b565b600b6020528060005260406000206000915090505481565b610a7d610a776114dc565b82611970565b50565b60085481565b60008060008373ffffffffffffffffffffffffffffffffffffffff1673ffffffffffffffffffffffffffffffffffffffff168152602001908152602001600020549050919050565b610ad66114dc565b73ffffffffffffffffffffffffffffffffffffffff16610af4610c8f565b73ffffffffffffffffffffffffffffffffffffffff1614610b4a576040517f08c379a0000000000000000000000000000000000000000000000000000000008152600401610b4190612344565b60405180910390fd5b600073ffffffffffffffffffffffffffffffffffffffff16600560009054906101000a900473ffffffffffffffffffffffffffffffffffffffff1673ffffffffffffffffffffffffffffffffffffffff167f8be0079c531659141344cd1fd0a4f28419497f9722a3daafe3b4186f6b6457e060405160405180910390a36000600560006101000a81548173ffffffffffffffffffffffffffffffffffffffff021916908373ffffffffffffffffffffffffffffffffffffffff160217905550565b6000610c1e83610c196114dc565b6112a9565b905081811015610c63576040517f08c379a0000000000000000000000000000000000000000000000000000000008152600401610c5a90612364565b60405180910390fd5b610c8083610c6f6114dc565b8484610c7b91906125a8565b6114e4565b610c8a8383611970565b505050565b6000600560009054906101000a900473ffffffffffffffffffffffffffffffffffffffff16905090565b606060048054610cc890612676565b80601f0160208091040260200160405190810160405280929190818152602001828054610cf490612676565b8015610d415780601f10610d1657610100808354040283529160200191610d41565b820191906000526020600020905b815481529060010190602001808311610d2457829003601f168201915b5050505050905090565b610d536114dc565b73ffffffffffffffffffffffffffffffffffffffff16610d71610c8f565b73ffffffffffffffffffffffffffffffffffffffff1614610dc7576040517f08c379a0000000000000000000000000000000000000000000000000000000008152600401610dbe90612344565b60405180910390fd5b8173ffffffffffffffffffffffffffffffffffffffff1663a9059cbb33836040518363ffffffff1660e01b8152600401610e029291906121fe565b602060405180830381600087803b158015610e1c57600080fd5b505af1158015610e30573d6000803e3d6000fd5b505050506040513d601f19601f82011682018060405250810190610e549190611ef6565b505050565b60008060016000610e686114dc565b73ffffffffffffffffffffffffffffffffffffffff1673ffffffffffffffffffffffffffffffffffffffff16815260200190815260200160002060008573ffffffffffffffffffffffffffffffffffffffff1673ffffffffffffffffffffffffffffffffffffffff16815260200190815260200160002054905082811015610f25576040517f08c379a0000000000000000000000000000000000000000000000000000000008152600401610f1c906123e4565b60405180910390fd5b610f42610f306114dc565b858584610f3d91906125a8565b6114e4565b600191505092915050565b600080600090505b825181101561124b576000838281518110610f99577f4e487b7100000000000000000000000000000000000000000000000000000000600052603260045260246000fd5b602002602001015190503373ffffffffffffffffffffffffffffffffffffffff16600660009054906101000a900473ffffffffffffffffffffffffffffffffffffffff1673ffffffffffffffffffffffffffffffffffffffff16636352211e836040518263ffffffff1660e01b81526004016110159190612424565b60206040518083038186803b15801561102d57600080fd5b505afa158015611041573d6000803e3d6000fd5b505050506040513d601f19601f820116820180604052508101906110659190611dc5565b73ffffffffffffffffffffffffffffffffffffffff16146110bb576040517f08c379a00000000000000000000000000000000000000000000000000000000081526004016110b290612304565b60405180910390fd5b6000806110c78361089d565b111561123657600a600083815260200190815260200160002060009054906101000a900460ff1661112f576007548161110091906124c7565b90506001600a600084815260200190815260200160002060006101000a81548160ff0219169083151502179055505b6000600b6000848152602001908152602001600020541415611178576008548161115991906124c7565b905042600b600084815260200190815260200160002081905550611227565b60006111c96008546111bb620151806111ad600b6000898152602001908152602001600020544261192e90919063ffffffff16565b61194490919063ffffffff16565b61195a90919063ffffffff16565b90506008546009546111db919061254e565b8111156111f5576008546009546111f2919061254e565b90505b600081111561122557808261120a91906124c7565b915042600b6000858152602001908152602001600020819055505b505b808461123391906124c7565b93505b50508080611243906126d9565b915050610f55565b5060008111156112605761125f3382611b44565b5b919050565b600a6020528060005260406000206000915054906101000a900460ff1681565b60006112996112926114dc565b84846116af565b6001905092915050565b60095481565b6000600160008473ffffffffffffffffffffffffffffffffffffffff1673ffffffffffffffffffffffffffffffffffffffff16815260200190815260200160002060008373ffffffffffffffffffffffffffffffffffffffff1673ffffffffffffffffffffffffffffffffffffffff16815260200190815260200160002054905092915050565b6113386114dc565b73ffffffffffffffffffffffffffffffffffffffff16611356610c8f565b73ffffffffffffffffffffffffffffffffffffffff16146113ac576040517f08c379a00000000000000000000000000000000000000000000000000000000081526004016113a390612344565b60405180910390fd5b600073ffffffffffffffffffffffffffffffffffffffff168173ffffffffffffffffffffffffffffffffffffffff16141561141c576040517f08c379a0000000000000000000000000000000000000000000000000000000008152600401611413906122a4565b60405180910390fd5b8073ffffffffffffffffffffffffffffffffffffffff16600560009054906101000a900473ffffffffffffffffffffffffffffffffffffffff1673ffffffffffffffffffffffffffffffffffffffff167f8be0079c531659141344cd1fd0a4f28419497f9722a3daafe3b4186f6b6457e060405160405180910390a380600560006101000a81548173ffffffffffffffffffffffffffffffffffffffff021916908373ffffffffffffffffffffffffffffffffffffffff16021790555050565b600033905090565b600073ffffffffffffffffffffffffffffffffffffffff168373ffffffffffffffffffffffffffffffffffffffff161415611554576040517f08c379a000000000000000000000000000000000000000000000000000000000815260040161154b906123c4565b60405180910390fd5b600073ffffffffffffffffffffffffffffffffffffffff168273ffffffffffffffffffffffffffffffffffffffff1614156115c4576040517f08c379a00000000000000000000000000000000000000000000000000000000081526004016115bb906122c4565b60405180910390fd5b80600160008573ffffffffffffffffffffffffffffffffffffffff1673ffffffffffffffffffffffffffffffffffffffff16815260200190815260200160002060008473ffffffffffffffffffffffffffffffffffffffff1673ffffffffffffffffffffffffffffffffffffffff168152602001908152602001600020819055508173ffffffffffffffffffffffffffffffffffffffff168373ffffffffffffffffffffffffffffffffffffffff167f8c5be1e5ebec7d5bd14f71427d1e84f3dd0314c0f7b2291e5b200ac8c7c3b925836040516116a29190612424565b60405180910390a3505050565b600073ffffffffffffffffffffffffffffffffffffffff168373ffffffffffffffffffffffffffffffffffffffff16141561171f576040517f08c379a0000000000000000000000000000000000000000000000000000000008152600401611716906123a4565b60405180910390fd5b600073ffffffffffffffffffffffffffffffffffffffff168273ffffffffffffffffffffffffffffffffffffffff16141561178f576040517f08c379a000000000000000000000000000000000000000000000000000000000815260040161178690612264565b60405180910390fd5b61179a838383611c98565b60008060008573ffffffffffffffffffffffffffffffffffffffff1673ffffffffffffffffffffffffffffffffffffffff16815260200190815260200160002054905081811015611820576040517f08c379a0000000000000000000000000000000000000000000000000000000008152600401611817906122e4565b60405180910390fd5b818161182c91906125a8565b6000808673ffffffffffffffffffffffffffffffffffffffff1673ffffffffffffffffffffffffffffffffffffffff16815260200190815260200160002081905550816000808573ffffffffffffffffffffffffffffffffffffffff1673ffffffffffffffffffffffffffffffffffffffff16815260200190815260200160002060008282546118bc91906124c7565b925050819055508273ffffffffffffffffffffffffffffffffffffffff168473ffffffffffffffffffffffffffffffffffffffff167fddf252ad1be2c89b69c2b068fc378daa952ba7f163c4a11628f55a4df523b3ef846040516119209190612424565b60405180910390a350505050565b6000818361193c91906125a8565b905092915050565b60008183611952919061251d565b905092915050565b60008183611968919061254e565b905092915050565b600073ffffffffffffffffffffffffffffffffffffffff168273ffffffffffffffffffffffffffffffffffffffff1614156119e0576040517f08c379a00000000000000000000000000000000000000000000000000000000081526004016119d790612384565b60405180910390fd5b6119ec82600083611c98565b60008060008473ffffffffffffffffffffffffffffffffffffffff1673ffffffffffffffffffffffffffffffffffffffff16815260200190815260200160002054905081811015611a72576040517f08c379a0000000000000000000000000000000000000000000000000000000008152600401611a6990612284565b60405180910390fd5b8181611a7e91906125a8565b6000808573ffffffffffffffffffffffffffffffffffffffff1673ffffffffffffffffffffffffffffffffffffffff168152602001908152602001600020819055508160026000828254611ad291906125a8565b92505081905550600073ffffffffffffffffffffffffffffffffffffffff168373ffffffffffffffffffffffffffffffffffffffff167fddf252ad1be2c89b69c2b068fc378daa952ba7f163c4a11628f55a4df523b3ef84604051611b379190612424565b60405180910390a3505050565b600073ffffffffffffffffffffffffffffffffffffffff168273ffffffffffffffffffffffffffffffffffffffff161415611bb4576040517f08c379a0000000000000000000000000000000000000000000000000000000008152600401611bab90612404565b60405180910390fd5b611bc060008383611c98565b8060026000828254611bd291906124c7565b92505081905550806000808473ffffffffffffffffffffffffffffffffffffffff1673ffffffffffffffffffffffffffffffffffffffff1681526020019081526020016000206000828254611c2791906124c7565b925050819055508173ffffffffffffffffffffffffffffffffffffffff16600073ffffffffffffffffffffffffffffffffffffffff167fddf252ad1be2c89b69c2b068fc378daa952ba7f163c4a11628f55a4df523b3ef83604051611c8c9190612424565b60405180910390a35050565b505050565b6000611cb0611cab8461247f565b61245a565b90508083825260208201905082856020860282011115611ccf57600080fd5b60005b85811015611cff5781611ce58882611d87565b845260208401935060208301925050600181019050611cd2565b5050509392505050565b600081359050611d1881612bcf565b92915050565b600081519050611d2d81612bcf565b92915050565b600082601f830112611d4457600080fd5b8135611d54848260208601611c9d565b91505092915050565b600081519050611d6c81612be6565b92915050565b600081359050611d8181612bfd565b92915050565b600081359050611d9681612c14565b92915050565b600060208284031215611dae57600080fd5b6000611dbc84828501611d09565b91505092915050565b600060208284031215611dd757600080fd5b6000611de584828501611d1e565b91505092915050565b60008060408385031215611e0157600080fd5b6000611e0f85828601611d09565b9250506020611e2085828601611d09565b9150509250929050565b600080600060608486031215611e3f57600080fd5b6000611e4d86828701611d09565b9350506020611e5e86828701611d09565b9250506040611e6f86828701611d87565b9150509250925092565b60008060408385031215611e8c57600080fd5b6000611e9a85828601611d09565b9250506020611eab85828601611d87565b9150509250929050565b600060208284031215611ec757600080fd5b600082013567ffffffffffffffff811115611ee157600080fd5b611eed84828501611d33565b91505092915050565b600060208284031215611f0857600080fd5b6000611f1684828501611d5d565b91505092915050565b60008060408385031215611f3257600080fd5b6000611f4085828601611d72565b9250506020611f5185828601611d87565b9150509250929050565b600060208284031215611f6d57600080fd5b6000611f7b84828501611d87565b91505092915050565b611f8d816125dc565b82525050565b611f9c816125ee565b82525050565b6000611fad826124ab565b611fb781856124b6565b9350611fc7818560208601612643565b611fd0816127de565b840191505092915050565b6000611fe86023836124b6565b9150611ff3826127ef565b604082019050919050565b600061200b6022836124b6565b91506120168261283e565b604082019050919050565b600061202e6026836124b6565b91506120398261288d565b604082019050919050565b60006120516022836124b6565b915061205c826128dc565b604082019050919050565b60006120746026836124b6565b915061207f8261292b565b604082019050919050565b6000612097601e836124b6565b91506120a28261297a565b602082019050919050565b60006120ba6028836124b6565b91506120c5826129a3565b604082019050919050565b60006120dd6020836124b6565b91506120e8826129f2565b602082019050919050565b60006121006024836124b6565b915061210b82612a1b565b604082019050919050565b60006121236021836124b6565b915061212e82612a6a565b604082019050919050565b60006121466025836124b6565b915061215182612ab9565b604082019050919050565b60006121696024836124b6565b915061217482612b08565b604082019050919050565b600061218c6025836124b6565b915061219782612b57565b604082019050919050565b60006121af601f836124b6565b91506121ba82612ba6565b602082019050919050565b6121ce8161262c565b82525050565b6121dd81612636565b82525050565b60006020820190506121f86000830184611f84565b92915050565b60006040820190506122136000830185611f84565b61222060208301846121c5565b9392505050565b600060208201905061223c6000830184611f93565b92915050565b6000602082019050818103600083015261225c8184611fa2565b905092915050565b6000602082019050818103600083015261227d81611fdb565b9050919050565b6000602082019050818103600083015261229d81611ffe565b9050919050565b600060208201905081810360008301526122bd81612021565b9050919050565b600060208201905081810360008301526122dd81612044565b9050919050565b600060208201905081810360008301526122fd81612067565b9050919050565b6000602082019050818103600083015261231d8161208a565b9050919050565b6000602082019050818103600083015261233d816120ad565b9050919050565b6000602082019050818103600083015261235d816120d0565b9050919050565b6000602082019050818103600083015261237d816120f3565b9050919050565b6000602082019050818103600083015261239d81612116565b9050919050565b600060208201905081810360008301526123bd81612139565b9050919050565b600060208201905081810360008301526123dd8161215c565b9050919050565b600060208201905081810360008301526123fd8161217f565b9050919050565b6000602082019050818103600083015261241d816121a2565b9050919050565b600060208201905061243960008301846121c5565b92915050565b600060208201905061245460008301846121d4565b92915050565b6000612464612475565b905061247082826126a8565b919050565b6000604051905090565b600067ffffffffffffffff82111561249a576124996127af565b5b602082029050602081019050919050565b600081519050919050565b600082825260208201905092915050565b60006124d28261262c565b91506124dd8361262c565b9250827fffffffffffffffffffffffffffffffffffffffffffffffffffffffffffffffff0382111561251257612511612722565b5b828201905092915050565b60006125288261262c565b91506125338361262c565b92508261254357612542612751565b5b828204905092915050565b60006125598261262c565b91506125648361262c565b9250817fffffffffffffffffffffffffffffffffffffffffffffffffffffffffffffffff048311821515161561259d5761259c612722565b5b828202905092915050565b60006125b38261262c565b91506125be8361262c565b9250828210156125d1576125d0612722565b5b828203905092915050565b60006125e78261260c565b9050919050565b60008115159050919050565b6000612605826125dc565b9050919050565b600073ffffffffffffffffffffffffffffffffffffffff82169050919050565b6000819050919050565b600060ff82169050919050565b60005b83811015612661578082015181840152602081019050612646565b83811115612670576000848401525b50505050565b6000600282049050600182168061268e57607f821691505b602082108114156126a2576126a1612780565b5b50919050565b6126b1826127de565b810181811067ffffffffffffffff821117156126d0576126cf6127af565b5b80604052505050565b60006126e48261262c565b91507fffffffffffffffffffffffffffffffffffffffffffffffffffffffffffffffff82141561271757612716612722565b5b600182019050919050565b7f4e487b7100000000000000000000000000000000000000000000000000000000600052601160045260246000fd5b7f4e487b7100000000000000000000000000000000000000000000000000000000600052601260045260246000fd5b7f4e487b7100000000000000000000000000000000000000000000000000000000600052602260045260246000fd5b7f4e487b7100000000000000000000000000000000000000000000000000000000600052604160045260246000fd5b6000601f19601f8301169050919050565b7f45524332303a207472616e7366657220746f20746865207a65726f206164647260008201527f6573730000000000000000000000000000000000000000000000000000000000602082015250565b7f45524332303a206275726e20616d6f756e7420657863656564732062616c616e60008201527f6365000000000000000000000000000000000000000000000000000000000000602082015250565b7f4f776e61626c653a206e6577206f776e657220697320746865207a65726f206160008201527f6464726573730000000000000000000000000000000000000000000000000000602082015250565b7f45524332303a20617070726f766520746f20746865207a65726f20616464726560008201527f7373000000000000000000000000000000000000000000000000000000000000602082015250565b7f45524332303a207472616e7366657220616d6f756e742065786365656473206260008201527f616c616e63650000000000000000000000000000000000000000000000000000602082015250565b7f5468617420726f636b206973206e6f74206f776e656420627920796f752e0000600082015250565b7f45524332303a207472616e7366657220616d6f756e742065786365656473206160008201527f6c6c6f77616e6365000000000000000000000000000000000000000000000000602082015250565b7f4f776e61626c653a2063616c6c6572206973206e6f7420746865206f776e6572600082015250565b7f45524332303a206275726e20616d6f756e74206578636565647320616c6c6f7760008201527f616e636500000000000000000000000000000000000000000000000000000000602082015250565b7f45524332303a206275726e2066726f6d20746865207a65726f2061646472657360008201527f7300000000000000000000000000000000000000000000000000000000000000602082015250565b7f45524332303a207472616e736665722066726f6d20746865207a65726f20616460008201527f6472657373000000000000000000000000000000000000000000000000000000602082015250565b7f45524332303a20617070726f76652066726f6d20746865207a65726f2061646460008201527f7265737300000000000000000000000000000000000000000000000000000000602082015250565b7f45524332303a2064656372656173656420616c6c6f77616e63652062656c6f7760008201527f207a65726f000000000000000000000000000000000000000000000000000000602082015250565b7f45524332303a206d696e7420746f20746865207a65726f206164647265737300600082015250565b612bd8816125dc565b8114612be357600080fd5b50565b612bef816125ee565b8114612bfa57600080fd5b50565b612c06816125fa565b8114612c1157600080fd5b50565b612c1d8161262c565b8114612c2857600080fd5b5056fea26469706673582212207dcd67dd4b1dec56fbc12a0f79c8a0339d30da270b6ffd443d5e27d1c9c962dd64736f6c63430008040033",
  "immutableReferences": {},
  "source": "// SPDX-License-Identifier: MIT\npragma solidity ^0.8.2;\n\nimport \"@openzeppelin/contracts/token/ERC20/ERC20.sol\";\nimport \"@openzeppelin/contracts/token/ERC721/ERC721.sol\";\nimport \"@openzeppelin/contracts/token/ERC20/extensions/ERC20Burnable.sol\";\nimport '@openzeppelin/contracts/access/Ownable.sol';\nimport \"@openzeppelin/contracts/utils/math/SafeMath.sol\";\n\ncontract Weed is ERC20, ERC20Burnable, Ownable {\n    using SafeMath for uint256;\n\n    ERC721 rockContract = ERC721(0x13df7973eA203868Af66fCffd86FE8cB63EDd378);\n\n    uint256 public FIRST_CLAIM_AMOUNT = 4200;\n    uint256 public DAILY_CLAIM_AMOUNT = 69;\n    uint256 public MAX_UNCLAIMED_DAYS = 30;\n\n    mapping(uint256 => bool) public firstClaim;\n    mapping(uint256 => uint256) public lastClaim;\n\n    constructor() ERC20(\"Weed\", \"WEED\") {\n        _mint(msg.sender, 4206969);\n    }\n\n    function claimableWeed(uint256 tokenId) public view returns (uint256 claimable) {\n        if(!firstClaim[tokenId]) {\n            claimable += FIRST_CLAIM_AMOUNT;\n        }\n        if(lastClaim[tokenId] == 0) {\n            claimable += DAILY_CLAIM_AMOUNT;\n        } else {\n            uint256 unclaimed = block.timestamp.sub(lastClaim[tokenId]).div(86400).mul(DAILY_CLAIM_AMOUNT);\n            if(unclaimed > MAX_UNCLAIMED_DAYS * DAILY_CLAIM_AMOUNT) {\n                unclaimed = MAX_UNCLAIMED_DAYS * DAILY_CLAIM_AMOUNT;\n            }\n            claimable += unclaimed;\n        }\n        return claimable;\n    }\n\n    function claimWeed(uint256[] memory tokenIds) public returns (uint256 totalClaimed) {\n        for(uint256 i=0; i<tokenIds.length; i++) {\n            uint256 tokenId = tokenIds[i];\n            require(rockContract.ownerOf(tokenId) == msg.sender, \"That rock is not owned by you.\");\n            uint256 claimable;\n            if(claimableWeed(tokenId) > 0) {\n                if(!firstClaim[tokenId]) {\n                    claimable += FIRST_CLAIM_AMOUNT;\n                    firstClaim[tokenId] = true;\n                }\n                if(lastClaim[tokenId] == 0) {\n                    claimable += DAILY_CLAIM_AMOUNT;\n                    lastClaim[tokenId] = block.timestamp;\n                } else {\n                    uint256 unclaimed = block.timestamp.sub(lastClaim[tokenId]).div(86400).mul(DAILY_CLAIM_AMOUNT);\n                    if(unclaimed > MAX_UNCLAIMED_DAYS * DAILY_CLAIM_AMOUNT) {\n                        unclaimed = MAX_UNCLAIMED_DAYS * DAILY_CLAIM_AMOUNT;\n                    }\n                    if(unclaimed > 0) {\n                        claimable += unclaimed;\n                        lastClaim[tokenId] = block.timestamp;\n                    }\n                }\n                totalClaimed += claimable;\n            }\n        }\n\n        if(totalClaimed > 0) {\n            _mint(msg.sender, totalClaimed);\n        }\n        return totalClaimed;\n    }\n\n    /*\n    *   Money management.\n    */\n    function withdraw() public payable onlyOwner {\n        require(payable(msg.sender).send(address(this).balance));\n    }\n    function forwardERC20s(IERC20 _token, uint256 _amount) public onlyOwner {\n        _token.transfer(msg.sender, _amount);\n    }\n}\n",
  "sourcePath": "/Users/Shared/Code/experimental/stoners-stack/stoners-contracts/contracts/Weed.sol",
  "compiler": {
    "name": "solc",
    "version": "0.8.4+commit.c7e474f2.Emscripten.clang"
  },
  "schemaVersion": "3.4.1",
  "updatedAt": "2021-07-29T15:30:12.024Z",
  "networkType": "ethereum",
  "devdoc": {
    "kind": "dev",
    "methods": {
      "allowance(address,address)": {
        "details": "See {IERC20-allowance}."
      },
      "approve(address,uint256)": {
        "details": "See {IERC20-approve}. Requirements: - `spender` cannot be the zero address."
      },
      "balanceOf(address)": {
        "details": "See {IERC20-balanceOf}."
      },
      "burn(uint256)": {
        "details": "Destroys `amount` tokens from the caller. See {ERC20-_burn}."
      },
      "burnFrom(address,uint256)": {
        "details": "Destroys `amount` tokens from `account`, deducting from the caller's allowance. See {ERC20-_burn} and {ERC20-allowance}. Requirements: - the caller must have allowance for ``accounts``'s tokens of at least `amount`."
      },
      "decimals()": {
        "details": "Returns the number of decimals used to get its user representation. For example, if `decimals` equals `2`, a balance of `505` tokens should be displayed to a user as `5,05` (`505 / 10 ** 2`). Tokens usually opt for a value of 18, imitating the relationship between Ether and Wei. This is the value {ERC20} uses, unless this function is overridden; NOTE: This information is only used for _display_ purposes: it in no way affects any of the arithmetic of the contract, including {IERC20-balanceOf} and {IERC20-transfer}."
      },
      "decreaseAllowance(address,uint256)": {
        "details": "Atomically decreases the allowance granted to `spender` by the caller. This is an alternative to {approve} that can be used as a mitigation for problems described in {IERC20-approve}. Emits an {Approval} event indicating the updated allowance. Requirements: - `spender` cannot be the zero address. - `spender` must have allowance for the caller of at least `subtractedValue`."
      },
      "increaseAllowance(address,uint256)": {
        "details": "Atomically increases the allowance granted to `spender` by the caller. This is an alternative to {approve} that can be used as a mitigation for problems described in {IERC20-approve}. Emits an {Approval} event indicating the updated allowance. Requirements: - `spender` cannot be the zero address."
      },
      "name()": {
        "details": "Returns the name of the token."
      },
      "owner()": {
        "details": "Returns the address of the current owner."
      },
      "renounceOwnership()": {
        "details": "Leaves the contract without owner. It will not be possible to call `onlyOwner` functions anymore. Can only be called by the current owner. NOTE: Renouncing ownership will leave the contract without an owner, thereby removing any functionality that is only available to the owner."
      },
      "symbol()": {
        "details": "Returns the symbol of the token, usually a shorter version of the name."
      },
      "totalSupply()": {
        "details": "See {IERC20-totalSupply}."
      },
      "transfer(address,uint256)": {
        "details": "See {IERC20-transfer}. Requirements: - `recipient` cannot be the zero address. - the caller must have a balance of at least `amount`."
      },
      "transferFrom(address,address,uint256)": {
        "details": "See {IERC20-transferFrom}. Emits an {Approval} event indicating the updated allowance. This is not required by the EIP. See the note at the beginning of {ERC20}. Requirements: - `sender` and `recipient` cannot be the zero address. - `sender` must have a balance of at least `amount`. - the caller must have allowance for ``sender``'s tokens of at least `amount`."
      },
      "transferOwnership(address)": {
        "details": "Transfers ownership of the contract to a new account (`newOwner`). Can only be called by the current owner."
      }
    },
    "version": 1
  },
  "userdoc": {
    "kind": "user",
    "methods": {},
    "version": 1
  }
}